{
  "contracts/MamaPutV2.sol": {
    "MamaPutV2": {
      "abi": [
        {
          "inputs": [
            {
              "internalType": "contract IMamaPut",
              "name": "_MAMA_PUT",
              "type": "address"
            },
            {
              "internalType": "contract IERC20",
              "name": "_jollof",
              "type": "address"
            },
            {
              "internalType": "uint256",
              "name": "_MASTER_PID",
              "type": "uint256"
            }
          ],
          "stateMutability": "nonpayable",
          "type": "constructor"
        },
        {
          "anonymous": false,
          "inputs": [
            {
              "indexed": true,
              "internalType": "address",
              "name": "user",
              "type": "address"
            },
            {
              "indexed": true,
              "internalType": "uint256",
              "name": "pid",
              "type": "uint256"
            },
            {
              "indexed": false,
              "internalType": "uint256",
              "name": "amount",
              "type": "uint256"
            },
            {
              "indexed": true,
              "internalType": "address",
              "name": "to",
              "type": "address"
            }
          ],
          "name": "Deposit",
          "type": "event"
        },
        {
          "anonymous": false,
          "inputs": [
            {
              "indexed": true,
              "internalType": "address",
              "name": "user",
              "type": "address"
            },
            {
              "indexed": true,
              "internalType": "uint256",
              "name": "pid",
              "type": "uint256"
            },
            {
              "indexed": false,
              "internalType": "uint256",
              "name": "amount",
              "type": "uint256"
            },
            {
              "indexed": true,
              "internalType": "address",
              "name": "to",
              "type": "address"
            }
          ],
          "name": "EmergencyWithdraw",
          "type": "event"
        },
        {
          "anonymous": false,
          "inputs": [
            {
              "indexed": true,
              "internalType": "address",
              "name": "user",
              "type": "address"
            },
            {
              "indexed": true,
              "internalType": "uint256",
              "name": "pid",
              "type": "uint256"
            },
            {
              "indexed": false,
              "internalType": "uint256",
              "name": "amount",
              "type": "uint256"
            }
          ],
          "name": "Harvest",
          "type": "event"
        },
        {
          "anonymous": false,
          "inputs": [],
          "name": "LogInit",
          "type": "event"
        },
        {
          "anonymous": false,
          "inputs": [
            {
              "indexed": true,
              "internalType": "uint256",
              "name": "pid",
              "type": "uint256"
            },
            {
              "indexed": false,
              "internalType": "uint256",
              "name": "allocPoint",
              "type": "uint256"
            },
            {
              "indexed": true,
              "internalType": "contract IERC20",
              "name": "lpToken",
              "type": "address"
            },
            {
              "indexed": true,
              "internalType": "contract IRewarder",
              "name": "rewarder",
              "type": "address"
            }
          ],
          "name": "LogPoolAddition",
          "type": "event"
        },
        {
          "anonymous": false,
          "inputs": [
            {
              "indexed": true,
              "internalType": "uint256",
              "name": "pid",
              "type": "uint256"
            },
            {
              "indexed": false,
              "internalType": "uint256",
              "name": "allocPoint",
              "type": "uint256"
            },
            {
              "indexed": true,
              "internalType": "contract IRewarder",
              "name": "rewarder",
              "type": "address"
            },
            {
              "indexed": false,
              "internalType": "bool",
              "name": "overwrite",
              "type": "bool"
            }
          ],
          "name": "LogSetPool",
          "type": "event"
        },
        {
          "anonymous": false,
          "inputs": [
            {
              "indexed": true,
              "internalType": "uint256",
              "name": "pid",
              "type": "uint256"
            },
            {
              "indexed": false,
              "internalType": "uint64",
              "name": "lastRewardBlock",
              "type": "uint64"
            },
            {
              "indexed": false,
              "internalType": "uint256",
              "name": "lpSupply",
              "type": "uint256"
            },
            {
              "indexed": false,
              "internalType": "uint256",
              "name": "accJollofPerShare",
              "type": "uint256"
            }
          ],
          "name": "LogUpdatePool",
          "type": "event"
        },
        {
          "anonymous": false,
          "inputs": [
            {
              "indexed": true,
              "internalType": "address",
              "name": "previousOwner",
              "type": "address"
            },
            {
              "indexed": true,
              "internalType": "address",
              "name": "newOwner",
              "type": "address"
            }
          ],
          "name": "OwnershipTransferred",
          "type": "event"
        },
        {
          "anonymous": false,
          "inputs": [
            {
              "indexed": true,
              "internalType": "address",
              "name": "user",
              "type": "address"
            },
            {
              "indexed": true,
              "internalType": "uint256",
              "name": "pid",
              "type": "uint256"
            },
            {
              "indexed": false,
              "internalType": "uint256",
              "name": "amount",
              "type": "uint256"
            },
            {
              "indexed": true,
              "internalType": "address",
              "name": "to",
              "type": "address"
            }
          ],
          "name": "Withdraw",
          "type": "event"
        },
        {
          "inputs": [],
          "name": "JOLLOF",
          "outputs": [
            {
              "internalType": "contract IERC20",
              "name": "",
              "type": "address"
            }
          ],
          "stateMutability": "view",
          "type": "function"
        },
        {
          "inputs": [],
          "name": "MAMA_PUT",
          "outputs": [
            {
              "internalType": "contract IMamaPut",
              "name": "",
              "type": "address"
            }
          ],
          "stateMutability": "view",
          "type": "function"
        },
        {
          "inputs": [],
          "name": "MASTER_PID",
          "outputs": [
            {
              "internalType": "uint256",
              "name": "",
              "type": "uint256"
            }
          ],
          "stateMutability": "view",
          "type": "function"
        },
        {
          "inputs": [
            {
              "internalType": "uint256",
              "name": "allocPoint",
              "type": "uint256"
            },
            {
              "internalType": "contract IERC20",
              "name": "_lpToken",
              "type": "address"
            },
            {
              "internalType": "contract IRewarder",
              "name": "_rewarder",
              "type": "address"
            }
          ],
          "name": "add",
          "outputs": [],
          "stateMutability": "nonpayable",
          "type": "function"
        },
        {
          "inputs": [
            {
              "internalType": "bytes[]",
              "name": "calls",
              "type": "bytes[]"
            },
            {
              "internalType": "bool",
              "name": "revertOnFail",
              "type": "bool"
            }
          ],
          "name": "batch",
          "outputs": [
            {
              "internalType": "bool[]",
              "name": "successes",
              "type": "bool[]"
            },
            {
              "internalType": "bytes[]",
              "name": "results",
              "type": "bytes[]"
            }
          ],
          "stateMutability": "payable",
          "type": "function"
        },
        {
          "inputs": [],
          "name": "claimOwnership",
          "outputs": [],
          "stateMutability": "nonpayable",
          "type": "function"
        },
        {
          "inputs": [
            {
              "internalType": "uint256",
              "name": "pid",
              "type": "uint256"
            },
            {
              "internalType": "uint256",
              "name": "amount",
              "type": "uint256"
            },
            {
              "internalType": "address",
              "name": "to",
              "type": "address"
            }
          ],
          "name": "deposit",
          "outputs": [],
          "stateMutability": "nonpayable",
          "type": "function"
        },
        {
          "inputs": [
            {
              "internalType": "uint256",
              "name": "pid",
              "type": "uint256"
            },
            {
              "internalType": "address",
              "name": "to",
              "type": "address"
            }
          ],
          "name": "emergencyWithdraw",
          "outputs": [],
          "stateMutability": "nonpayable",
          "type": "function"
        },
        {
          "inputs": [
            {
              "internalType": "uint256",
              "name": "pid",
              "type": "uint256"
            },
            {
              "internalType": "address",
              "name": "to",
              "type": "address"
            }
          ],
          "name": "harvest",
          "outputs": [],
          "stateMutability": "nonpayable",
          "type": "function"
        },
        {
          "inputs": [],
          "name": "harvestFromMamaPut",
          "outputs": [],
          "stateMutability": "nonpayable",
          "type": "function"
        },
        {
          "inputs": [
            {
              "internalType": "contract IERC20",
              "name": "dummyToken",
              "type": "address"
            }
          ],
          "name": "init",
          "outputs": [],
          "stateMutability": "nonpayable",
          "type": "function"
        },
        {
          "inputs": [],
          "name": "jollofPerBlock",
          "outputs": [
            {
              "internalType": "uint256",
              "name": "amount",
              "type": "uint256"
            }
          ],
          "stateMutability": "view",
          "type": "function"
        },
        {
          "inputs": [
            {
              "internalType": "uint256",
              "name": "",
              "type": "uint256"
            }
          ],
          "name": "lpToken",
          "outputs": [
            {
              "internalType": "contract IERC20",
              "name": "",
              "type": "address"
            }
          ],
          "stateMutability": "view",
          "type": "function"
        },
        {
          "inputs": [
            {
              "internalType": "uint256[]",
              "name": "pids",
              "type": "uint256[]"
            }
          ],
          "name": "massUpdatePools",
          "outputs": [],
          "stateMutability": "nonpayable",
          "type": "function"
        },
        {
          "inputs": [
            {
              "internalType": "uint256",
              "name": "_pid",
              "type": "uint256"
            }
          ],
          "name": "migrate",
          "outputs": [],
          "stateMutability": "nonpayable",
          "type": "function"
        },
        {
          "inputs": [],
          "name": "migrator",
          "outputs": [
            {
              "internalType": "contract IMigratorChef",
              "name": "",
              "type": "address"
            }
          ],
          "stateMutability": "view",
          "type": "function"
        },
        {
          "inputs": [],
          "name": "owner",
          "outputs": [
            {
              "internalType": "address",
              "name": "",
              "type": "address"
            }
          ],
          "stateMutability": "view",
          "type": "function"
        },
        {
          "inputs": [
            {
              "internalType": "uint256",
              "name": "_pid",
              "type": "uint256"
            },
            {
              "internalType": "address",
              "name": "_user",
              "type": "address"
            }
          ],
          "name": "pendingJollof",
          "outputs": [
            {
              "internalType": "uint256",
              "name": "pending",
              "type": "uint256"
            }
          ],
          "stateMutability": "view",
          "type": "function"
        },
        {
          "inputs": [],
          "name": "pendingOwner",
          "outputs": [
            {
              "internalType": "address",
              "name": "",
              "type": "address"
            }
          ],
          "stateMutability": "view",
          "type": "function"
        },
        {
          "inputs": [
            {
              "internalType": "contract IERC20",
              "name": "token",
              "type": "address"
            },
            {
              "internalType": "address",
              "name": "from",
              "type": "address"
            },
            {
              "internalType": "address",
              "name": "to",
              "type": "address"
            },
            {
              "internalType": "uint256",
              "name": "amount",
              "type": "uint256"
            },
            {
              "internalType": "uint256",
              "name": "deadline",
              "type": "uint256"
            },
            {
              "internalType": "uint8",
              "name": "v",
              "type": "uint8"
            },
            {
              "internalType": "bytes32",
              "name": "r",
              "type": "bytes32"
            },
            {
              "internalType": "bytes32",
              "name": "s",
              "type": "bytes32"
            }
          ],
          "name": "permitToken",
          "outputs": [],
          "stateMutability": "nonpayable",
          "type": "function"
        },
        {
          "inputs": [
            {
              "internalType": "uint256",
              "name": "",
              "type": "uint256"
            }
          ],
          "name": "poolInfo",
          "outputs": [
            {
              "internalType": "uint128",
              "name": "accJollofPerShare",
              "type": "uint128"
            },
            {
              "internalType": "uint64",
              "name": "lastRewardBlock",
              "type": "uint64"
            },
            {
              "internalType": "uint64",
              "name": "allocPoint",
              "type": "uint64"
            }
          ],
          "stateMutability": "view",
          "type": "function"
        },
        {
          "inputs": [],
          "name": "poolLength",
          "outputs": [
            {
              "internalType": "uint256",
              "name": "pools",
              "type": "uint256"
            }
          ],
          "stateMutability": "view",
          "type": "function"
        },
        {
          "inputs": [
            {
              "internalType": "uint256",
              "name": "",
              "type": "uint256"
            }
          ],
          "name": "rewarder",
          "outputs": [
            {
              "internalType": "contract IRewarder",
              "name": "",
              "type": "address"
            }
          ],
          "stateMutability": "view",
          "type": "function"
        },
        {
          "inputs": [
            {
              "internalType": "uint256",
              "name": "_pid",
              "type": "uint256"
            },
            {
              "internalType": "uint256",
              "name": "_allocPoint",
              "type": "uint256"
            },
            {
              "internalType": "contract IRewarder",
              "name": "_rewarder",
              "type": "address"
            },
            {
              "internalType": "bool",
              "name": "overwrite",
              "type": "bool"
            }
          ],
          "name": "set",
          "outputs": [],
          "stateMutability": "nonpayable",
          "type": "function"
        },
        {
          "inputs": [
            {
              "internalType": "contract IMigratorChef",
              "name": "_migrator",
              "type": "address"
            }
          ],
          "name": "setMigrator",
          "outputs": [],
          "stateMutability": "nonpayable",
          "type": "function"
        },
        {
          "inputs": [],
          "name": "totalAllocPoint",
          "outputs": [
            {
              "internalType": "uint256",
              "name": "",
              "type": "uint256"
            }
          ],
          "stateMutability": "view",
          "type": "function"
        },
        {
          "inputs": [
            {
              "internalType": "address",
              "name": "newOwner",
              "type": "address"
            },
            {
              "internalType": "bool",
              "name": "direct",
              "type": "bool"
            },
            {
              "internalType": "bool",
              "name": "renounce",
              "type": "bool"
            }
          ],
          "name": "transferOwnership",
          "outputs": [],
          "stateMutability": "nonpayable",
          "type": "function"
        },
        {
          "inputs": [
            {
              "internalType": "uint256",
              "name": "pid",
              "type": "uint256"
            }
          ],
          "name": "updatePool",
          "outputs": [
            {
              "components": [
                {
                  "internalType": "uint128",
                  "name": "accJollofPerShare",
                  "type": "uint128"
                },
                {
                  "internalType": "uint64",
                  "name": "lastRewardBlock",
                  "type": "uint64"
                },
                {
                  "internalType": "uint64",
                  "name": "allocPoint",
                  "type": "uint64"
                }
              ],
              "internalType": "struct MamaPutV2.PoolInfo",
              "name": "pool",
              "type": "tuple"
            }
          ],
          "stateMutability": "nonpayable",
          "type": "function"
        },
        {
          "inputs": [
            {
              "internalType": "uint256",
              "name": "",
              "type": "uint256"
            },
            {
              "internalType": "address",
              "name": "",
              "type": "address"
            }
          ],
          "name": "userInfo",
          "outputs": [
            {
              "internalType": "uint256",
              "name": "amount",
              "type": "uint256"
            },
            {
              "internalType": "int256",
              "name": "rewardDebt",
              "type": "int256"
            }
          ],
          "stateMutability": "view",
          "type": "function"
        },
        {
          "inputs": [
            {
              "internalType": "uint256",
              "name": "pid",
              "type": "uint256"
            },
            {
              "internalType": "uint256",
              "name": "amount",
              "type": "uint256"
            },
            {
              "internalType": "address",
              "name": "to",
              "type": "address"
            }
          ],
          "name": "withdraw",
          "outputs": [],
          "stateMutability": "nonpayable",
          "type": "function"
        },
        {
          "inputs": [
            {
              "internalType": "uint256",
              "name": "pid",
              "type": "uint256"
            },
            {
              "internalType": "uint256",
              "name": "amount",
              "type": "uint256"
            },
            {
              "internalType": "address",
              "name": "to",
              "type": "address"
            }
          ],
          "name": "withdrawAndHarvest",
          "outputs": [],
          "stateMutability": "nonpayable",
          "type": "function"
        }
      ],
      "devdoc": {
        "kind": "dev",
        "methods": {
          "add(uint256,address,address)": {
            "params": {
              "_lpToken": "Address of the LP ERC-20 token.",
              "_rewarder": "Address of the rewarder delegate.",
              "allocPoint": "AP of the new pool."
            }
          },
          "constructor": {
            "params": {
              "_MAMA_PUT": "The JollofSwap MCV1 contract address.",
              "_MASTER_PID": "The pool ID of the dummy token on the base MCV1 contract.",
              "_jollof": "The JOLLOF token contract address."
            }
          },
          "deposit(uint256,uint256,address)": {
            "params": {
              "amount": "LP token amount to deposit.",
              "pid": "The index of the pool. See `poolInfo`.",
              "to": "The receiver of `amount` deposit benefit."
            }
          },
          "emergencyWithdraw(uint256,address)": {
            "params": {
              "pid": "The index of the pool. See `poolInfo`.",
              "to": "Receiver of the LP tokens."
            }
          },
          "harvest(uint256,address)": {
            "params": {
              "pid": "The index of the pool. See `poolInfo`.",
              "to": "Receiver of JOLLOF rewards."
            }
          },
          "init(address)": {
            "params": {
              "dummyToken": "The address of the ERC-20 token to deposit into MCV1."
            }
          },
          "massUpdatePools(uint256[])": {
            "params": {
              "pids": "Pool IDs of all to be updated. Make sure to update all active pools."
            }
          },
          "migrate(uint256)": {
            "params": {
              "_pid": "The index of the pool. See `poolInfo`."
            }
          },
          "pendingJollof(uint256,address)": {
            "params": {
              "_pid": "The index of the pool. See `poolInfo`.",
              "_user": "Address of user."
            },
            "returns": {
              "pending": "JOLLOF reward for a given user."
            }
          },
          "set(uint256,uint256,address,bool)": {
            "params": {
              "_allocPoint": "New AP of the pool.",
              "_pid": "The index of the pool. See `poolInfo`.",
              "_rewarder": "Address of the rewarder delegate.",
              "overwrite": "True if _rewarder should be `set`. Otherwise `_rewarder` is ignored."
            }
          },
          "setMigrator(address)": {
            "params": {
              "_migrator": "The contract address to set."
            }
          },
          "updatePool(uint256)": {
            "params": {
              "pid": "The index of the pool. See `poolInfo`."
            },
            "returns": {
              "pool": "Returns the pool that was updated."
            }
          },
          "withdraw(uint256,uint256,address)": {
            "params": {
              "amount": "LP token amount to withdraw.",
              "pid": "The index of the pool. See `poolInfo`.",
              "to": "Receiver of the LP tokens."
            }
          },
          "withdrawAndHarvest(uint256,uint256,address)": {
            "params": {
              "amount": "LP token amount to withdraw.",
              "pid": "The index of the pool. See `poolInfo`.",
              "to": "Receiver of the LP tokens and JOLLOF rewards."
            }
          }
        },
        "stateVariables": {
          "totalAllocPoint": {
            "details": "Total allocation points. Must be the sum of all allocation points in all pools."
          }
        },
        "version": 1
      },
      "evm": {
        "bytecode": {
          "linkReferences": {},
          "object": "60e06040523480156200001157600080fd5b50604051620031a6380380620031a6833981016040819052620000349162000097565b600080546001600160a01b0319163390811782556040519091907f8be0079c531659141344cd1fd0a4f28419497f9722a3daafe3b4186f6b6457e0908290a36001600160601b0319606093841b81166080529190921b1660a05260c052620000f7565b600080600060608486031215620000ac578283fd5b8351620000b981620000de565b6020850151909350620000cc81620000de565b80925050604084015190509250925092565b6001600160a01b0381168114620000f457600080fd5b50565b60805160601c60a05160601c60c05161304a6200015c60003980610bb7528061159552806118a95280611d1d52508061059652806109195280611e51525080610af65280610b8a52806117d2528061187c5280611cf05280612148525061304a6000f3fe6080604052600436106101d85760003560e01c806361621aaa1161010257806393f1a40b11610095578063d1abb90711610064578063d1abb90714610529578063d2423b5114610549578063db32da841461056a578063e30c39781461057f576101d8565b806393f1a40b146104a6578063ab7de098146104d4578063c0e795f3146104f4578063c346253d14610509576101d8565b806388bba42f116100d157806388bba42f1461043c5780638d4de7971461045c5780638da5cb5b146104715780638dbdbe6d14610486576101d8565b806361621aaa146103d257806378ed5d1f146103e75780637c516e94146104075780637cd07e4714610427576101d8565b806319ab453c1161017a5780634e71e0c8116101495780634e71e0c81461035057806351eb05a61461036557806356a3b6451461039257806357a5b58c146103b2576101d8565b806319ab453c146102d057806323cf3118146102f05780632f940c7014610310578063454b060814610330576101d8565b80630ad58d2f116101b65780630ad58d2f1461024c5780631526fe271461026c57806317caf6f11461029b57806318fccc76146102b0576101d8565b806303c02f45146101dd578063078dfbe714610208578063081e3eda1461022a575b600080fd5b3480156101e957600080fd5b506101f2610594565b6040516101ff91906129ca565b60405180910390f35b34801561021457600080fd5b506102286102233660046125dd565b6105b8565b005b34801561023657600080fd5b5061023f6106a7565b6040516101ff9190612ed8565b34801561025857600080fd5b506102286102673660046128fc565b6106ad565b34801561027857600080fd5b5061028c610287366004612867565b61083d565b6040516101ff93929190612eae565b3480156102a757600080fd5b5061023f61087f565b3480156102bc57600080fd5b506102286102cb366004612897565b610885565b3480156102dc57600080fd5b506102286102eb3660046126cb565b610a1f565b3480156102fc57600080fd5b5061022861030b3660046126cb565b610c40565b34801561031c57600080fd5b5061022861032b366004612897565b610c8c565b34801561033c57600080fd5b5061022861034b366004612867565b610dad565b34801561035c57600080fd5b50610228611059565b34801561037157600080fd5b50610385610380366004612867565b6110e6565b6040516101ff9190612e75565b34801561039e57600080fd5b5061023f6103ad366004612897565b61136d565b3480156103be57600080fd5b506102286103cd366004612670565b61155d565b3480156103de57600080fd5b5061023f611593565b3480156103f357600080fd5b506101f2610402366004612867565b6115b7565b34801561041357600080fd5b50610228610422366004612703565b6115de565b34801561043357600080fd5b506101f2611652565b34801561044857600080fd5b50610228610457366004612929565b611661565b34801561046857600080fd5b5061023f6117ce565b34801561047d57600080fd5b506101f2611942565b34801561049257600080fd5b506102286104a13660046128fc565b611951565b3480156104b257600080fd5b506104c66104c1366004612897565b611adc565b6040516101ff929190612f20565b3480156104e057600080fd5b506102286104ef3660046128c6565b611b00565b34801561050057600080fd5b50610228611cd9565b34801561051557600080fd5b506101f2610524366004612867565b611d76565b34801561053557600080fd5b506102286105443660046128fc565b611d83565b61055c610557366004612627565b611fb6565b6040516101ff929190612a5c565b34801561057657600080fd5b506101f2612146565b34801561058b57600080fd5b506101f261216a565b7f000000000000000000000000000000000000000000000000000000000000000081565b6000546001600160a01b031633146105eb5760405162461bcd60e51b81526004016105e290612d24565b60405180910390fd5b8115610686576001600160a01b0383161515806106055750805b6106215760405162461bcd60e51b81526004016105e290612c87565b600080546040516001600160a01b03808716939216917f8be0079c531659141344cd1fd0a4f28419497f9722a3daafe3b4186f6b6457e091a3600080546001600160a01b0385166001600160a01b0319918216179091556001805490911690556106a2565b600180546001600160a01b0319166001600160a01b0385161790555b505050565b60035490565b6106b5612575565b6106be846110e6565b600085815260066020908152604080832033845290915290208151919250906107109064e8d4a51000906106fc9087906001600160801b0316612179565b8161070357fe5b60018401549190046121b6565b600182015580546107219085612203565b815560058054600091908790811061073557fe5b6000918252602090912001546001600160a01b0316905080156107bb578154604051631f56fa8f60e01b81526001600160a01b03831691631f56fa8f91610788918a9133918a9160009190600401612ee1565b600060405180830381600087803b1580156107a257600080fd5b505af11580156107b6573d6000803e3d6000fd5b505050505b6107e98486600489815481106107cd57fe5b6000918252602090912001546001600160a01b03169190612226565b836001600160a01b031686336001600160a01b03167f8166bf25f8a2b7ed3c85049207da4358d16edbed977d23fa2ee6f0dde3ec21328860405161082d9190612ed8565b60405180910390a4505050505050565b6003818154811061084a57fe5b6000918252602090912001546001600160801b03811691506001600160401b03600160801b8204811691600160c01b90041683565b60075481565b61088d612575565b610896836110e6565b6000848152600660209081526040808320338452909152812082518154939450909264e8d4a51000916108d291906001600160801b0316612179565b816108d957fe5b04905060006108fd6108f88460010154846121b690919063ffffffff16565b612314565b6001840183905590508015610940576109406001600160a01b037f0000000000000000000000000000000000000000000000000000000000000000168683612226565b60006005878154811061094f57fe5b6000918252602090912001546001600160a01b0316905080156109d4578354604051631f56fa8f60e01b81526001600160a01b03831691631f56fa8f916109a1918b9133918c91899190600401612ee1565b600060405180830381600087803b1580156109bb57600080fd5b505af11580156109cf573d6000803e3d6000fd5b505050505b86336001600160a01b03167f71bab65ced2e5750775a0613be067df48ef06cf92a496ebf7663ae066092495484604051610a0e9190612ed8565b60405180910390a350505050505050565b6040516370a0823160e01b81526000906001600160a01b038316906370a0823190610a4e9033906004016129ca565b60206040518083038186803b158015610a6657600080fd5b505afa158015610a7a573d6000803e3d6000fd5b505050506040513d601f19601f82011682018060405250810190610a9e919061287f565b905080610abd5760405162461bcd60e51b81526004016105e290612b94565b610ad26001600160a01b03831633308461233a565b60405163095ea7b360e01b81526001600160a01b0383169063095ea7b390610b20907f0000000000000000000000000000000000000000000000000000000000000000908590600401612a43565b602060405180830381600087803b158015610b3a57600080fd5b505af1158015610b4e573d6000803e3d6000fd5b505050506040513d601f19601f82011682018060405250810190610b7291906126af565b50604051631c57762b60e31b81526001600160a01b037f0000000000000000000000000000000000000000000000000000000000000000169063e2bbb15890610be1907f0000000000000000000000000000000000000000000000000000000000000000908590600401612f20565b600060405180830381600087803b158015610bfb57600080fd5b505af1158015610c0f573d6000803e3d6000fd5b50506040517f98a9bd3b7a617581fc53b1e2992534e0e0cb5091c9d44aa1a7fc978f706caa83925060009150a15050565b6000546001600160a01b03163314610c6a5760405162461bcd60e51b81526004016105e290612d24565b600280546001600160a01b0319166001600160a01b0392909216919091179055565b60008281526006602090815260408083203384529091528120805482825560018201839055600580549293919286908110610cc357fe5b6000918252602090912001546001600160a01b031690508015610d4857604051631f56fa8f60e01b81526001600160a01b03821690631f56fa8f90610d15908890339089906000908190600401612ee1565b600060405180830381600087803b158015610d2f57600080fd5b505af1158015610d43573d6000803e3d6000fd5b505050505b610d5a8483600488815481106107cd57fe5b836001600160a01b031685336001600160a01b03167f2cac5e20e1541d836381527a43f651851e302817b71dc8e810284e69210c1c6b85604051610d9e9190612ed8565b60405180910390a45050505050565b6002546001600160a01b0316610dd55760405162461bcd60e51b81526004016105e290612bc9565b600060048281548110610de457fe5b60009182526020822001546040516370a0823160e01b81526001600160a01b03909116925082906370a0823190610e1f9030906004016129ca565b60206040518083038186803b158015610e3757600080fd5b505afa158015610e4b573d6000803e3d6000fd5b505050506040513d601f19601f82011682018060405250810190610e6f919061287f565b60025460405163095ea7b360e01b81529192506001600160a01b038085169263095ea7b392610ea49216908590600401612a43565b602060405180830381600087803b158015610ebe57600080fd5b505af1158015610ed2573d6000803e3d6000fd5b505050506040513d601f19601f82011682018060405250810190610ef691906126af565b5060025460405163ce5494bb60e01b81526000916001600160a01b03169063ce5494bb90610f289086906004016129ca565b602060405180830381600087803b158015610f4257600080fd5b505af1158015610f56573d6000803e3d6000fd5b505050506040513d601f19601f82011682018060405250810190610f7a91906126e7565b6040516370a0823160e01b81529091506001600160a01b038216906370a0823190610fa99030906004016129ca565b60206040518083038186803b158015610fc157600080fd5b505afa158015610fd5573d6000803e3d6000fd5b505050506040513d601f19601f82011682018060405250810190610ff9919061287f565b82146110175760405162461bcd60e51b81526004016105e290612c00565b806004858154811061102557fe5b9060005260206000200160006101000a8154816001600160a01b0302191690836001600160a01b0316021790555050505050565b6001546001600160a01b03163381146110845760405162461bcd60e51b81526004016105e290612d59565b600080546040516001600160a01b03808516939216917f8be0079c531659141344cd1fd0a4f28419497f9722a3daafe3b4186f6b6457e091a3600080546001600160a01b039092166001600160a01b0319928316179055600180549091169055565b6110ee612575565b600382815481106110fb57fe5b60009182526020918290206040805160608101825292909101546001600160801b03811683526001600160401b03600160801b82048116948401859052600160c01b909104169082015291504311156113685760006004838154811061115d57fe5b6000918252602090912001546040516370a0823160e01b81526001600160a01b03909116906370a08231906111969030906004016129ca565b60206040518083038186803b1580156111ae57600080fd5b505afa1580156111c2573d6000803e3d6000fd5b505050506040513d601f19601f820116820180604052508101906111e6919061287f565b9050801561128c57600061121083602001516001600160401b03164361220390919063ffffffff16565b9050600060075461124085604001516001600160401b031661123a6112336117ce565b8690612179565b90612179565b8161124757fe5b04905061127e61126d846112608464e8d4a51000612179565b8161126757fe5b0461242b565b85516001600160801b031690612454565b6001600160801b0316845250505b61129543612483565b6001600160401b0316602083015260038054839190859081106112b457fe5b6000918252602091829020835191018054848401516040958601516001600160801b03199092166001600160801b039094169390931767ffffffffffffffff60801b1916600160801b6001600160401b0394851602176001600160c01b0316600160c01b93909116929092029190911790558301518351915185927f0fc9545022a542541ad085d091fb09a2ab36fee366a4576ab63714ea907ad3539261135e9290918691612f2e565b60405180910390a2505b919050565b6000611377612575565b6003848154811061138457fe5b600091825260208083206040805160608101825291909301546001600160801b0380821683526001600160401b03600160801b8304811684860152600160c01b90920490911682850152888552600683528385206001600160a01b038916865290925291832082516004805494965091949216928890811061140257fe5b6000918252602090912001546040516370a0823160e01b81526001600160a01b03909116906370a082319061143b9030906004016129ca565b60206040518083038186803b15801561145357600080fd5b505afa158015611467573d6000803e3d6000fd5b505050506040513d601f19601f8201168201806040525081019061148b919061287f565b905083602001516001600160401b0316431180156114a857508015155b156115245760006114cf85602001516001600160401b03164361220390919063ffffffff16565b905060006007546114f287604001516001600160401b031661123a6112336117ce565b816114f957fe5b04905061151f8361150f8364e8d4a51000612179565b8161151657fe5b869190046124ac565b935050505b60018301548354611552916108f89164e8d4a51000906115449087612179565b8161154b57fe5b04906121b6565b979650505050505050565b8060005b8181101561158d5761158484848381811061157857fe5b905060200201356110e6565b50600101611561565b50505050565b7f000000000000000000000000000000000000000000000000000000000000000081565b600481815481106115c457fe5b6000918252602090912001546001600160a01b0316905081565b60405163d505accf60e01b81526001600160a01b0389169063d505accf90611616908a908a908a908a908a908a908a90600401612a02565b600060405180830381600087803b15801561163057600080fd5b505af1158015611644573d6000803e3d6000fd5b505050505050505050505050565b6002546001600160a01b031681565b6000546001600160a01b0316331461168b5760405162461bcd60e51b81526004016105e290612d24565b6116ca836116c46003878154811061169f57fe5b60009182526020909120015460075490600160c01b90046001600160401b0316612203565b906124ac565b6007556116d683612483565b600385815481106116e357fe5b9060005260206000200160000160186101000a8154816001600160401b0302191690836001600160401b03160217905550801561175757816005858154811061172857fe5b9060005260206000200160006101000a8154816001600160a01b0302191690836001600160a01b031602179055505b80611783576005848154811061176957fe5b6000918252602090912001546001600160a01b0316611785565b815b6001600160a01b0316847f95895a6ab1df54420d241b55243258a33e61b2194db66c1179ec521aae8e186585846040516117c0929190612f10565b60405180910390a350505050565b60007f00000000000000000000000000000000000000000000000000000000000000006001600160a01b03166317caf6f16040518163ffffffff1660e01b815260040160206040518083038186803b15801561182957600080fd5b505afa15801561183d573d6000803e3d6000fd5b505050506040513d601f19601f82011682018060405250810190611861919061287f565b604051631526fe2760e01b8152611935906001600160a01b037f00000000000000000000000000000000000000000000000000000000000000001690631526fe27906118d1907f000000000000000000000000000000000000000000000000000000000000000090600401612ed8565b60806040518083038186803b1580156118e957600080fd5b505afa1580156118fd573d6000803e3d6000fd5b505050506040513d601f19601f820116820180604052508101906119219190612815565b6020015168056bc75e2d6310000090612179565b8161193c57fe5b04905090565b6000546001600160a01b031681565b611959612575565b611962846110e6565b60008581526006602090815260408083206001600160a01b0387168452909152902080549192509061199490856124ac565b815581516119cb9064e8d4a51000906119b79087906001600160801b0316612179565b816119be57fe5b60018401549190046124cf565b81600101819055506000600586815481106119e257fe5b6000918252602090912001546001600160a01b031690508015611a68578154604051631f56fa8f60e01b81526001600160a01b03831691631f56fa8f91611a35918a918991829160009190600401612ee1565b600060405180830381600087803b158015611a4f57600080fd5b505af1158015611a63573d6000803e3d6000fd5b505050505b611a9833308760048a81548110611a7b57fe5b6000918252602090912001546001600160a01b031692919061233a565b836001600160a01b031686336001600160a01b03167f02d7e648dd130fc184d383e55bb126ac4c9c60e8f94bf05acdf557ba2d540b478860405161082d9190612ed8565b60066020908152600092835260408084209091529082529020805460019091015482565b6000546001600160a01b03163314611b2a5760405162461bcd60e51b81526004016105e290612d24565b6007544390611b3990856124ac565b6007556004805460018181019092557f8a35acfbc15ff81a39ae7d344fd709f28e8600b4aa8c65c6b64bfe7fe36bd19b0180546001600160a01b038087166001600160a01b03199283161790925560058054938401815560009081527f036b6384b5eca791c62761152d0c79bb0604c104a5fb6f4eb0703f3154bb3db0909301805492861692909116919091179055604080516060810190915290815260039060208101611be684612483565b6001600160401b03168152602001611bfd87612483565b6001600160401b039081169091528254600181810185556000948552602094859020845192018054958501516040909501518416600160c01b026001600160c01b0395909416600160801b0267ffffffffffffffff60801b196001600160801b039094166001600160801b0319909716969096179290921694909417929092161790556004546001600160a01b038085169290861691611c9c91612203565b7f81ee0f8c5c46e2cb41984886f77a84181724abb86c32a5f6de539b07509d45e587604051611ccb9190612ed8565b60405180910390a450505050565b604051631c57762b60e31b81526001600160a01b037f0000000000000000000000000000000000000000000000000000000000000000169063e2bbb15890611d48907f000000000000000000000000000000000000000000000000000000000000000090600090600401612f20565b600060405180830381600087803b158015611d6257600080fd5b505af115801561158d573d6000803e3d6000fd5b600581815481106115c457fe5b611d8b612575565b611d94846110e6565b6000858152600660209081526040808320338452909152812082518154939450909264e8d4a5100091611dd091906001600160801b0316612179565b81611dd757fe5b0490506000611df66108f88460010154846121b690919063ffffffff16565b9050611e3164e8d4a51000611e2186600001516001600160801b03168961217990919063ffffffff16565b81611e2857fe5b849190046121b6565b60018401558254611e429087612203565b8355611e786001600160a01b037f0000000000000000000000000000000000000000000000000000000000000000168683612226565b600060058881548110611e8757fe5b6000918252602090912001546001600160a01b031690508015611f0c578354604051631f56fa8f60e01b81526001600160a01b03831691631f56fa8f91611ed9918c9133918c91899190600401612ee1565b600060405180830381600087803b158015611ef357600080fd5b505af1158015611f07573d6000803e3d6000fd5b505050505b611f1e868860048b815481106107cd57fe5b856001600160a01b031688336001600160a01b03167f8166bf25f8a2b7ed3c85049207da4358d16edbed977d23fa2ee6f0dde3ec21328a604051611f629190612ed8565b60405180910390a487336001600160a01b03167f71bab65ced2e5750775a0613be067df48ef06cf92a496ebf7663ae066092495484604051611fa49190612ed8565b60405180910390a35050505050505050565b606080836001600160401b0381118015611fcf57600080fd5b50604051908082528060200260200182016040528015611ff9578160200160208202803683370190505b509150836001600160401b038111801561201257600080fd5b5060405190808252806020026020018201604052801561204657816020015b60608152602001906001900390816120315790505b50905060005b8481101561213d57600060603088888581811061206557fe5b90506020028101906120779190612f58565b60405161208592919061299e565b600060405180830381855af49150503d80600081146120c0576040519150601f19603f3d011682016040523d82523d6000602084013e6120c5565b606091505b509150915081806120d4575085155b6120dd82612515565b906120fb5760405162461bcd60e51b81526004016105e29190612af6565b508185848151811061210957fe5b6020026020010190151590811515815250508084848151811061212857fe5b6020908102919091010152505060010161204c565b50935093915050565b7f000000000000000000000000000000000000000000000000000000000000000081565b6001546001600160a01b031681565b60008115806121945750508082028282828161219157fe5b04145b6121b05760405162461bcd60e51b81526004016105e290612e3e565b92915050565b60008183038183128015906121cb5750838113155b806121e057506000831280156121e057508381135b6121fc5760405162461bcd60e51b81526004016105e290612dc5565b9392505050565b808203828111156121b05760405162461bcd60e51b81526004016105e290612b09565b60006060846001600160a01b031663a9059cbb858560405160240161224c929190612a43565b6040516020818303038152906040529060e01b6020820180516001600160e01b03838183161783525050505060405161228591906129ae565b6000604051808303816000865af19150503d80600081146122c2576040519150601f19603f3d011682016040523d82523d6000602084013e6122c7565b606091505b50915091508180156122f15750805115806122f15750808060200190518101906122f191906126af565b61230d5760405162461bcd60e51b81526004016105e290612b5d565b5050505050565b6000808212156123365760405162461bcd60e51b81526004016105e290612b38565b5090565b60006060856001600160a01b03166323b872dd868686604051602401612362939291906129de565b6040516020818303038152906040529060e01b6020820180516001600160e01b03838183161783525050505060405161239b91906129ae565b6000604051808303816000865af19150503d80600081146123d8576040519150601f19603f3d011682016040523d82523d6000602084013e6123dd565b606091505b509150915081801561240757508051158061240757508080602001905181019061240791906126af565b6124235760405162461bcd60e51b81526004016105e290612e09565b505050505050565b60006001600160801b038211156123365760405162461bcd60e51b81526004016105e290612cb6565b8181016001600160801b0380831690821610156121b05760405162461bcd60e51b81526004016105e290612ced565b60006001600160401b038211156123365760405162461bcd60e51b81526004016105e290612d8e565b818101818110156121b05760405162461bcd60e51b81526004016105e290612ced565b60008282018183128015906124e45750838112155b806124f957506000831280156124f957508381125b6121fc5760405162461bcd60e51b81526004016105e290612c46565b606060448251101561255b575060408051808201909152601d81527f5472616e73616374696f6e2072657665727465642073696c656e746c790000006020820152611368565b600482019150818060200190518101906121b0919061278a565b604080516060810182526000808252602082018190529181019190915290565b60008083601f8401126125a6578182fd5b5081356001600160401b038111156125bc578182fd5b60208301915083602080830285010111156125d657600080fd5b9250929050565b6000806000606084860312156125f1578283fd5b83356125fc81612fee565b9250602084013561260c81613006565b9150604084013561261c81613006565b809150509250925092565b60008060006040848603121561263b578283fd5b83356001600160401b03811115612650578384fd5b61265c86828701612595565b909450925050602084013561261c81613006565b60008060208385031215612682578182fd5b82356001600160401b03811115612697578283fd5b6126a385828601612595565b90969095509350505050565b6000602082840312156126c0578081fd5b81516121fc81613006565b6000602082840312156126dc578081fd5b81356121fc81612fee565b6000602082840312156126f8578081fd5b81516121fc81612fee565b600080600080600080600080610100898b03121561271f578384fd5b883561272a81612fee565b9750602089013561273a81612fee565b9650604089013561274a81612fee565b9550606089013594506080890135935060a089013560ff8116811461276d578384fd5b979a969950949793969295929450505060c08201359160e0013590565b60006020828403121561279b578081fd5b81516001600160401b03808211156127b1578283fd5b818401915084601f8301126127c4578283fd5b8151818111156127d2578384fd5b6127e5601f8201601f1916602001612f9c565b91508082528560208285010111156127fb578384fd5b61280c816020840160208601612fc2565b50949350505050565b600060808284031215612826578081fd5b6128306080612f9c565b825161283b81612fee565b808252506020830151602082015260408301516040820152606083015160608201528091505092915050565b600060208284031215612878578081fd5b5035919050565b600060208284031215612890578081fd5b5051919050565b600080604083850312156128a9578182fd5b8235915060208301356128bb81612fee565b809150509250929050565b6000806000606084860312156128da578081fd5b8335925060208401356128ec81612fee565b9150604084013561261c81612fee565b600080600060608486031215612910578081fd5b8335925060208401359150604084013561261c81612fee565b6000806000806080858703121561293e578182fd5b8435935060208501359250604085013561295781612fee565b9150606085013561296781613006565b939692955090935050565b6000815180845261298a816020860160208601612fc2565b601f01601f19169290920160200192915050565b6000828483379101908152919050565b600082516129c0818460208701612fc2565b9190910192915050565b6001600160a01b0391909116815260200190565b6001600160a01b039384168152919092166020820152604081019190915260600190565b6001600160a01b0397881681529590961660208601526040850193909352606084019190915260ff16608083015260a082015260c081019190915260e00190565b6001600160a01b03929092168252602082015260400190565b604080825283519082018190526000906020906060840190828701845b82811015612a97578151151584529284019290840190600101612a79565b50505083810382850152808551612aae8184612ed8565b91508192508381028201848801865b83811015612ae7578583038552612ad5838351612972565b94870194925090860190600101612abd565b50909998505050505050505050565b6000602082526121fc6020830184612972565b602080825260159082015274426f72696e674d6174683a20556e646572666c6f7760581b604082015260600190565b6020808252600b908201526a0496e7465676572203c20360ac1b604082015260600190565b6020808252601c908201527f426f72696e6745524332303a205472616e73666572206661696c656400000000604082015260600190565b6020808252818101527f4d616d6150757456323a2042616c616e6365206d757374206578636565642030604082015260600190565b6020808252601a908201527f4d616d6150757456323a206e6f206d69677261746f7220736574000000000000604082015260600190565b60208082526026908201527f4d616d6150757456323a206d696772617465642062616c616e6365206d757374604082015265040dac2e8c6d60d31b606082015260800190565b60208082526021908201527f5369676e6564536166654d6174683a206164646974696f6e206f766572666c6f6040820152607760f81b606082015260800190565b6020808252601590820152744f776e61626c653a207a65726f206164647265737360581b604082015260600190565b6020808252601c908201527f426f72696e674d6174683a2075696e74313238204f766572666c6f7700000000604082015260600190565b60208082526018908201527f426f72696e674d6174683a20416464204f766572666c6f770000000000000000604082015260600190565b6020808252818101527f4f776e61626c653a2063616c6c6572206973206e6f7420746865206f776e6572604082015260600190565b6020808252818101527f4f776e61626c653a2063616c6c657220213d2070656e64696e67206f776e6572604082015260600190565b6020808252601b908201527f426f72696e674d6174683a2075696e743634204f766572666c6f770000000000604082015260600190565b60208082526024908201527f5369676e6564536166654d6174683a207375627472616374696f6e206f766572604082015263666c6f7760e01b606082015260800190565b6020808252818101527f426f72696e6745524332303a205472616e7366657246726f6d206661696c6564604082015260600190565b60208082526018908201527f426f72696e674d6174683a204d756c204f766572666c6f770000000000000000604082015260600190565b81516001600160801b031681526020808301516001600160401b0390811691830191909152604092830151169181019190915260600190565b6001600160801b039390931683526001600160401b03918216602084015216604082015260600190565b90815260200190565b9485526001600160a01b0393841660208601529190921660408401526060830191909152608082015260a00190565b9182521515602082015260400190565b918252602082015260400190565b6001600160401b0393909316835260208301919091526001600160801b0316604082015260600190565b6000808335601e19843603018112612f6e578283fd5b8301803591506001600160401b03821115612f87578283fd5b6020019150368190038213156125d657600080fd5b6040518181016001600160401b0381118282101715612fba57600080fd5b604052919050565b60005b83811015612fdd578181015183820152602001612fc5565b8381111561158d5750506000910152565b6001600160a01b038116811461300357600080fd5b50565b801515811461300357600080fdfea26469706673582212203331c73dd9c22a328abea8c3232cf5f76ff0b91adcc4c4298c1fe3d019d52d1864736f6c634300060c0033",
          "opcodes": "PUSH1 0xE0 PUSH1 0x40 MSTORE CALLVALUE DUP1 ISZERO PUSH3 0x11 JUMPI PUSH1 0x0 DUP1 REVERT JUMPDEST POP PUSH1 0x40 MLOAD PUSH3 0x31A6 CODESIZE SUB DUP1 PUSH3 0x31A6 DUP4 CODECOPY DUP2 ADD PUSH1 0x40 DUP2 SWAP1 MSTORE PUSH3 0x34 SWAP2 PUSH3 0x97 JUMP JUMPDEST PUSH1 0x0 DUP1 SLOAD PUSH1 0x1 PUSH1 0x1 PUSH1 0xA0 SHL SUB NOT AND CALLER SWAP1 DUP2 OR DUP3 SSTORE PUSH1 0x40 MLOAD SWAP1 SWAP2 SWAP1 PUSH32 0x8BE0079C531659141344CD1FD0A4F28419497F9722A3DAAFE3B4186F6B6457E0 SWAP1 DUP3 SWAP1 LOG3 PUSH1 0x1 PUSH1 0x1 PUSH1 0x60 SHL SUB NOT PUSH1 0x60 SWAP4 DUP5 SHL DUP2 AND PUSH1 0x80 MSTORE SWAP2 SWAP1 SWAP3 SHL AND PUSH1 0xA0 MSTORE PUSH1 0xC0 MSTORE PUSH3 0xF7 JUMP JUMPDEST PUSH1 0x0 DUP1 PUSH1 0x0 PUSH1 0x60 DUP5 DUP7 SUB SLT ISZERO PUSH3 0xAC JUMPI DUP3 DUP4 REVERT JUMPDEST DUP4 MLOAD PUSH3 0xB9 DUP2 PUSH3 0xDE JUMP JUMPDEST PUSH1 0x20 DUP6 ADD MLOAD SWAP1 SWAP4 POP PUSH3 0xCC DUP2 PUSH3 0xDE JUMP JUMPDEST DUP1 SWAP3 POP POP PUSH1 0x40 DUP5 ADD MLOAD SWAP1 POP SWAP3 POP SWAP3 POP SWAP3 JUMP JUMPDEST PUSH1 0x1 PUSH1 0x1 PUSH1 0xA0 SHL SUB DUP2 AND DUP2 EQ PUSH3 0xF4 JUMPI PUSH1 0x0 DUP1 REVERT JUMPDEST POP JUMP JUMPDEST PUSH1 0x80 MLOAD PUSH1 0x60 SHR PUSH1 0xA0 MLOAD PUSH1 0x60 SHR PUSH1 0xC0 MLOAD PUSH2 0x304A PUSH3 0x15C PUSH1 0x0 CODECOPY DUP1 PUSH2 0xBB7 MSTORE DUP1 PUSH2 0x1595 MSTORE DUP1 PUSH2 0x18A9 MSTORE DUP1 PUSH2 0x1D1D MSTORE POP DUP1 PUSH2 0x596 MSTORE DUP1 PUSH2 0x919 MSTORE DUP1 PUSH2 0x1E51 MSTORE POP DUP1 PUSH2 0xAF6 MSTORE DUP1 PUSH2 0xB8A MSTORE DUP1 PUSH2 0x17D2 MSTORE DUP1 PUSH2 0x187C MSTORE DUP1 PUSH2 0x1CF0 MSTORE DUP1 PUSH2 0x2148 MSTORE POP PUSH2 0x304A PUSH1 0x0 RETURN INVALID PUSH1 0x80 PUSH1 0x40 MSTORE PUSH1 0x4 CALLDATASIZE LT PUSH2 0x1D8 JUMPI PUSH1 0x0 CALLDATALOAD PUSH1 0xE0 SHR DUP1 PUSH4 0x61621AAA GT PUSH2 0x102 JUMPI DUP1 PUSH4 0x93F1A40B GT PUSH2 0x95 JUMPI DUP1 PUSH4 0xD1ABB907 GT PUSH2 0x64 JUMPI DUP1 PUSH4 0xD1ABB907 EQ PUSH2 0x529 JUMPI DUP1 PUSH4 0xD2423B51 EQ PUSH2 0x549 JUMPI DUP1 PUSH4 0xDB32DA84 EQ PUSH2 0x56A JUMPI DUP1 PUSH4 0xE30C3978 EQ PUSH2 0x57F JUMPI PUSH2 0x1D8 JUMP JUMPDEST DUP1 PUSH4 0x93F1A40B EQ PUSH2 0x4A6 JUMPI DUP1 PUSH4 0xAB7DE098 EQ PUSH2 0x4D4 JUMPI DUP1 PUSH4 0xC0E795F3 EQ PUSH2 0x4F4 JUMPI DUP1 PUSH4 0xC346253D EQ PUSH2 0x509 JUMPI PUSH2 0x1D8 JUMP JUMPDEST DUP1 PUSH4 0x88BBA42F GT PUSH2 0xD1 JUMPI DUP1 PUSH4 0x88BBA42F EQ PUSH2 0x43C JUMPI DUP1 PUSH4 0x8D4DE797 EQ PUSH2 0x45C JUMPI DUP1 PUSH4 0x8DA5CB5B EQ PUSH2 0x471 JUMPI DUP1 PUSH4 0x8DBDBE6D EQ PUSH2 0x486 JUMPI PUSH2 0x1D8 JUMP JUMPDEST DUP1 PUSH4 0x61621AAA EQ PUSH2 0x3D2 JUMPI DUP1 PUSH4 0x78ED5D1F EQ PUSH2 0x3E7 JUMPI DUP1 PUSH4 0x7C516E94 EQ PUSH2 0x407 JUMPI DUP1 PUSH4 0x7CD07E47 EQ PUSH2 0x427 JUMPI PUSH2 0x1D8 JUMP JUMPDEST DUP1 PUSH4 0x19AB453C GT PUSH2 0x17A JUMPI DUP1 PUSH4 0x4E71E0C8 GT PUSH2 0x149 JUMPI DUP1 PUSH4 0x4E71E0C8 EQ PUSH2 0x350 JUMPI DUP1 PUSH4 0x51EB05A6 EQ PUSH2 0x365 JUMPI DUP1 PUSH4 0x56A3B645 EQ PUSH2 0x392 JUMPI DUP1 PUSH4 0x57A5B58C EQ PUSH2 0x3B2 JUMPI PUSH2 0x1D8 JUMP JUMPDEST DUP1 PUSH4 0x19AB453C EQ PUSH2 0x2D0 JUMPI DUP1 PUSH4 0x23CF3118 EQ PUSH2 0x2F0 JUMPI DUP1 PUSH4 0x2F940C70 EQ PUSH2 0x310 JUMPI DUP1 PUSH4 0x454B0608 EQ PUSH2 0x330 JUMPI PUSH2 0x1D8 JUMP JUMPDEST DUP1 PUSH4 0xAD58D2F GT PUSH2 0x1B6 JUMPI DUP1 PUSH4 0xAD58D2F EQ PUSH2 0x24C JUMPI DUP1 PUSH4 0x1526FE27 EQ PUSH2 0x26C JUMPI DUP1 PUSH4 0x17CAF6F1 EQ PUSH2 0x29B JUMPI DUP1 PUSH4 0x18FCCC76 EQ PUSH2 0x2B0 JUMPI PUSH2 0x1D8 JUMP JUMPDEST DUP1 PUSH4 0x3C02F45 EQ PUSH2 0x1DD JUMPI DUP1 PUSH4 0x78DFBE7 EQ PUSH2 0x208 JUMPI DUP1 PUSH4 0x81E3EDA EQ PUSH2 0x22A JUMPI JUMPDEST PUSH1 0x0 DUP1 REVERT JUMPDEST CALLVALUE DUP1 ISZERO PUSH2 0x1E9 JUMPI PUSH1 0x0 DUP1 REVERT JUMPDEST POP PUSH2 0x1F2 PUSH2 0x594 JUMP JUMPDEST PUSH1 0x40 MLOAD PUSH2 0x1FF SWAP2 SWAP1 PUSH2 0x29CA JUMP JUMPDEST PUSH1 0x40 MLOAD DUP1 SWAP2 SUB SWAP1 RETURN JUMPDEST CALLVALUE DUP1 ISZERO PUSH2 0x214 JUMPI PUSH1 0x0 DUP1 REVERT JUMPDEST POP PUSH2 0x228 PUSH2 0x223 CALLDATASIZE PUSH1 0x4 PUSH2 0x25DD JUMP JUMPDEST PUSH2 0x5B8 JUMP JUMPDEST STOP JUMPDEST CALLVALUE DUP1 ISZERO PUSH2 0x236 JUMPI PUSH1 0x0 DUP1 REVERT JUMPDEST POP PUSH2 0x23F PUSH2 0x6A7 JUMP JUMPDEST PUSH1 0x40 MLOAD PUSH2 0x1FF SWAP2 SWAP1 PUSH2 0x2ED8 JUMP JUMPDEST CALLVALUE DUP1 ISZERO PUSH2 0x258 JUMPI PUSH1 0x0 DUP1 REVERT JUMPDEST POP PUSH2 0x228 PUSH2 0x267 CALLDATASIZE PUSH1 0x4 PUSH2 0x28FC JUMP JUMPDEST PUSH2 0x6AD JUMP JUMPDEST CALLVALUE DUP1 ISZERO PUSH2 0x278 JUMPI PUSH1 0x0 DUP1 REVERT JUMPDEST POP PUSH2 0x28C PUSH2 0x287 CALLDATASIZE PUSH1 0x4 PUSH2 0x2867 JUMP JUMPDEST PUSH2 0x83D JUMP JUMPDEST PUSH1 0x40 MLOAD PUSH2 0x1FF SWAP4 SWAP3 SWAP2 SWAP1 PUSH2 0x2EAE JUMP JUMPDEST CALLVALUE DUP1 ISZERO PUSH2 0x2A7 JUMPI PUSH1 0x0 DUP1 REVERT JUMPDEST POP PUSH2 0x23F PUSH2 0x87F JUMP JUMPDEST CALLVALUE DUP1 ISZERO PUSH2 0x2BC JUMPI PUSH1 0x0 DUP1 REVERT JUMPDEST POP PUSH2 0x228 PUSH2 0x2CB CALLDATASIZE PUSH1 0x4 PUSH2 0x2897 JUMP JUMPDEST PUSH2 0x885 JUMP JUMPDEST CALLVALUE DUP1 ISZERO PUSH2 0x2DC JUMPI PUSH1 0x0 DUP1 REVERT JUMPDEST POP PUSH2 0x228 PUSH2 0x2EB CALLDATASIZE PUSH1 0x4 PUSH2 0x26CB JUMP JUMPDEST PUSH2 0xA1F JUMP JUMPDEST CALLVALUE DUP1 ISZERO PUSH2 0x2FC JUMPI PUSH1 0x0 DUP1 REVERT JUMPDEST POP PUSH2 0x228 PUSH2 0x30B CALLDATASIZE PUSH1 0x4 PUSH2 0x26CB JUMP JUMPDEST PUSH2 0xC40 JUMP JUMPDEST CALLVALUE DUP1 ISZERO PUSH2 0x31C JUMPI PUSH1 0x0 DUP1 REVERT JUMPDEST POP PUSH2 0x228 PUSH2 0x32B CALLDATASIZE PUSH1 0x4 PUSH2 0x2897 JUMP JUMPDEST PUSH2 0xC8C JUMP JUMPDEST CALLVALUE DUP1 ISZERO PUSH2 0x33C JUMPI PUSH1 0x0 DUP1 REVERT JUMPDEST POP PUSH2 0x228 PUSH2 0x34B CALLDATASIZE PUSH1 0x4 PUSH2 0x2867 JUMP JUMPDEST PUSH2 0xDAD JUMP JUMPDEST CALLVALUE DUP1 ISZERO PUSH2 0x35C JUMPI PUSH1 0x0 DUP1 REVERT JUMPDEST POP PUSH2 0x228 PUSH2 0x1059 JUMP JUMPDEST CALLVALUE DUP1 ISZERO PUSH2 0x371 JUMPI PUSH1 0x0 DUP1 REVERT JUMPDEST POP PUSH2 0x385 PUSH2 0x380 CALLDATASIZE PUSH1 0x4 PUSH2 0x2867 JUMP JUMPDEST PUSH2 0x10E6 JUMP JUMPDEST PUSH1 0x40 MLOAD PUSH2 0x1FF SWAP2 SWAP1 PUSH2 0x2E75 JUMP JUMPDEST CALLVALUE DUP1 ISZERO PUSH2 0x39E JUMPI PUSH1 0x0 DUP1 REVERT JUMPDEST POP PUSH2 0x23F PUSH2 0x3AD CALLDATASIZE PUSH1 0x4 PUSH2 0x2897 JUMP JUMPDEST PUSH2 0x136D JUMP JUMPDEST CALLVALUE DUP1 ISZERO PUSH2 0x3BE JUMPI PUSH1 0x0 DUP1 REVERT JUMPDEST POP PUSH2 0x228 PUSH2 0x3CD CALLDATASIZE PUSH1 0x4 PUSH2 0x2670 JUMP JUMPDEST PUSH2 0x155D JUMP JUMPDEST CALLVALUE DUP1 ISZERO PUSH2 0x3DE JUMPI PUSH1 0x0 DUP1 REVERT JUMPDEST POP PUSH2 0x23F PUSH2 0x1593 JUMP JUMPDEST CALLVALUE DUP1 ISZERO PUSH2 0x3F3 JUMPI PUSH1 0x0 DUP1 REVERT JUMPDEST POP PUSH2 0x1F2 PUSH2 0x402 CALLDATASIZE PUSH1 0x4 PUSH2 0x2867 JUMP JUMPDEST PUSH2 0x15B7 JUMP JUMPDEST CALLVALUE DUP1 ISZERO PUSH2 0x413 JUMPI PUSH1 0x0 DUP1 REVERT JUMPDEST POP PUSH2 0x228 PUSH2 0x422 CALLDATASIZE PUSH1 0x4 PUSH2 0x2703 JUMP JUMPDEST PUSH2 0x15DE JUMP JUMPDEST CALLVALUE DUP1 ISZERO PUSH2 0x433 JUMPI PUSH1 0x0 DUP1 REVERT JUMPDEST POP PUSH2 0x1F2 PUSH2 0x1652 JUMP JUMPDEST CALLVALUE DUP1 ISZERO PUSH2 0x448 JUMPI PUSH1 0x0 DUP1 REVERT JUMPDEST POP PUSH2 0x228 PUSH2 0x457 CALLDATASIZE PUSH1 0x4 PUSH2 0x2929 JUMP JUMPDEST PUSH2 0x1661 JUMP JUMPDEST CALLVALUE DUP1 ISZERO PUSH2 0x468 JUMPI PUSH1 0x0 DUP1 REVERT JUMPDEST POP PUSH2 0x23F PUSH2 0x17CE JUMP JUMPDEST CALLVALUE DUP1 ISZERO PUSH2 0x47D JUMPI PUSH1 0x0 DUP1 REVERT JUMPDEST POP PUSH2 0x1F2 PUSH2 0x1942 JUMP JUMPDEST CALLVALUE DUP1 ISZERO PUSH2 0x492 JUMPI PUSH1 0x0 DUP1 REVERT JUMPDEST POP PUSH2 0x228 PUSH2 0x4A1 CALLDATASIZE PUSH1 0x4 PUSH2 0x28FC JUMP JUMPDEST PUSH2 0x1951 JUMP JUMPDEST CALLVALUE DUP1 ISZERO PUSH2 0x4B2 JUMPI PUSH1 0x0 DUP1 REVERT JUMPDEST POP PUSH2 0x4C6 PUSH2 0x4C1 CALLDATASIZE PUSH1 0x4 PUSH2 0x2897 JUMP JUMPDEST PUSH2 0x1ADC JUMP JUMPDEST PUSH1 0x40 MLOAD PUSH2 0x1FF SWAP3 SWAP2 SWAP1 PUSH2 0x2F20 JUMP JUMPDEST CALLVALUE DUP1 ISZERO PUSH2 0x4E0 JUMPI PUSH1 0x0 DUP1 REVERT JUMPDEST POP PUSH2 0x228 PUSH2 0x4EF CALLDATASIZE PUSH1 0x4 PUSH2 0x28C6 JUMP JUMPDEST PUSH2 0x1B00 JUMP JUMPDEST CALLVALUE DUP1 ISZERO PUSH2 0x500 JUMPI PUSH1 0x0 DUP1 REVERT JUMPDEST POP PUSH2 0x228 PUSH2 0x1CD9 JUMP JUMPDEST CALLVALUE DUP1 ISZERO PUSH2 0x515 JUMPI PUSH1 0x0 DUP1 REVERT JUMPDEST POP PUSH2 0x1F2 PUSH2 0x524 CALLDATASIZE PUSH1 0x4 PUSH2 0x2867 JUMP JUMPDEST PUSH2 0x1D76 JUMP JUMPDEST CALLVALUE DUP1 ISZERO PUSH2 0x535 JUMPI PUSH1 0x0 DUP1 REVERT JUMPDEST POP PUSH2 0x228 PUSH2 0x544 CALLDATASIZE PUSH1 0x4 PUSH2 0x28FC JUMP JUMPDEST PUSH2 0x1D83 JUMP JUMPDEST PUSH2 0x55C PUSH2 0x557 CALLDATASIZE PUSH1 0x4 PUSH2 0x2627 JUMP JUMPDEST PUSH2 0x1FB6 JUMP JUMPDEST PUSH1 0x40 MLOAD PUSH2 0x1FF SWAP3 SWAP2 SWAP1 PUSH2 0x2A5C JUMP JUMPDEST CALLVALUE DUP1 ISZERO PUSH2 0x576 JUMPI PUSH1 0x0 DUP1 REVERT JUMPDEST POP PUSH2 0x1F2 PUSH2 0x2146 JUMP JUMPDEST CALLVALUE DUP1 ISZERO PUSH2 0x58B JUMPI PUSH1 0x0 DUP1 REVERT JUMPDEST POP PUSH2 0x1F2 PUSH2 0x216A JUMP JUMPDEST PUSH32 0x0 DUP2 JUMP JUMPDEST PUSH1 0x0 SLOAD PUSH1 0x1 PUSH1 0x1 PUSH1 0xA0 SHL SUB AND CALLER EQ PUSH2 0x5EB JUMPI PUSH1 0x40 MLOAD PUSH3 0x461BCD PUSH1 0xE5 SHL DUP2 MSTORE PUSH1 0x4 ADD PUSH2 0x5E2 SWAP1 PUSH2 0x2D24 JUMP JUMPDEST PUSH1 0x40 MLOAD DUP1 SWAP2 SUB SWAP1 REVERT JUMPDEST DUP2 ISZERO PUSH2 0x686 JUMPI PUSH1 0x1 PUSH1 0x1 PUSH1 0xA0 SHL SUB DUP4 AND ISZERO ISZERO DUP1 PUSH2 0x605 JUMPI POP DUP1 JUMPDEST PUSH2 0x621 JUMPI PUSH1 0x40 MLOAD PUSH3 0x461BCD PUSH1 0xE5 SHL DUP2 MSTORE PUSH1 0x4 ADD PUSH2 0x5E2 SWAP1 PUSH2 0x2C87 JUMP JUMPDEST PUSH1 0x0 DUP1 SLOAD PUSH1 0x40 MLOAD PUSH1 0x1 PUSH1 0x1 PUSH1 0xA0 SHL SUB DUP1 DUP8 AND SWAP4 SWAP3 AND SWAP2 PUSH32 0x8BE0079C531659141344CD1FD0A4F28419497F9722A3DAAFE3B4186F6B6457E0 SWAP2 LOG3 PUSH1 0x0 DUP1 SLOAD PUSH1 0x1 PUSH1 0x1 PUSH1 0xA0 SHL SUB DUP6 AND PUSH1 0x1 PUSH1 0x1 PUSH1 0xA0 SHL SUB NOT SWAP2 DUP3 AND OR SWAP1 SWAP2 SSTORE PUSH1 0x1 DUP1 SLOAD SWAP1 SWAP2 AND SWAP1 SSTORE PUSH2 0x6A2 JUMP JUMPDEST PUSH1 0x1 DUP1 SLOAD PUSH1 0x1 PUSH1 0x1 PUSH1 0xA0 SHL SUB NOT AND PUSH1 0x1 PUSH1 0x1 PUSH1 0xA0 SHL SUB DUP6 AND OR SWAP1 SSTORE JUMPDEST POP POP POP JUMP JUMPDEST PUSH1 0x3 SLOAD SWAP1 JUMP JUMPDEST PUSH2 0x6B5 PUSH2 0x2575 JUMP JUMPDEST PUSH2 0x6BE DUP5 PUSH2 0x10E6 JUMP JUMPDEST PUSH1 0x0 DUP6 DUP2 MSTORE PUSH1 0x6 PUSH1 0x20 SWAP1 DUP2 MSTORE PUSH1 0x40 DUP1 DUP4 KECCAK256 CALLER DUP5 MSTORE SWAP1 SWAP2 MSTORE SWAP1 KECCAK256 DUP2 MLOAD SWAP2 SWAP3 POP SWAP1 PUSH2 0x710 SWAP1 PUSH5 0xE8D4A51000 SWAP1 PUSH2 0x6FC SWAP1 DUP8 SWAP1 PUSH1 0x1 PUSH1 0x1 PUSH1 0x80 SHL SUB AND PUSH2 0x2179 JUMP JUMPDEST DUP2 PUSH2 0x703 JUMPI INVALID JUMPDEST PUSH1 0x1 DUP5 ADD SLOAD SWAP2 SWAP1 DIV PUSH2 0x21B6 JUMP JUMPDEST PUSH1 0x1 DUP3 ADD SSTORE DUP1 SLOAD PUSH2 0x721 SWAP1 DUP6 PUSH2 0x2203 JUMP JUMPDEST DUP2 SSTORE PUSH1 0x5 DUP1 SLOAD PUSH1 0x0 SWAP2 SWAP1 DUP8 SWAP1 DUP2 LT PUSH2 0x735 JUMPI INVALID JUMPDEST PUSH1 0x0 SWAP2 DUP3 MSTORE PUSH1 0x20 SWAP1 SWAP2 KECCAK256 ADD SLOAD PUSH1 0x1 PUSH1 0x1 PUSH1 0xA0 SHL SUB AND SWAP1 POP DUP1 ISZERO PUSH2 0x7BB JUMPI DUP2 SLOAD PUSH1 0x40 MLOAD PUSH4 0x1F56FA8F PUSH1 0xE0 SHL DUP2 MSTORE PUSH1 0x1 PUSH1 0x1 PUSH1 0xA0 SHL SUB DUP4 AND SWAP2 PUSH4 0x1F56FA8F SWAP2 PUSH2 0x788 SWAP2 DUP11 SWAP2 CALLER SWAP2 DUP11 SWAP2 PUSH1 0x0 SWAP2 SWAP1 PUSH1 0x4 ADD PUSH2 0x2EE1 JUMP JUMPDEST PUSH1 0x0 PUSH1 0x40 MLOAD DUP1 DUP4 SUB DUP2 PUSH1 0x0 DUP8 DUP1 EXTCODESIZE ISZERO DUP1 ISZERO PUSH2 0x7A2 JUMPI PUSH1 0x0 DUP1 REVERT JUMPDEST POP GAS CALL ISZERO DUP1 ISZERO PUSH2 0x7B6 JUMPI RETURNDATASIZE PUSH1 0x0 DUP1 RETURNDATACOPY RETURNDATASIZE PUSH1 0x0 REVERT JUMPDEST POP POP POP POP JUMPDEST PUSH2 0x7E9 DUP5 DUP7 PUSH1 0x4 DUP10 DUP2 SLOAD DUP2 LT PUSH2 0x7CD JUMPI INVALID JUMPDEST PUSH1 0x0 SWAP2 DUP3 MSTORE PUSH1 0x20 SWAP1 SWAP2 KECCAK256 ADD SLOAD PUSH1 0x1 PUSH1 0x1 PUSH1 0xA0 SHL SUB AND SWAP2 SWAP1 PUSH2 0x2226 JUMP JUMPDEST DUP4 PUSH1 0x1 PUSH1 0x1 PUSH1 0xA0 SHL SUB AND DUP7 CALLER PUSH1 0x1 PUSH1 0x1 PUSH1 0xA0 SHL SUB AND PUSH32 0x8166BF25F8A2B7ED3C85049207DA4358D16EDBED977D23FA2EE6F0DDE3EC2132 DUP9 PUSH1 0x40 MLOAD PUSH2 0x82D SWAP2 SWAP1 PUSH2 0x2ED8 JUMP JUMPDEST PUSH1 0x40 MLOAD DUP1 SWAP2 SUB SWAP1 LOG4 POP POP POP POP POP POP JUMP JUMPDEST PUSH1 0x3 DUP2 DUP2 SLOAD DUP2 LT PUSH2 0x84A JUMPI INVALID JUMPDEST PUSH1 0x0 SWAP2 DUP3 MSTORE PUSH1 0x20 SWAP1 SWAP2 KECCAK256 ADD SLOAD PUSH1 0x1 PUSH1 0x1 PUSH1 0x80 SHL SUB DUP2 AND SWAP2 POP PUSH1 0x1 PUSH1 0x1 PUSH1 0x40 SHL SUB PUSH1 0x1 PUSH1 0x80 SHL DUP3 DIV DUP2 AND SWAP2 PUSH1 0x1 PUSH1 0xC0 SHL SWAP1 DIV AND DUP4 JUMP JUMPDEST PUSH1 0x7 SLOAD DUP2 JUMP JUMPDEST PUSH2 0x88D PUSH2 0x2575 JUMP JUMPDEST PUSH2 0x896 DUP4 PUSH2 0x10E6 JUMP JUMPDEST PUSH1 0x0 DUP5 DUP2 MSTORE PUSH1 0x6 PUSH1 0x20 SWAP1 DUP2 MSTORE PUSH1 0x40 DUP1 DUP4 KECCAK256 CALLER DUP5 MSTORE SWAP1 SWAP2 MSTORE DUP2 KECCAK256 DUP3 MLOAD DUP2 SLOAD SWAP4 SWAP5 POP SWAP1 SWAP3 PUSH5 0xE8D4A51000 SWAP2 PUSH2 0x8D2 SWAP2 SWAP1 PUSH1 0x1 PUSH1 0x1 PUSH1 0x80 SHL SUB AND PUSH2 0x2179 JUMP JUMPDEST DUP2 PUSH2 0x8D9 JUMPI INVALID JUMPDEST DIV SWAP1 POP PUSH1 0x0 PUSH2 0x8FD PUSH2 0x8F8 DUP5 PUSH1 0x1 ADD SLOAD DUP5 PUSH2 0x21B6 SWAP1 SWAP2 SWAP1 PUSH4 0xFFFFFFFF AND JUMP JUMPDEST PUSH2 0x2314 JUMP JUMPDEST PUSH1 0x1 DUP5 ADD DUP4 SWAP1 SSTORE SWAP1 POP DUP1 ISZERO PUSH2 0x940 JUMPI PUSH2 0x940 PUSH1 0x1 PUSH1 0x1 PUSH1 0xA0 SHL SUB PUSH32 0x0 AND DUP7 DUP4 PUSH2 0x2226 JUMP JUMPDEST PUSH1 0x0 PUSH1 0x5 DUP8 DUP2 SLOAD DUP2 LT PUSH2 0x94F JUMPI INVALID JUMPDEST PUSH1 0x0 SWAP2 DUP3 MSTORE PUSH1 0x20 SWAP1 SWAP2 KECCAK256 ADD SLOAD PUSH1 0x1 PUSH1 0x1 PUSH1 0xA0 SHL SUB AND SWAP1 POP DUP1 ISZERO PUSH2 0x9D4 JUMPI DUP4 SLOAD PUSH1 0x40 MLOAD PUSH4 0x1F56FA8F PUSH1 0xE0 SHL DUP2 MSTORE PUSH1 0x1 PUSH1 0x1 PUSH1 0xA0 SHL SUB DUP4 AND SWAP2 PUSH4 0x1F56FA8F SWAP2 PUSH2 0x9A1 SWAP2 DUP12 SWAP2 CALLER SWAP2 DUP13 SWAP2 DUP10 SWAP2 SWAP1 PUSH1 0x4 ADD PUSH2 0x2EE1 JUMP JUMPDEST PUSH1 0x0 PUSH1 0x40 MLOAD DUP1 DUP4 SUB DUP2 PUSH1 0x0 DUP8 DUP1 EXTCODESIZE ISZERO DUP1 ISZERO PUSH2 0x9BB JUMPI PUSH1 0x0 DUP1 REVERT JUMPDEST POP GAS CALL ISZERO DUP1 ISZERO PUSH2 0x9CF JUMPI RETURNDATASIZE PUSH1 0x0 DUP1 RETURNDATACOPY RETURNDATASIZE PUSH1 0x0 REVERT JUMPDEST POP POP POP POP JUMPDEST DUP7 CALLER PUSH1 0x1 PUSH1 0x1 PUSH1 0xA0 SHL SUB AND PUSH32 0x71BAB65CED2E5750775A0613BE067DF48EF06CF92A496EBF7663AE0660924954 DUP5 PUSH1 0x40 MLOAD PUSH2 0xA0E SWAP2 SWAP1 PUSH2 0x2ED8 JUMP JUMPDEST PUSH1 0x40 MLOAD DUP1 SWAP2 SUB SWAP1 LOG3 POP POP POP POP POP POP POP JUMP JUMPDEST PUSH1 0x40 MLOAD PUSH4 0x70A08231 PUSH1 0xE0 SHL DUP2 MSTORE PUSH1 0x0 SWAP1 PUSH1 0x1 PUSH1 0x1 PUSH1 0xA0 SHL SUB DUP4 AND SWAP1 PUSH4 0x70A08231 SWAP1 PUSH2 0xA4E SWAP1 CALLER SWAP1 PUSH1 0x4 ADD PUSH2 0x29CA JUMP JUMPDEST PUSH1 0x20 PUSH1 0x40 MLOAD DUP1 DUP4 SUB DUP2 DUP7 DUP1 EXTCODESIZE ISZERO DUP1 ISZERO PUSH2 0xA66 JUMPI PUSH1 0x0 DUP1 REVERT JUMPDEST POP GAS STATICCALL ISZERO DUP1 ISZERO PUSH2 0xA7A JUMPI RETURNDATASIZE PUSH1 0x0 DUP1 RETURNDATACOPY RETURNDATASIZE PUSH1 0x0 REVERT JUMPDEST POP POP POP POP PUSH1 0x40 MLOAD RETURNDATASIZE PUSH1 0x1F NOT PUSH1 0x1F DUP3 ADD AND DUP3 ADD DUP1 PUSH1 0x40 MSTORE POP DUP2 ADD SWAP1 PUSH2 0xA9E SWAP2 SWAP1 PUSH2 0x287F JUMP JUMPDEST SWAP1 POP DUP1 PUSH2 0xABD JUMPI PUSH1 0x40 MLOAD PUSH3 0x461BCD PUSH1 0xE5 SHL DUP2 MSTORE PUSH1 0x4 ADD PUSH2 0x5E2 SWAP1 PUSH2 0x2B94 JUMP JUMPDEST PUSH2 0xAD2 PUSH1 0x1 PUSH1 0x1 PUSH1 0xA0 SHL SUB DUP4 AND CALLER ADDRESS DUP5 PUSH2 0x233A JUMP JUMPDEST PUSH1 0x40 MLOAD PUSH4 0x95EA7B3 PUSH1 0xE0 SHL DUP2 MSTORE PUSH1 0x1 PUSH1 0x1 PUSH1 0xA0 SHL SUB DUP4 AND SWAP1 PUSH4 0x95EA7B3 SWAP1 PUSH2 0xB20 SWAP1 PUSH32 0x0 SWAP1 DUP6 SWAP1 PUSH1 0x4 ADD PUSH2 0x2A43 JUMP JUMPDEST PUSH1 0x20 PUSH1 0x40 MLOAD DUP1 DUP4 SUB DUP2 PUSH1 0x0 DUP8 DUP1 EXTCODESIZE ISZERO DUP1 ISZERO PUSH2 0xB3A JUMPI PUSH1 0x0 DUP1 REVERT JUMPDEST POP GAS CALL ISZERO DUP1 ISZERO PUSH2 0xB4E JUMPI RETURNDATASIZE PUSH1 0x0 DUP1 RETURNDATACOPY RETURNDATASIZE PUSH1 0x0 REVERT JUMPDEST POP POP POP POP PUSH1 0x40 MLOAD RETURNDATASIZE PUSH1 0x1F NOT PUSH1 0x1F DUP3 ADD AND DUP3 ADD DUP1 PUSH1 0x40 MSTORE POP DUP2 ADD SWAP1 PUSH2 0xB72 SWAP2 SWAP1 PUSH2 0x26AF JUMP JUMPDEST POP PUSH1 0x40 MLOAD PUSH4 0x1C57762B PUSH1 0xE3 SHL DUP2 MSTORE PUSH1 0x1 PUSH1 0x1 PUSH1 0xA0 SHL SUB PUSH32 0x0 AND SWAP1 PUSH4 0xE2BBB158 SWAP1 PUSH2 0xBE1 SWAP1 PUSH32 0x0 SWAP1 DUP6 SWAP1 PUSH1 0x4 ADD PUSH2 0x2F20 JUMP JUMPDEST PUSH1 0x0 PUSH1 0x40 MLOAD DUP1 DUP4 SUB DUP2 PUSH1 0x0 DUP8 DUP1 EXTCODESIZE ISZERO DUP1 ISZERO PUSH2 0xBFB JUMPI PUSH1 0x0 DUP1 REVERT JUMPDEST POP GAS CALL ISZERO DUP1 ISZERO PUSH2 0xC0F JUMPI RETURNDATASIZE PUSH1 0x0 DUP1 RETURNDATACOPY RETURNDATASIZE PUSH1 0x0 REVERT JUMPDEST POP POP PUSH1 0x40 MLOAD PUSH32 0x98A9BD3B7A617581FC53B1E2992534E0E0CB5091C9D44AA1A7FC978F706CAA83 SWAP3 POP PUSH1 0x0 SWAP2 POP LOG1 POP POP JUMP JUMPDEST PUSH1 0x0 SLOAD PUSH1 0x1 PUSH1 0x1 PUSH1 0xA0 SHL SUB AND CALLER EQ PUSH2 0xC6A JUMPI PUSH1 0x40 MLOAD PUSH3 0x461BCD PUSH1 0xE5 SHL DUP2 MSTORE PUSH1 0x4 ADD PUSH2 0x5E2 SWAP1 PUSH2 0x2D24 JUMP JUMPDEST PUSH1 0x2 DUP1 SLOAD PUSH1 0x1 PUSH1 0x1 PUSH1 0xA0 SHL SUB NOT AND PUSH1 0x1 PUSH1 0x1 PUSH1 0xA0 SHL SUB SWAP3 SWAP1 SWAP3 AND SWAP2 SWAP1 SWAP2 OR SWAP1 SSTORE JUMP JUMPDEST PUSH1 0x0 DUP3 DUP2 MSTORE PUSH1 0x6 PUSH1 0x20 SWAP1 DUP2 MSTORE PUSH1 0x40 DUP1 DUP4 KECCAK256 CALLER DUP5 MSTORE SWAP1 SWAP2 MSTORE DUP2 KECCAK256 DUP1 SLOAD DUP3 DUP3 SSTORE PUSH1 0x1 DUP3 ADD DUP4 SWAP1 SSTORE PUSH1 0x5 DUP1 SLOAD SWAP3 SWAP4 SWAP2 SWAP3 DUP7 SWAP1 DUP2 LT PUSH2 0xCC3 JUMPI INVALID JUMPDEST PUSH1 0x0 SWAP2 DUP3 MSTORE PUSH1 0x20 SWAP1 SWAP2 KECCAK256 ADD SLOAD PUSH1 0x1 PUSH1 0x1 PUSH1 0xA0 SHL SUB AND SWAP1 POP DUP1 ISZERO PUSH2 0xD48 JUMPI PUSH1 0x40 MLOAD PUSH4 0x1F56FA8F PUSH1 0xE0 SHL DUP2 MSTORE PUSH1 0x1 PUSH1 0x1 PUSH1 0xA0 SHL SUB DUP3 AND SWAP1 PUSH4 0x1F56FA8F SWAP1 PUSH2 0xD15 SWAP1 DUP9 SWAP1 CALLER SWAP1 DUP10 SWAP1 PUSH1 0x0 SWAP1 DUP2 SWAP1 PUSH1 0x4 ADD PUSH2 0x2EE1 JUMP JUMPDEST PUSH1 0x0 PUSH1 0x40 MLOAD DUP1 DUP4 SUB DUP2 PUSH1 0x0 DUP8 DUP1 EXTCODESIZE ISZERO DUP1 ISZERO PUSH2 0xD2F JUMPI PUSH1 0x0 DUP1 REVERT JUMPDEST POP GAS CALL ISZERO DUP1 ISZERO PUSH2 0xD43 JUMPI RETURNDATASIZE PUSH1 0x0 DUP1 RETURNDATACOPY RETURNDATASIZE PUSH1 0x0 REVERT JUMPDEST POP POP POP POP JUMPDEST PUSH2 0xD5A DUP5 DUP4 PUSH1 0x4 DUP9 DUP2 SLOAD DUP2 LT PUSH2 0x7CD JUMPI INVALID JUMPDEST DUP4 PUSH1 0x1 PUSH1 0x1 PUSH1 0xA0 SHL SUB AND DUP6 CALLER PUSH1 0x1 PUSH1 0x1 PUSH1 0xA0 SHL SUB AND PUSH32 0x2CAC5E20E1541D836381527A43F651851E302817B71DC8E810284E69210C1C6B DUP6 PUSH1 0x40 MLOAD PUSH2 0xD9E SWAP2 SWAP1 PUSH2 0x2ED8 JUMP JUMPDEST PUSH1 0x40 MLOAD DUP1 SWAP2 SUB SWAP1 LOG4 POP POP POP POP POP JUMP JUMPDEST PUSH1 0x2 SLOAD PUSH1 0x1 PUSH1 0x1 PUSH1 0xA0 SHL SUB AND PUSH2 0xDD5 JUMPI PUSH1 0x40 MLOAD PUSH3 0x461BCD PUSH1 0xE5 SHL DUP2 MSTORE PUSH1 0x4 ADD PUSH2 0x5E2 SWAP1 PUSH2 0x2BC9 JUMP JUMPDEST PUSH1 0x0 PUSH1 0x4 DUP3 DUP2 SLOAD DUP2 LT PUSH2 0xDE4 JUMPI INVALID JUMPDEST PUSH1 0x0 SWAP2 DUP3 MSTORE PUSH1 0x20 DUP3 KECCAK256 ADD SLOAD PUSH1 0x40 MLOAD PUSH4 0x70A08231 PUSH1 0xE0 SHL DUP2 MSTORE PUSH1 0x1 PUSH1 0x1 PUSH1 0xA0 SHL SUB SWAP1 SWAP2 AND SWAP3 POP DUP3 SWAP1 PUSH4 0x70A08231 SWAP1 PUSH2 0xE1F SWAP1 ADDRESS SWAP1 PUSH1 0x4 ADD PUSH2 0x29CA JUMP JUMPDEST PUSH1 0x20 PUSH1 0x40 MLOAD DUP1 DUP4 SUB DUP2 DUP7 DUP1 EXTCODESIZE ISZERO DUP1 ISZERO PUSH2 0xE37 JUMPI PUSH1 0x0 DUP1 REVERT JUMPDEST POP GAS STATICCALL ISZERO DUP1 ISZERO PUSH2 0xE4B JUMPI RETURNDATASIZE PUSH1 0x0 DUP1 RETURNDATACOPY RETURNDATASIZE PUSH1 0x0 REVERT JUMPDEST POP POP POP POP PUSH1 0x40 MLOAD RETURNDATASIZE PUSH1 0x1F NOT PUSH1 0x1F DUP3 ADD AND DUP3 ADD DUP1 PUSH1 0x40 MSTORE POP DUP2 ADD SWAP1 PUSH2 0xE6F SWAP2 SWAP1 PUSH2 0x287F JUMP JUMPDEST PUSH1 0x2 SLOAD PUSH1 0x40 MLOAD PUSH4 0x95EA7B3 PUSH1 0xE0 SHL DUP2 MSTORE SWAP2 SWAP3 POP PUSH1 0x1 PUSH1 0x1 PUSH1 0xA0 SHL SUB DUP1 DUP6 AND SWAP3 PUSH4 0x95EA7B3 SWAP3 PUSH2 0xEA4 SWAP3 AND SWAP1 DUP6 SWAP1 PUSH1 0x4 ADD PUSH2 0x2A43 JUMP JUMPDEST PUSH1 0x20 PUSH1 0x40 MLOAD DUP1 DUP4 SUB DUP2 PUSH1 0x0 DUP8 DUP1 EXTCODESIZE ISZERO DUP1 ISZERO PUSH2 0xEBE JUMPI PUSH1 0x0 DUP1 REVERT JUMPDEST POP GAS CALL ISZERO DUP1 ISZERO PUSH2 0xED2 JUMPI RETURNDATASIZE PUSH1 0x0 DUP1 RETURNDATACOPY RETURNDATASIZE PUSH1 0x0 REVERT JUMPDEST POP POP POP POP PUSH1 0x40 MLOAD RETURNDATASIZE PUSH1 0x1F NOT PUSH1 0x1F DUP3 ADD AND DUP3 ADD DUP1 PUSH1 0x40 MSTORE POP DUP2 ADD SWAP1 PUSH2 0xEF6 SWAP2 SWAP1 PUSH2 0x26AF JUMP JUMPDEST POP PUSH1 0x2 SLOAD PUSH1 0x40 MLOAD PUSH4 0xCE5494BB PUSH1 0xE0 SHL DUP2 MSTORE PUSH1 0x0 SWAP2 PUSH1 0x1 PUSH1 0x1 PUSH1 0xA0 SHL SUB AND SWAP1 PUSH4 0xCE5494BB SWAP1 PUSH2 0xF28 SWAP1 DUP7 SWAP1 PUSH1 0x4 ADD PUSH2 0x29CA JUMP JUMPDEST PUSH1 0x20 PUSH1 0x40 MLOAD DUP1 DUP4 SUB DUP2 PUSH1 0x0 DUP8 DUP1 EXTCODESIZE ISZERO DUP1 ISZERO PUSH2 0xF42 JUMPI PUSH1 0x0 DUP1 REVERT JUMPDEST POP GAS CALL ISZERO DUP1 ISZERO PUSH2 0xF56 JUMPI RETURNDATASIZE PUSH1 0x0 DUP1 RETURNDATACOPY RETURNDATASIZE PUSH1 0x0 REVERT JUMPDEST POP POP POP POP PUSH1 0x40 MLOAD RETURNDATASIZE PUSH1 0x1F NOT PUSH1 0x1F DUP3 ADD AND DUP3 ADD DUP1 PUSH1 0x40 MSTORE POP DUP2 ADD SWAP1 PUSH2 0xF7A SWAP2 SWAP1 PUSH2 0x26E7 JUMP JUMPDEST PUSH1 0x40 MLOAD PUSH4 0x70A08231 PUSH1 0xE0 SHL DUP2 MSTORE SWAP1 SWAP2 POP PUSH1 0x1 PUSH1 0x1 PUSH1 0xA0 SHL SUB DUP3 AND SWAP1 PUSH4 0x70A08231 SWAP1 PUSH2 0xFA9 SWAP1 ADDRESS SWAP1 PUSH1 0x4 ADD PUSH2 0x29CA JUMP JUMPDEST PUSH1 0x20 PUSH1 0x40 MLOAD DUP1 DUP4 SUB DUP2 DUP7 DUP1 EXTCODESIZE ISZERO DUP1 ISZERO PUSH2 0xFC1 JUMPI PUSH1 0x0 DUP1 REVERT JUMPDEST POP GAS STATICCALL ISZERO DUP1 ISZERO PUSH2 0xFD5 JUMPI RETURNDATASIZE PUSH1 0x0 DUP1 RETURNDATACOPY RETURNDATASIZE PUSH1 0x0 REVERT JUMPDEST POP POP POP POP PUSH1 0x40 MLOAD RETURNDATASIZE PUSH1 0x1F NOT PUSH1 0x1F DUP3 ADD AND DUP3 ADD DUP1 PUSH1 0x40 MSTORE POP DUP2 ADD SWAP1 PUSH2 0xFF9 SWAP2 SWAP1 PUSH2 0x287F JUMP JUMPDEST DUP3 EQ PUSH2 0x1017 JUMPI PUSH1 0x40 MLOAD PUSH3 0x461BCD PUSH1 0xE5 SHL DUP2 MSTORE PUSH1 0x4 ADD PUSH2 0x5E2 SWAP1 PUSH2 0x2C00 JUMP JUMPDEST DUP1 PUSH1 0x4 DUP6 DUP2 SLOAD DUP2 LT PUSH2 0x1025 JUMPI INVALID JUMPDEST SWAP1 PUSH1 0x0 MSTORE PUSH1 0x20 PUSH1 0x0 KECCAK256 ADD PUSH1 0x0 PUSH2 0x100 EXP DUP2 SLOAD DUP2 PUSH1 0x1 PUSH1 0x1 PUSH1 0xA0 SHL SUB MUL NOT AND SWAP1 DUP4 PUSH1 0x1 PUSH1 0x1 PUSH1 0xA0 SHL SUB AND MUL OR SWAP1 SSTORE POP POP POP POP POP JUMP JUMPDEST PUSH1 0x1 SLOAD PUSH1 0x1 PUSH1 0x1 PUSH1 0xA0 SHL SUB AND CALLER DUP2 EQ PUSH2 0x1084 JUMPI PUSH1 0x40 MLOAD PUSH3 0x461BCD PUSH1 0xE5 SHL DUP2 MSTORE PUSH1 0x4 ADD PUSH2 0x5E2 SWAP1 PUSH2 0x2D59 JUMP JUMPDEST PUSH1 0x0 DUP1 SLOAD PUSH1 0x40 MLOAD PUSH1 0x1 PUSH1 0x1 PUSH1 0xA0 SHL SUB DUP1 DUP6 AND SWAP4 SWAP3 AND SWAP2 PUSH32 0x8BE0079C531659141344CD1FD0A4F28419497F9722A3DAAFE3B4186F6B6457E0 SWAP2 LOG3 PUSH1 0x0 DUP1 SLOAD PUSH1 0x1 PUSH1 0x1 PUSH1 0xA0 SHL SUB SWAP1 SWAP3 AND PUSH1 0x1 PUSH1 0x1 PUSH1 0xA0 SHL SUB NOT SWAP3 DUP4 AND OR SWAP1 SSTORE PUSH1 0x1 DUP1 SLOAD SWAP1 SWAP2 AND SWAP1 SSTORE JUMP JUMPDEST PUSH2 0x10EE PUSH2 0x2575 JUMP JUMPDEST PUSH1 0x3 DUP3 DUP2 SLOAD DUP2 LT PUSH2 0x10FB JUMPI INVALID JUMPDEST PUSH1 0x0 SWAP2 DUP3 MSTORE PUSH1 0x20 SWAP2 DUP3 SWAP1 KECCAK256 PUSH1 0x40 DUP1 MLOAD PUSH1 0x60 DUP2 ADD DUP3 MSTORE SWAP3 SWAP1 SWAP2 ADD SLOAD PUSH1 0x1 PUSH1 0x1 PUSH1 0x80 SHL SUB DUP2 AND DUP4 MSTORE PUSH1 0x1 PUSH1 0x1 PUSH1 0x40 SHL SUB PUSH1 0x1 PUSH1 0x80 SHL DUP3 DIV DUP2 AND SWAP5 DUP5 ADD DUP6 SWAP1 MSTORE PUSH1 0x1 PUSH1 0xC0 SHL SWAP1 SWAP2 DIV AND SWAP1 DUP3 ADD MSTORE SWAP2 POP NUMBER GT ISZERO PUSH2 0x1368 JUMPI PUSH1 0x0 PUSH1 0x4 DUP4 DUP2 SLOAD DUP2 LT PUSH2 0x115D JUMPI INVALID JUMPDEST PUSH1 0x0 SWAP2 DUP3 MSTORE PUSH1 0x20 SWAP1 SWAP2 KECCAK256 ADD SLOAD PUSH1 0x40 MLOAD PUSH4 0x70A08231 PUSH1 0xE0 SHL DUP2 MSTORE PUSH1 0x1 PUSH1 0x1 PUSH1 0xA0 SHL SUB SWAP1 SWAP2 AND SWAP1 PUSH4 0x70A08231 SWAP1 PUSH2 0x1196 SWAP1 ADDRESS SWAP1 PUSH1 0x4 ADD PUSH2 0x29CA JUMP JUMPDEST PUSH1 0x20 PUSH1 0x40 MLOAD DUP1 DUP4 SUB DUP2 DUP7 DUP1 EXTCODESIZE ISZERO DUP1 ISZERO PUSH2 0x11AE JUMPI PUSH1 0x0 DUP1 REVERT JUMPDEST POP GAS STATICCALL ISZERO DUP1 ISZERO PUSH2 0x11C2 JUMPI RETURNDATASIZE PUSH1 0x0 DUP1 RETURNDATACOPY RETURNDATASIZE PUSH1 0x0 REVERT JUMPDEST POP POP POP POP PUSH1 0x40 MLOAD RETURNDATASIZE PUSH1 0x1F NOT PUSH1 0x1F DUP3 ADD AND DUP3 ADD DUP1 PUSH1 0x40 MSTORE POP DUP2 ADD SWAP1 PUSH2 0x11E6 SWAP2 SWAP1 PUSH2 0x287F JUMP JUMPDEST SWAP1 POP DUP1 ISZERO PUSH2 0x128C JUMPI PUSH1 0x0 PUSH2 0x1210 DUP4 PUSH1 0x20 ADD MLOAD PUSH1 0x1 PUSH1 0x1 PUSH1 0x40 SHL SUB AND NUMBER PUSH2 0x2203 SWAP1 SWAP2 SWAP1 PUSH4 0xFFFFFFFF AND JUMP JUMPDEST SWAP1 POP PUSH1 0x0 PUSH1 0x7 SLOAD PUSH2 0x1240 DUP6 PUSH1 0x40 ADD MLOAD PUSH1 0x1 PUSH1 0x1 PUSH1 0x40 SHL SUB AND PUSH2 0x123A PUSH2 0x1233 PUSH2 0x17CE JUMP JUMPDEST DUP7 SWAP1 PUSH2 0x2179 JUMP JUMPDEST SWAP1 PUSH2 0x2179 JUMP JUMPDEST DUP2 PUSH2 0x1247 JUMPI INVALID JUMPDEST DIV SWAP1 POP PUSH2 0x127E PUSH2 0x126D DUP5 PUSH2 0x1260 DUP5 PUSH5 0xE8D4A51000 PUSH2 0x2179 JUMP JUMPDEST DUP2 PUSH2 0x1267 JUMPI INVALID JUMPDEST DIV PUSH2 0x242B JUMP JUMPDEST DUP6 MLOAD PUSH1 0x1 PUSH1 0x1 PUSH1 0x80 SHL SUB AND SWAP1 PUSH2 0x2454 JUMP JUMPDEST PUSH1 0x1 PUSH1 0x1 PUSH1 0x80 SHL SUB AND DUP5 MSTORE POP POP JUMPDEST PUSH2 0x1295 NUMBER PUSH2 0x2483 JUMP JUMPDEST PUSH1 0x1 PUSH1 0x1 PUSH1 0x40 SHL SUB AND PUSH1 0x20 DUP4 ADD MSTORE PUSH1 0x3 DUP1 SLOAD DUP4 SWAP2 SWAP1 DUP6 SWAP1 DUP2 LT PUSH2 0x12B4 JUMPI INVALID JUMPDEST PUSH1 0x0 SWAP2 DUP3 MSTORE PUSH1 0x20 SWAP2 DUP3 SWAP1 KECCAK256 DUP4 MLOAD SWAP2 ADD DUP1 SLOAD DUP5 DUP5 ADD MLOAD PUSH1 0x40 SWAP6 DUP7 ADD MLOAD PUSH1 0x1 PUSH1 0x1 PUSH1 0x80 SHL SUB NOT SWAP1 SWAP3 AND PUSH1 0x1 PUSH1 0x1 PUSH1 0x80 SHL SUB SWAP1 SWAP5 AND SWAP4 SWAP1 SWAP4 OR PUSH8 0xFFFFFFFFFFFFFFFF PUSH1 0x80 SHL NOT AND PUSH1 0x1 PUSH1 0x80 SHL PUSH1 0x1 PUSH1 0x1 PUSH1 0x40 SHL SUB SWAP5 DUP6 AND MUL OR PUSH1 0x1 PUSH1 0x1 PUSH1 0xC0 SHL SUB AND PUSH1 0x1 PUSH1 0xC0 SHL SWAP4 SWAP1 SWAP2 AND SWAP3 SWAP1 SWAP3 MUL SWAP2 SWAP1 SWAP2 OR SWAP1 SSTORE DUP4 ADD MLOAD DUP4 MLOAD SWAP2 MLOAD DUP6 SWAP3 PUSH32 0xFC9545022A542541AD085D091FB09A2AB36FEE366A4576AB63714EA907AD353 SWAP3 PUSH2 0x135E SWAP3 SWAP1 SWAP2 DUP7 SWAP2 PUSH2 0x2F2E JUMP JUMPDEST PUSH1 0x40 MLOAD DUP1 SWAP2 SUB SWAP1 LOG2 POP JUMPDEST SWAP2 SWAP1 POP JUMP JUMPDEST PUSH1 0x0 PUSH2 0x1377 PUSH2 0x2575 JUMP JUMPDEST PUSH1 0x3 DUP5 DUP2 SLOAD DUP2 LT PUSH2 0x1384 JUMPI INVALID JUMPDEST PUSH1 0x0 SWAP2 DUP3 MSTORE PUSH1 0x20 DUP1 DUP4 KECCAK256 PUSH1 0x40 DUP1 MLOAD PUSH1 0x60 DUP2 ADD DUP3 MSTORE SWAP2 SWAP1 SWAP4 ADD SLOAD PUSH1 0x1 PUSH1 0x1 PUSH1 0x80 SHL SUB DUP1 DUP3 AND DUP4 MSTORE PUSH1 0x1 PUSH1 0x1 PUSH1 0x40 SHL SUB PUSH1 0x1 PUSH1 0x80 SHL DUP4 DIV DUP2 AND DUP5 DUP7 ADD MSTORE PUSH1 0x1 PUSH1 0xC0 SHL SWAP1 SWAP3 DIV SWAP1 SWAP2 AND DUP3 DUP6 ADD MSTORE DUP9 DUP6 MSTORE PUSH1 0x6 DUP4 MSTORE DUP4 DUP6 KECCAK256 PUSH1 0x1 PUSH1 0x1 PUSH1 0xA0 SHL SUB DUP10 AND DUP7 MSTORE SWAP1 SWAP3 MSTORE SWAP2 DUP4 KECCAK256 DUP3 MLOAD PUSH1 0x4 DUP1 SLOAD SWAP5 SWAP7 POP SWAP2 SWAP5 SWAP3 AND SWAP3 DUP9 SWAP1 DUP2 LT PUSH2 0x1402 JUMPI INVALID JUMPDEST PUSH1 0x0 SWAP2 DUP3 MSTORE PUSH1 0x20 SWAP1 SWAP2 KECCAK256 ADD SLOAD PUSH1 0x40 MLOAD PUSH4 0x70A08231 PUSH1 0xE0 SHL DUP2 MSTORE PUSH1 0x1 PUSH1 0x1 PUSH1 0xA0 SHL SUB SWAP1 SWAP2 AND SWAP1 PUSH4 0x70A08231 SWAP1 PUSH2 0x143B SWAP1 ADDRESS SWAP1 PUSH1 0x4 ADD PUSH2 0x29CA JUMP JUMPDEST PUSH1 0x20 PUSH1 0x40 MLOAD DUP1 DUP4 SUB DUP2 DUP7 DUP1 EXTCODESIZE ISZERO DUP1 ISZERO PUSH2 0x1453 JUMPI PUSH1 0x0 DUP1 REVERT JUMPDEST POP GAS STATICCALL ISZERO DUP1 ISZERO PUSH2 0x1467 JUMPI RETURNDATASIZE PUSH1 0x0 DUP1 RETURNDATACOPY RETURNDATASIZE PUSH1 0x0 REVERT JUMPDEST POP POP POP POP PUSH1 0x40 MLOAD RETURNDATASIZE PUSH1 0x1F NOT PUSH1 0x1F DUP3 ADD AND DUP3 ADD DUP1 PUSH1 0x40 MSTORE POP DUP2 ADD SWAP1 PUSH2 0x148B SWAP2 SWAP1 PUSH2 0x287F JUMP JUMPDEST SWAP1 POP DUP4 PUSH1 0x20 ADD MLOAD PUSH1 0x1 PUSH1 0x1 PUSH1 0x40 SHL SUB AND NUMBER GT DUP1 ISZERO PUSH2 0x14A8 JUMPI POP DUP1 ISZERO ISZERO JUMPDEST ISZERO PUSH2 0x1524 JUMPI PUSH1 0x0 PUSH2 0x14CF DUP6 PUSH1 0x20 ADD MLOAD PUSH1 0x1 PUSH1 0x1 PUSH1 0x40 SHL SUB AND NUMBER PUSH2 0x2203 SWAP1 SWAP2 SWAP1 PUSH4 0xFFFFFFFF AND JUMP JUMPDEST SWAP1 POP PUSH1 0x0 PUSH1 0x7 SLOAD PUSH2 0x14F2 DUP8 PUSH1 0x40 ADD MLOAD PUSH1 0x1 PUSH1 0x1 PUSH1 0x40 SHL SUB AND PUSH2 0x123A PUSH2 0x1233 PUSH2 0x17CE JUMP JUMPDEST DUP2 PUSH2 0x14F9 JUMPI INVALID JUMPDEST DIV SWAP1 POP PUSH2 0x151F DUP4 PUSH2 0x150F DUP4 PUSH5 0xE8D4A51000 PUSH2 0x2179 JUMP JUMPDEST DUP2 PUSH2 0x1516 JUMPI INVALID JUMPDEST DUP7 SWAP2 SWAP1 DIV PUSH2 0x24AC JUMP JUMPDEST SWAP4 POP POP POP JUMPDEST PUSH1 0x1 DUP4 ADD SLOAD DUP4 SLOAD PUSH2 0x1552 SWAP2 PUSH2 0x8F8 SWAP2 PUSH5 0xE8D4A51000 SWAP1 PUSH2 0x1544 SWAP1 DUP8 PUSH2 0x2179 JUMP JUMPDEST DUP2 PUSH2 0x154B JUMPI INVALID JUMPDEST DIV SWAP1 PUSH2 0x21B6 JUMP JUMPDEST SWAP8 SWAP7 POP POP POP POP POP POP POP JUMP JUMPDEST DUP1 PUSH1 0x0 JUMPDEST DUP2 DUP2 LT ISZERO PUSH2 0x158D JUMPI PUSH2 0x1584 DUP5 DUP5 DUP4 DUP2 DUP2 LT PUSH2 0x1578 JUMPI INVALID JUMPDEST SWAP1 POP PUSH1 0x20 MUL ADD CALLDATALOAD PUSH2 0x10E6 JUMP JUMPDEST POP PUSH1 0x1 ADD PUSH2 0x1561 JUMP JUMPDEST POP POP POP POP JUMP JUMPDEST PUSH32 0x0 DUP2 JUMP JUMPDEST PUSH1 0x4 DUP2 DUP2 SLOAD DUP2 LT PUSH2 0x15C4 JUMPI INVALID JUMPDEST PUSH1 0x0 SWAP2 DUP3 MSTORE PUSH1 0x20 SWAP1 SWAP2 KECCAK256 ADD SLOAD PUSH1 0x1 PUSH1 0x1 PUSH1 0xA0 SHL SUB AND SWAP1 POP DUP2 JUMP JUMPDEST PUSH1 0x40 MLOAD PUSH4 0xD505ACCF PUSH1 0xE0 SHL DUP2 MSTORE PUSH1 0x1 PUSH1 0x1 PUSH1 0xA0 SHL SUB DUP10 AND SWAP1 PUSH4 0xD505ACCF SWAP1 PUSH2 0x1616 SWAP1 DUP11 SWAP1 DUP11 SWAP1 DUP11 SWAP1 DUP11 SWAP1 DUP11 SWAP1 DUP11 SWAP1 DUP11 SWAP1 PUSH1 0x4 ADD PUSH2 0x2A02 JUMP JUMPDEST PUSH1 0x0 PUSH1 0x40 MLOAD DUP1 DUP4 SUB DUP2 PUSH1 0x0 DUP8 DUP1 EXTCODESIZE ISZERO DUP1 ISZERO PUSH2 0x1630 JUMPI PUSH1 0x0 DUP1 REVERT JUMPDEST POP GAS CALL ISZERO DUP1 ISZERO PUSH2 0x1644 JUMPI RETURNDATASIZE PUSH1 0x0 DUP1 RETURNDATACOPY RETURNDATASIZE PUSH1 0x0 REVERT JUMPDEST POP POP POP POP POP POP POP POP POP POP POP POP JUMP JUMPDEST PUSH1 0x2 SLOAD PUSH1 0x1 PUSH1 0x1 PUSH1 0xA0 SHL SUB AND DUP2 JUMP JUMPDEST PUSH1 0x0 SLOAD PUSH1 0x1 PUSH1 0x1 PUSH1 0xA0 SHL SUB AND CALLER EQ PUSH2 0x168B JUMPI PUSH1 0x40 MLOAD PUSH3 0x461BCD PUSH1 0xE5 SHL DUP2 MSTORE PUSH1 0x4 ADD PUSH2 0x5E2 SWAP1 PUSH2 0x2D24 JUMP JUMPDEST PUSH2 0x16CA DUP4 PUSH2 0x16C4 PUSH1 0x3 DUP8 DUP2 SLOAD DUP2 LT PUSH2 0x169F JUMPI INVALID JUMPDEST PUSH1 0x0 SWAP2 DUP3 MSTORE PUSH1 0x20 SWAP1 SWAP2 KECCAK256 ADD SLOAD PUSH1 0x7 SLOAD SWAP1 PUSH1 0x1 PUSH1 0xC0 SHL SWAP1 DIV PUSH1 0x1 PUSH1 0x1 PUSH1 0x40 SHL SUB AND PUSH2 0x2203 JUMP JUMPDEST SWAP1 PUSH2 0x24AC JUMP JUMPDEST PUSH1 0x7 SSTORE PUSH2 0x16D6 DUP4 PUSH2 0x2483 JUMP JUMPDEST PUSH1 0x3 DUP6 DUP2 SLOAD DUP2 LT PUSH2 0x16E3 JUMPI INVALID JUMPDEST SWAP1 PUSH1 0x0 MSTORE PUSH1 0x20 PUSH1 0x0 KECCAK256 ADD PUSH1 0x0 ADD PUSH1 0x18 PUSH2 0x100 EXP DUP2 SLOAD DUP2 PUSH1 0x1 PUSH1 0x1 PUSH1 0x40 SHL SUB MUL NOT AND SWAP1 DUP4 PUSH1 0x1 PUSH1 0x1 PUSH1 0x40 SHL SUB AND MUL OR SWAP1 SSTORE POP DUP1 ISZERO PUSH2 0x1757 JUMPI DUP2 PUSH1 0x5 DUP6 DUP2 SLOAD DUP2 LT PUSH2 0x1728 JUMPI INVALID JUMPDEST SWAP1 PUSH1 0x0 MSTORE PUSH1 0x20 PUSH1 0x0 KECCAK256 ADD PUSH1 0x0 PUSH2 0x100 EXP DUP2 SLOAD DUP2 PUSH1 0x1 PUSH1 0x1 PUSH1 0xA0 SHL SUB MUL NOT AND SWAP1 DUP4 PUSH1 0x1 PUSH1 0x1 PUSH1 0xA0 SHL SUB AND MUL OR SWAP1 SSTORE POP JUMPDEST DUP1 PUSH2 0x1783 JUMPI PUSH1 0x5 DUP5 DUP2 SLOAD DUP2 LT PUSH2 0x1769 JUMPI INVALID JUMPDEST PUSH1 0x0 SWAP2 DUP3 MSTORE PUSH1 0x20 SWAP1 SWAP2 KECCAK256 ADD SLOAD PUSH1 0x1 PUSH1 0x1 PUSH1 0xA0 SHL SUB AND PUSH2 0x1785 JUMP JUMPDEST DUP2 JUMPDEST PUSH1 0x1 PUSH1 0x1 PUSH1 0xA0 SHL SUB AND DUP5 PUSH32 0x95895A6AB1DF54420D241B55243258A33E61B2194DB66C1179EC521AAE8E1865 DUP6 DUP5 PUSH1 0x40 MLOAD PUSH2 0x17C0 SWAP3 SWAP2 SWAP1 PUSH2 0x2F10 JUMP JUMPDEST PUSH1 0x40 MLOAD DUP1 SWAP2 SUB SWAP1 LOG3 POP POP POP POP JUMP JUMPDEST PUSH1 0x0 PUSH32 0x0 PUSH1 0x1 PUSH1 0x1 PUSH1 0xA0 SHL SUB AND PUSH4 0x17CAF6F1 PUSH1 0x40 MLOAD DUP2 PUSH4 0xFFFFFFFF AND PUSH1 0xE0 SHL DUP2 MSTORE PUSH1 0x4 ADD PUSH1 0x20 PUSH1 0x40 MLOAD DUP1 DUP4 SUB DUP2 DUP7 DUP1 EXTCODESIZE ISZERO DUP1 ISZERO PUSH2 0x1829 JUMPI PUSH1 0x0 DUP1 REVERT JUMPDEST POP GAS STATICCALL ISZERO DUP1 ISZERO PUSH2 0x183D JUMPI RETURNDATASIZE PUSH1 0x0 DUP1 RETURNDATACOPY RETURNDATASIZE PUSH1 0x0 REVERT JUMPDEST POP POP POP POP PUSH1 0x40 MLOAD RETURNDATASIZE PUSH1 0x1F NOT PUSH1 0x1F DUP3 ADD AND DUP3 ADD DUP1 PUSH1 0x40 MSTORE POP DUP2 ADD SWAP1 PUSH2 0x1861 SWAP2 SWAP1 PUSH2 0x287F JUMP JUMPDEST PUSH1 0x40 MLOAD PUSH4 0x1526FE27 PUSH1 0xE0 SHL DUP2 MSTORE PUSH2 0x1935 SWAP1 PUSH1 0x1 PUSH1 0x1 PUSH1 0xA0 SHL SUB PUSH32 0x0 AND SWAP1 PUSH4 0x1526FE27 SWAP1 PUSH2 0x18D1 SWAP1 PUSH32 0x0 SWAP1 PUSH1 0x4 ADD PUSH2 0x2ED8 JUMP JUMPDEST PUSH1 0x80 PUSH1 0x40 MLOAD DUP1 DUP4 SUB DUP2 DUP7 DUP1 EXTCODESIZE ISZERO DUP1 ISZERO PUSH2 0x18E9 JUMPI PUSH1 0x0 DUP1 REVERT JUMPDEST POP GAS STATICCALL ISZERO DUP1 ISZERO PUSH2 0x18FD JUMPI RETURNDATASIZE PUSH1 0x0 DUP1 RETURNDATACOPY RETURNDATASIZE PUSH1 0x0 REVERT JUMPDEST POP POP POP POP PUSH1 0x40 MLOAD RETURNDATASIZE PUSH1 0x1F NOT PUSH1 0x1F DUP3 ADD AND DUP3 ADD DUP1 PUSH1 0x40 MSTORE POP DUP2 ADD SWAP1 PUSH2 0x1921 SWAP2 SWAP1 PUSH2 0x2815 JUMP JUMPDEST PUSH1 0x20 ADD MLOAD PUSH9 0x56BC75E2D63100000 SWAP1 PUSH2 0x2179 JUMP JUMPDEST DUP2 PUSH2 0x193C JUMPI INVALID JUMPDEST DIV SWAP1 POP SWAP1 JUMP JUMPDEST PUSH1 0x0 SLOAD PUSH1 0x1 PUSH1 0x1 PUSH1 0xA0 SHL SUB AND DUP2 JUMP JUMPDEST PUSH2 0x1959 PUSH2 0x2575 JUMP JUMPDEST PUSH2 0x1962 DUP5 PUSH2 0x10E6 JUMP JUMPDEST PUSH1 0x0 DUP6 DUP2 MSTORE PUSH1 0x6 PUSH1 0x20 SWAP1 DUP2 MSTORE PUSH1 0x40 DUP1 DUP4 KECCAK256 PUSH1 0x1 PUSH1 0x1 PUSH1 0xA0 SHL SUB DUP8 AND DUP5 MSTORE SWAP1 SWAP2 MSTORE SWAP1 KECCAK256 DUP1 SLOAD SWAP2 SWAP3 POP SWAP1 PUSH2 0x1994 SWAP1 DUP6 PUSH2 0x24AC JUMP JUMPDEST DUP2 SSTORE DUP2 MLOAD PUSH2 0x19CB SWAP1 PUSH5 0xE8D4A51000 SWAP1 PUSH2 0x19B7 SWAP1 DUP8 SWAP1 PUSH1 0x1 PUSH1 0x1 PUSH1 0x80 SHL SUB AND PUSH2 0x2179 JUMP JUMPDEST DUP2 PUSH2 0x19BE JUMPI INVALID JUMPDEST PUSH1 0x1 DUP5 ADD SLOAD SWAP2 SWAP1 DIV PUSH2 0x24CF JUMP JUMPDEST DUP2 PUSH1 0x1 ADD DUP2 SWAP1 SSTORE POP PUSH1 0x0 PUSH1 0x5 DUP7 DUP2 SLOAD DUP2 LT PUSH2 0x19E2 JUMPI INVALID JUMPDEST PUSH1 0x0 SWAP2 DUP3 MSTORE PUSH1 0x20 SWAP1 SWAP2 KECCAK256 ADD SLOAD PUSH1 0x1 PUSH1 0x1 PUSH1 0xA0 SHL SUB AND SWAP1 POP DUP1 ISZERO PUSH2 0x1A68 JUMPI DUP2 SLOAD PUSH1 0x40 MLOAD PUSH4 0x1F56FA8F PUSH1 0xE0 SHL DUP2 MSTORE PUSH1 0x1 PUSH1 0x1 PUSH1 0xA0 SHL SUB DUP4 AND SWAP2 PUSH4 0x1F56FA8F SWAP2 PUSH2 0x1A35 SWAP2 DUP11 SWAP2 DUP10 SWAP2 DUP3 SWAP2 PUSH1 0x0 SWAP2 SWAP1 PUSH1 0x4 ADD PUSH2 0x2EE1 JUMP JUMPDEST PUSH1 0x0 PUSH1 0x40 MLOAD DUP1 DUP4 SUB DUP2 PUSH1 0x0 DUP8 DUP1 EXTCODESIZE ISZERO DUP1 ISZERO PUSH2 0x1A4F JUMPI PUSH1 0x0 DUP1 REVERT JUMPDEST POP GAS CALL ISZERO DUP1 ISZERO PUSH2 0x1A63 JUMPI RETURNDATASIZE PUSH1 0x0 DUP1 RETURNDATACOPY RETURNDATASIZE PUSH1 0x0 REVERT JUMPDEST POP POP POP POP JUMPDEST PUSH2 0x1A98 CALLER ADDRESS DUP8 PUSH1 0x4 DUP11 DUP2 SLOAD DUP2 LT PUSH2 0x1A7B JUMPI INVALID JUMPDEST PUSH1 0x0 SWAP2 DUP3 MSTORE PUSH1 0x20 SWAP1 SWAP2 KECCAK256 ADD SLOAD PUSH1 0x1 PUSH1 0x1 PUSH1 0xA0 SHL SUB AND SWAP3 SWAP2 SWAP1 PUSH2 0x233A JUMP JUMPDEST DUP4 PUSH1 0x1 PUSH1 0x1 PUSH1 0xA0 SHL SUB AND DUP7 CALLER PUSH1 0x1 PUSH1 0x1 PUSH1 0xA0 SHL SUB AND PUSH32 0x2D7E648DD130FC184D383E55BB126AC4C9C60E8F94BF05ACDF557BA2D540B47 DUP9 PUSH1 0x40 MLOAD PUSH2 0x82D SWAP2 SWAP1 PUSH2 0x2ED8 JUMP JUMPDEST PUSH1 0x6 PUSH1 0x20 SWAP1 DUP2 MSTORE PUSH1 0x0 SWAP3 DUP4 MSTORE PUSH1 0x40 DUP1 DUP5 KECCAK256 SWAP1 SWAP2 MSTORE SWAP1 DUP3 MSTORE SWAP1 KECCAK256 DUP1 SLOAD PUSH1 0x1 SWAP1 SWAP2 ADD SLOAD DUP3 JUMP JUMPDEST PUSH1 0x0 SLOAD PUSH1 0x1 PUSH1 0x1 PUSH1 0xA0 SHL SUB AND CALLER EQ PUSH2 0x1B2A JUMPI PUSH1 0x40 MLOAD PUSH3 0x461BCD PUSH1 0xE5 SHL DUP2 MSTORE PUSH1 0x4 ADD PUSH2 0x5E2 SWAP1 PUSH2 0x2D24 JUMP JUMPDEST PUSH1 0x7 SLOAD NUMBER SWAP1 PUSH2 0x1B39 SWAP1 DUP6 PUSH2 0x24AC JUMP JUMPDEST PUSH1 0x7 SSTORE PUSH1 0x4 DUP1 SLOAD PUSH1 0x1 DUP2 DUP2 ADD SWAP1 SWAP3 SSTORE PUSH32 0x8A35ACFBC15FF81A39AE7D344FD709F28E8600B4AA8C65C6B64BFE7FE36BD19B ADD DUP1 SLOAD PUSH1 0x1 PUSH1 0x1 PUSH1 0xA0 SHL SUB DUP1 DUP8 AND PUSH1 0x1 PUSH1 0x1 PUSH1 0xA0 SHL SUB NOT SWAP3 DUP4 AND OR SWAP1 SWAP3 SSTORE PUSH1 0x5 DUP1 SLOAD SWAP4 DUP5 ADD DUP2 SSTORE PUSH1 0x0 SWAP1 DUP2 MSTORE PUSH32 0x36B6384B5ECA791C62761152D0C79BB0604C104A5FB6F4EB0703F3154BB3DB0 SWAP1 SWAP4 ADD DUP1 SLOAD SWAP3 DUP7 AND SWAP3 SWAP1 SWAP2 AND SWAP2 SWAP1 SWAP2 OR SWAP1 SSTORE PUSH1 0x40 DUP1 MLOAD PUSH1 0x60 DUP2 ADD SWAP1 SWAP2 MSTORE SWAP1 DUP2 MSTORE PUSH1 0x3 SWAP1 PUSH1 0x20 DUP2 ADD PUSH2 0x1BE6 DUP5 PUSH2 0x2483 JUMP JUMPDEST PUSH1 0x1 PUSH1 0x1 PUSH1 0x40 SHL SUB AND DUP2 MSTORE PUSH1 0x20 ADD PUSH2 0x1BFD DUP8 PUSH2 0x2483 JUMP JUMPDEST PUSH1 0x1 PUSH1 0x1 PUSH1 0x40 SHL SUB SWAP1 DUP2 AND SWAP1 SWAP2 MSTORE DUP3 SLOAD PUSH1 0x1 DUP2 DUP2 ADD DUP6 SSTORE PUSH1 0x0 SWAP5 DUP6 MSTORE PUSH1 0x20 SWAP5 DUP6 SWAP1 KECCAK256 DUP5 MLOAD SWAP3 ADD DUP1 SLOAD SWAP6 DUP6 ADD MLOAD PUSH1 0x40 SWAP1 SWAP6 ADD MLOAD DUP5 AND PUSH1 0x1 PUSH1 0xC0 SHL MUL PUSH1 0x1 PUSH1 0x1 PUSH1 0xC0 SHL SUB SWAP6 SWAP1 SWAP5 AND PUSH1 0x1 PUSH1 0x80 SHL MUL PUSH8 0xFFFFFFFFFFFFFFFF PUSH1 0x80 SHL NOT PUSH1 0x1 PUSH1 0x1 PUSH1 0x80 SHL SUB SWAP1 SWAP5 AND PUSH1 0x1 PUSH1 0x1 PUSH1 0x80 SHL SUB NOT SWAP1 SWAP8 AND SWAP7 SWAP1 SWAP7 OR SWAP3 SWAP1 SWAP3 AND SWAP5 SWAP1 SWAP5 OR SWAP3 SWAP1 SWAP3 AND OR SWAP1 SSTORE PUSH1 0x4 SLOAD PUSH1 0x1 PUSH1 0x1 PUSH1 0xA0 SHL SUB DUP1 DUP6 AND SWAP3 SWAP1 DUP7 AND SWAP2 PUSH2 0x1C9C SWAP2 PUSH2 0x2203 JUMP JUMPDEST PUSH32 0x81EE0F8C5C46E2CB41984886F77A84181724ABB86C32A5F6DE539B07509D45E5 DUP8 PUSH1 0x40 MLOAD PUSH2 0x1CCB SWAP2 SWAP1 PUSH2 0x2ED8 JUMP JUMPDEST PUSH1 0x40 MLOAD DUP1 SWAP2 SUB SWAP1 LOG4 POP POP POP POP JUMP JUMPDEST PUSH1 0x40 MLOAD PUSH4 0x1C57762B PUSH1 0xE3 SHL DUP2 MSTORE PUSH1 0x1 PUSH1 0x1 PUSH1 0xA0 SHL SUB PUSH32 0x0 AND SWAP1 PUSH4 0xE2BBB158 SWAP1 PUSH2 0x1D48 SWAP1 PUSH32 0x0 SWAP1 PUSH1 0x0 SWAP1 PUSH1 0x4 ADD PUSH2 0x2F20 JUMP JUMPDEST PUSH1 0x0 PUSH1 0x40 MLOAD DUP1 DUP4 SUB DUP2 PUSH1 0x0 DUP8 DUP1 EXTCODESIZE ISZERO DUP1 ISZERO PUSH2 0x1D62 JUMPI PUSH1 0x0 DUP1 REVERT JUMPDEST POP GAS CALL ISZERO DUP1 ISZERO PUSH2 0x158D JUMPI RETURNDATASIZE PUSH1 0x0 DUP1 RETURNDATACOPY RETURNDATASIZE PUSH1 0x0 REVERT JUMPDEST PUSH1 0x5 DUP2 DUP2 SLOAD DUP2 LT PUSH2 0x15C4 JUMPI INVALID JUMPDEST PUSH2 0x1D8B PUSH2 0x2575 JUMP JUMPDEST PUSH2 0x1D94 DUP5 PUSH2 0x10E6 JUMP JUMPDEST PUSH1 0x0 DUP6 DUP2 MSTORE PUSH1 0x6 PUSH1 0x20 SWAP1 DUP2 MSTORE PUSH1 0x40 DUP1 DUP4 KECCAK256 CALLER DUP5 MSTORE SWAP1 SWAP2 MSTORE DUP2 KECCAK256 DUP3 MLOAD DUP2 SLOAD SWAP4 SWAP5 POP SWAP1 SWAP3 PUSH5 0xE8D4A51000 SWAP2 PUSH2 0x1DD0 SWAP2 SWAP1 PUSH1 0x1 PUSH1 0x1 PUSH1 0x80 SHL SUB AND PUSH2 0x2179 JUMP JUMPDEST DUP2 PUSH2 0x1DD7 JUMPI INVALID JUMPDEST DIV SWAP1 POP PUSH1 0x0 PUSH2 0x1DF6 PUSH2 0x8F8 DUP5 PUSH1 0x1 ADD SLOAD DUP5 PUSH2 0x21B6 SWAP1 SWAP2 SWAP1 PUSH4 0xFFFFFFFF AND JUMP JUMPDEST SWAP1 POP PUSH2 0x1E31 PUSH5 0xE8D4A51000 PUSH2 0x1E21 DUP7 PUSH1 0x0 ADD MLOAD PUSH1 0x1 PUSH1 0x1 PUSH1 0x80 SHL SUB AND DUP10 PUSH2 0x2179 SWAP1 SWAP2 SWAP1 PUSH4 0xFFFFFFFF AND JUMP JUMPDEST DUP2 PUSH2 0x1E28 JUMPI INVALID JUMPDEST DUP5 SWAP2 SWAP1 DIV PUSH2 0x21B6 JUMP JUMPDEST PUSH1 0x1 DUP5 ADD SSTORE DUP3 SLOAD PUSH2 0x1E42 SWAP1 DUP8 PUSH2 0x2203 JUMP JUMPDEST DUP4 SSTORE PUSH2 0x1E78 PUSH1 0x1 PUSH1 0x1 PUSH1 0xA0 SHL SUB PUSH32 0x0 AND DUP7 DUP4 PUSH2 0x2226 JUMP JUMPDEST PUSH1 0x0 PUSH1 0x5 DUP9 DUP2 SLOAD DUP2 LT PUSH2 0x1E87 JUMPI INVALID JUMPDEST PUSH1 0x0 SWAP2 DUP3 MSTORE PUSH1 0x20 SWAP1 SWAP2 KECCAK256 ADD SLOAD PUSH1 0x1 PUSH1 0x1 PUSH1 0xA0 SHL SUB AND SWAP1 POP DUP1 ISZERO PUSH2 0x1F0C JUMPI DUP4 SLOAD PUSH1 0x40 MLOAD PUSH4 0x1F56FA8F PUSH1 0xE0 SHL DUP2 MSTORE PUSH1 0x1 PUSH1 0x1 PUSH1 0xA0 SHL SUB DUP4 AND SWAP2 PUSH4 0x1F56FA8F SWAP2 PUSH2 0x1ED9 SWAP2 DUP13 SWAP2 CALLER SWAP2 DUP13 SWAP2 DUP10 SWAP2 SWAP1 PUSH1 0x4 ADD PUSH2 0x2EE1 JUMP JUMPDEST PUSH1 0x0 PUSH1 0x40 MLOAD DUP1 DUP4 SUB DUP2 PUSH1 0x0 DUP8 DUP1 EXTCODESIZE ISZERO DUP1 ISZERO PUSH2 0x1EF3 JUMPI PUSH1 0x0 DUP1 REVERT JUMPDEST POP GAS CALL ISZERO DUP1 ISZERO PUSH2 0x1F07 JUMPI RETURNDATASIZE PUSH1 0x0 DUP1 RETURNDATACOPY RETURNDATASIZE PUSH1 0x0 REVERT JUMPDEST POP POP POP POP JUMPDEST PUSH2 0x1F1E DUP7 DUP9 PUSH1 0x4 DUP12 DUP2 SLOAD DUP2 LT PUSH2 0x7CD JUMPI INVALID JUMPDEST DUP6 PUSH1 0x1 PUSH1 0x1 PUSH1 0xA0 SHL SUB AND DUP9 CALLER PUSH1 0x1 PUSH1 0x1 PUSH1 0xA0 SHL SUB AND PUSH32 0x8166BF25F8A2B7ED3C85049207DA4358D16EDBED977D23FA2EE6F0DDE3EC2132 DUP11 PUSH1 0x40 MLOAD PUSH2 0x1F62 SWAP2 SWAP1 PUSH2 0x2ED8 JUMP JUMPDEST PUSH1 0x40 MLOAD DUP1 SWAP2 SUB SWAP1 LOG4 DUP8 CALLER PUSH1 0x1 PUSH1 0x1 PUSH1 0xA0 SHL SUB AND PUSH32 0x71BAB65CED2E5750775A0613BE067DF48EF06CF92A496EBF7663AE0660924954 DUP5 PUSH1 0x40 MLOAD PUSH2 0x1FA4 SWAP2 SWAP1 PUSH2 0x2ED8 JUMP JUMPDEST PUSH1 0x40 MLOAD DUP1 SWAP2 SUB SWAP1 LOG3 POP POP POP POP POP POP POP POP JUMP JUMPDEST PUSH1 0x60 DUP1 DUP4 PUSH1 0x1 PUSH1 0x1 PUSH1 0x40 SHL SUB DUP2 GT DUP1 ISZERO PUSH2 0x1FCF JUMPI PUSH1 0x0 DUP1 REVERT JUMPDEST POP PUSH1 0x40 MLOAD SWAP1 DUP1 DUP3 MSTORE DUP1 PUSH1 0x20 MUL PUSH1 0x20 ADD DUP3 ADD PUSH1 0x40 MSTORE DUP1 ISZERO PUSH2 0x1FF9 JUMPI DUP2 PUSH1 0x20 ADD PUSH1 0x20 DUP3 MUL DUP1 CALLDATASIZE DUP4 CALLDATACOPY ADD SWAP1 POP JUMPDEST POP SWAP2 POP DUP4 PUSH1 0x1 PUSH1 0x1 PUSH1 0x40 SHL SUB DUP2 GT DUP1 ISZERO PUSH2 0x2012 JUMPI PUSH1 0x0 DUP1 REVERT JUMPDEST POP PUSH1 0x40 MLOAD SWAP1 DUP1 DUP3 MSTORE DUP1 PUSH1 0x20 MUL PUSH1 0x20 ADD DUP3 ADD PUSH1 0x40 MSTORE DUP1 ISZERO PUSH2 0x2046 JUMPI DUP2 PUSH1 0x20 ADD JUMPDEST PUSH1 0x60 DUP2 MSTORE PUSH1 0x20 ADD SWAP1 PUSH1 0x1 SWAP1 SUB SWAP1 DUP2 PUSH2 0x2031 JUMPI SWAP1 POP JUMPDEST POP SWAP1 POP PUSH1 0x0 JUMPDEST DUP5 DUP2 LT ISZERO PUSH2 0x213D JUMPI PUSH1 0x0 PUSH1 0x60 ADDRESS DUP9 DUP9 DUP6 DUP2 DUP2 LT PUSH2 0x2065 JUMPI INVALID JUMPDEST SWAP1 POP PUSH1 0x20 MUL DUP2 ADD SWAP1 PUSH2 0x2077 SWAP2 SWAP1 PUSH2 0x2F58 JUMP JUMPDEST PUSH1 0x40 MLOAD PUSH2 0x2085 SWAP3 SWAP2 SWAP1 PUSH2 0x299E JUMP JUMPDEST PUSH1 0x0 PUSH1 0x40 MLOAD DUP1 DUP4 SUB DUP2 DUP6 GAS DELEGATECALL SWAP2 POP POP RETURNDATASIZE DUP1 PUSH1 0x0 DUP2 EQ PUSH2 0x20C0 JUMPI PUSH1 0x40 MLOAD SWAP2 POP PUSH1 0x1F NOT PUSH1 0x3F RETURNDATASIZE ADD AND DUP3 ADD PUSH1 0x40 MSTORE RETURNDATASIZE DUP3 MSTORE RETURNDATASIZE PUSH1 0x0 PUSH1 0x20 DUP5 ADD RETURNDATACOPY PUSH2 0x20C5 JUMP JUMPDEST PUSH1 0x60 SWAP2 POP JUMPDEST POP SWAP2 POP SWAP2 POP DUP2 DUP1 PUSH2 0x20D4 JUMPI POP DUP6 ISZERO JUMPDEST PUSH2 0x20DD DUP3 PUSH2 0x2515 JUMP JUMPDEST SWAP1 PUSH2 0x20FB JUMPI PUSH1 0x40 MLOAD PUSH3 0x461BCD PUSH1 0xE5 SHL DUP2 MSTORE PUSH1 0x4 ADD PUSH2 0x5E2 SWAP2 SWAP1 PUSH2 0x2AF6 JUMP JUMPDEST POP DUP2 DUP6 DUP5 DUP2 MLOAD DUP2 LT PUSH2 0x2109 JUMPI INVALID JUMPDEST PUSH1 0x20 MUL PUSH1 0x20 ADD ADD SWAP1 ISZERO ISZERO SWAP1 DUP2 ISZERO ISZERO DUP2 MSTORE POP POP DUP1 DUP5 DUP5 DUP2 MLOAD DUP2 LT PUSH2 0x2128 JUMPI INVALID JUMPDEST PUSH1 0x20 SWAP1 DUP2 MUL SWAP2 SWAP1 SWAP2 ADD ADD MSTORE POP POP PUSH1 0x1 ADD PUSH2 0x204C JUMP JUMPDEST POP SWAP4 POP SWAP4 SWAP2 POP POP JUMP JUMPDEST PUSH32 0x0 DUP2 JUMP JUMPDEST PUSH1 0x1 SLOAD PUSH1 0x1 PUSH1 0x1 PUSH1 0xA0 SHL SUB AND DUP2 JUMP JUMPDEST PUSH1 0x0 DUP2 ISZERO DUP1 PUSH2 0x2194 JUMPI POP POP DUP1 DUP3 MUL DUP3 DUP3 DUP3 DUP2 PUSH2 0x2191 JUMPI INVALID JUMPDEST DIV EQ JUMPDEST PUSH2 0x21B0 JUMPI PUSH1 0x40 MLOAD PUSH3 0x461BCD PUSH1 0xE5 SHL DUP2 MSTORE PUSH1 0x4 ADD PUSH2 0x5E2 SWAP1 PUSH2 0x2E3E JUMP JUMPDEST SWAP3 SWAP2 POP POP JUMP JUMPDEST PUSH1 0x0 DUP2 DUP4 SUB DUP2 DUP4 SLT DUP1 ISZERO SWAP1 PUSH2 0x21CB JUMPI POP DUP4 DUP2 SGT ISZERO JUMPDEST DUP1 PUSH2 0x21E0 JUMPI POP PUSH1 0x0 DUP4 SLT DUP1 ISZERO PUSH2 0x21E0 JUMPI POP DUP4 DUP2 SGT JUMPDEST PUSH2 0x21FC JUMPI PUSH1 0x40 MLOAD PUSH3 0x461BCD PUSH1 0xE5 SHL DUP2 MSTORE PUSH1 0x4 ADD PUSH2 0x5E2 SWAP1 PUSH2 0x2DC5 JUMP JUMPDEST SWAP4 SWAP3 POP POP POP JUMP JUMPDEST DUP1 DUP3 SUB DUP3 DUP2 GT ISZERO PUSH2 0x21B0 JUMPI PUSH1 0x40 MLOAD PUSH3 0x461BCD PUSH1 0xE5 SHL DUP2 MSTORE PUSH1 0x4 ADD PUSH2 0x5E2 SWAP1 PUSH2 0x2B09 JUMP JUMPDEST PUSH1 0x0 PUSH1 0x60 DUP5 PUSH1 0x1 PUSH1 0x1 PUSH1 0xA0 SHL SUB AND PUSH4 0xA9059CBB DUP6 DUP6 PUSH1 0x40 MLOAD PUSH1 0x24 ADD PUSH2 0x224C SWAP3 SWAP2 SWAP1 PUSH2 0x2A43 JUMP JUMPDEST PUSH1 0x40 MLOAD PUSH1 0x20 DUP2 DUP4 SUB SUB DUP2 MSTORE SWAP1 PUSH1 0x40 MSTORE SWAP1 PUSH1 0xE0 SHL PUSH1 0x20 DUP3 ADD DUP1 MLOAD PUSH1 0x1 PUSH1 0x1 PUSH1 0xE0 SHL SUB DUP4 DUP2 DUP4 AND OR DUP4 MSTORE POP POP POP POP PUSH1 0x40 MLOAD PUSH2 0x2285 SWAP2 SWAP1 PUSH2 0x29AE JUMP JUMPDEST PUSH1 0x0 PUSH1 0x40 MLOAD DUP1 DUP4 SUB DUP2 PUSH1 0x0 DUP7 GAS CALL SWAP2 POP POP RETURNDATASIZE DUP1 PUSH1 0x0 DUP2 EQ PUSH2 0x22C2 JUMPI PUSH1 0x40 MLOAD SWAP2 POP PUSH1 0x1F NOT PUSH1 0x3F RETURNDATASIZE ADD AND DUP3 ADD PUSH1 0x40 MSTORE RETURNDATASIZE DUP3 MSTORE RETURNDATASIZE PUSH1 0x0 PUSH1 0x20 DUP5 ADD RETURNDATACOPY PUSH2 0x22C7 JUMP JUMPDEST PUSH1 0x60 SWAP2 POP JUMPDEST POP SWAP2 POP SWAP2 POP DUP2 DUP1 ISZERO PUSH2 0x22F1 JUMPI POP DUP1 MLOAD ISZERO DUP1 PUSH2 0x22F1 JUMPI POP DUP1 DUP1 PUSH1 0x20 ADD SWAP1 MLOAD DUP2 ADD SWAP1 PUSH2 0x22F1 SWAP2 SWAP1 PUSH2 0x26AF JUMP JUMPDEST PUSH2 0x230D JUMPI PUSH1 0x40 MLOAD PUSH3 0x461BCD PUSH1 0xE5 SHL DUP2 MSTORE PUSH1 0x4 ADD PUSH2 0x5E2 SWAP1 PUSH2 0x2B5D JUMP JUMPDEST POP POP POP POP POP JUMP JUMPDEST PUSH1 0x0 DUP1 DUP3 SLT ISZERO PUSH2 0x2336 JUMPI PUSH1 0x40 MLOAD PUSH3 0x461BCD PUSH1 0xE5 SHL DUP2 MSTORE PUSH1 0x4 ADD PUSH2 0x5E2 SWAP1 PUSH2 0x2B38 JUMP JUMPDEST POP SWAP1 JUMP JUMPDEST PUSH1 0x0 PUSH1 0x60 DUP6 PUSH1 0x1 PUSH1 0x1 PUSH1 0xA0 SHL SUB AND PUSH4 0x23B872DD DUP7 DUP7 DUP7 PUSH1 0x40 MLOAD PUSH1 0x24 ADD PUSH2 0x2362 SWAP4 SWAP3 SWAP2 SWAP1 PUSH2 0x29DE JUMP JUMPDEST PUSH1 0x40 MLOAD PUSH1 0x20 DUP2 DUP4 SUB SUB DUP2 MSTORE SWAP1 PUSH1 0x40 MSTORE SWAP1 PUSH1 0xE0 SHL PUSH1 0x20 DUP3 ADD DUP1 MLOAD PUSH1 0x1 PUSH1 0x1 PUSH1 0xE0 SHL SUB DUP4 DUP2 DUP4 AND OR DUP4 MSTORE POP POP POP POP PUSH1 0x40 MLOAD PUSH2 0x239B SWAP2 SWAP1 PUSH2 0x29AE JUMP JUMPDEST PUSH1 0x0 PUSH1 0x40 MLOAD DUP1 DUP4 SUB DUP2 PUSH1 0x0 DUP7 GAS CALL SWAP2 POP POP RETURNDATASIZE DUP1 PUSH1 0x0 DUP2 EQ PUSH2 0x23D8 JUMPI PUSH1 0x40 MLOAD SWAP2 POP PUSH1 0x1F NOT PUSH1 0x3F RETURNDATASIZE ADD AND DUP3 ADD PUSH1 0x40 MSTORE RETURNDATASIZE DUP3 MSTORE RETURNDATASIZE PUSH1 0x0 PUSH1 0x20 DUP5 ADD RETURNDATACOPY PUSH2 0x23DD JUMP JUMPDEST PUSH1 0x60 SWAP2 POP JUMPDEST POP SWAP2 POP SWAP2 POP DUP2 DUP1 ISZERO PUSH2 0x2407 JUMPI POP DUP1 MLOAD ISZERO DUP1 PUSH2 0x2407 JUMPI POP DUP1 DUP1 PUSH1 0x20 ADD SWAP1 MLOAD DUP2 ADD SWAP1 PUSH2 0x2407 SWAP2 SWAP1 PUSH2 0x26AF JUMP JUMPDEST PUSH2 0x2423 JUMPI PUSH1 0x40 MLOAD PUSH3 0x461BCD PUSH1 0xE5 SHL DUP2 MSTORE PUSH1 0x4 ADD PUSH2 0x5E2 SWAP1 PUSH2 0x2E09 JUMP JUMPDEST POP POP POP POP POP POP JUMP JUMPDEST PUSH1 0x0 PUSH1 0x1 PUSH1 0x1 PUSH1 0x80 SHL SUB DUP3 GT ISZERO PUSH2 0x2336 JUMPI PUSH1 0x40 MLOAD PUSH3 0x461BCD PUSH1 0xE5 SHL DUP2 MSTORE PUSH1 0x4 ADD PUSH2 0x5E2 SWAP1 PUSH2 0x2CB6 JUMP JUMPDEST DUP2 DUP2 ADD PUSH1 0x1 PUSH1 0x1 PUSH1 0x80 SHL SUB DUP1 DUP4 AND SWAP1 DUP3 AND LT ISZERO PUSH2 0x21B0 JUMPI PUSH1 0x40 MLOAD PUSH3 0x461BCD PUSH1 0xE5 SHL DUP2 MSTORE PUSH1 0x4 ADD PUSH2 0x5E2 SWAP1 PUSH2 0x2CED JUMP JUMPDEST PUSH1 0x0 PUSH1 0x1 PUSH1 0x1 PUSH1 0x40 SHL SUB DUP3 GT ISZERO PUSH2 0x2336 JUMPI PUSH1 0x40 MLOAD PUSH3 0x461BCD PUSH1 0xE5 SHL DUP2 MSTORE PUSH1 0x4 ADD PUSH2 0x5E2 SWAP1 PUSH2 0x2D8E JUMP JUMPDEST DUP2 DUP2 ADD DUP2 DUP2 LT ISZERO PUSH2 0x21B0 JUMPI PUSH1 0x40 MLOAD PUSH3 0x461BCD PUSH1 0xE5 SHL DUP2 MSTORE PUSH1 0x4 ADD PUSH2 0x5E2 SWAP1 PUSH2 0x2CED JUMP JUMPDEST PUSH1 0x0 DUP3 DUP3 ADD DUP2 DUP4 SLT DUP1 ISZERO SWAP1 PUSH2 0x24E4 JUMPI POP DUP4 DUP2 SLT ISZERO JUMPDEST DUP1 PUSH2 0x24F9 JUMPI POP PUSH1 0x0 DUP4 SLT DUP1 ISZERO PUSH2 0x24F9 JUMPI POP DUP4 DUP2 SLT JUMPDEST PUSH2 0x21FC JUMPI PUSH1 0x40 MLOAD PUSH3 0x461BCD PUSH1 0xE5 SHL DUP2 MSTORE PUSH1 0x4 ADD PUSH2 0x5E2 SWAP1 PUSH2 0x2C46 JUMP JUMPDEST PUSH1 0x60 PUSH1 0x44 DUP3 MLOAD LT ISZERO PUSH2 0x255B JUMPI POP PUSH1 0x40 DUP1 MLOAD DUP1 DUP3 ADD SWAP1 SWAP2 MSTORE PUSH1 0x1D DUP2 MSTORE PUSH32 0x5472616E73616374696F6E2072657665727465642073696C656E746C79000000 PUSH1 0x20 DUP3 ADD MSTORE PUSH2 0x1368 JUMP JUMPDEST PUSH1 0x4 DUP3 ADD SWAP2 POP DUP2 DUP1 PUSH1 0x20 ADD SWAP1 MLOAD DUP2 ADD SWAP1 PUSH2 0x21B0 SWAP2 SWAP1 PUSH2 0x278A JUMP JUMPDEST PUSH1 0x40 DUP1 MLOAD PUSH1 0x60 DUP2 ADD DUP3 MSTORE PUSH1 0x0 DUP1 DUP3 MSTORE PUSH1 0x20 DUP3 ADD DUP2 SWAP1 MSTORE SWAP2 DUP2 ADD SWAP2 SWAP1 SWAP2 MSTORE SWAP1 JUMP JUMPDEST PUSH1 0x0 DUP1 DUP4 PUSH1 0x1F DUP5 ADD SLT PUSH2 0x25A6 JUMPI DUP2 DUP3 REVERT JUMPDEST POP DUP2 CALLDATALOAD PUSH1 0x1 PUSH1 0x1 PUSH1 0x40 SHL SUB DUP2 GT ISZERO PUSH2 0x25BC JUMPI DUP2 DUP3 REVERT JUMPDEST PUSH1 0x20 DUP4 ADD SWAP2 POP DUP4 PUSH1 0x20 DUP1 DUP4 MUL DUP6 ADD ADD GT ISZERO PUSH2 0x25D6 JUMPI PUSH1 0x0 DUP1 REVERT JUMPDEST SWAP3 POP SWAP3 SWAP1 POP JUMP JUMPDEST PUSH1 0x0 DUP1 PUSH1 0x0 PUSH1 0x60 DUP5 DUP7 SUB SLT ISZERO PUSH2 0x25F1 JUMPI DUP3 DUP4 REVERT JUMPDEST DUP4 CALLDATALOAD PUSH2 0x25FC DUP2 PUSH2 0x2FEE JUMP JUMPDEST SWAP3 POP PUSH1 0x20 DUP5 ADD CALLDATALOAD PUSH2 0x260C DUP2 PUSH2 0x3006 JUMP JUMPDEST SWAP2 POP PUSH1 0x40 DUP5 ADD CALLDATALOAD PUSH2 0x261C DUP2 PUSH2 0x3006 JUMP JUMPDEST DUP1 SWAP2 POP POP SWAP3 POP SWAP3 POP SWAP3 JUMP JUMPDEST PUSH1 0x0 DUP1 PUSH1 0x0 PUSH1 0x40 DUP5 DUP7 SUB SLT ISZERO PUSH2 0x263B JUMPI DUP3 DUP4 REVERT JUMPDEST DUP4 CALLDATALOAD PUSH1 0x1 PUSH1 0x1 PUSH1 0x40 SHL SUB DUP2 GT ISZERO PUSH2 0x2650 JUMPI DUP4 DUP5 REVERT JUMPDEST PUSH2 0x265C DUP7 DUP3 DUP8 ADD PUSH2 0x2595 JUMP JUMPDEST SWAP1 SWAP5 POP SWAP3 POP POP PUSH1 0x20 DUP5 ADD CALLDATALOAD PUSH2 0x261C DUP2 PUSH2 0x3006 JUMP JUMPDEST PUSH1 0x0 DUP1 PUSH1 0x20 DUP4 DUP6 SUB SLT ISZERO PUSH2 0x2682 JUMPI DUP2 DUP3 REVERT JUMPDEST DUP3 CALLDATALOAD PUSH1 0x1 PUSH1 0x1 PUSH1 0x40 SHL SUB DUP2 GT ISZERO PUSH2 0x2697 JUMPI DUP3 DUP4 REVERT JUMPDEST PUSH2 0x26A3 DUP6 DUP3 DUP7 ADD PUSH2 0x2595 JUMP JUMPDEST SWAP1 SWAP7 SWAP1 SWAP6 POP SWAP4 POP POP POP POP JUMP JUMPDEST PUSH1 0x0 PUSH1 0x20 DUP3 DUP5 SUB SLT ISZERO PUSH2 0x26C0 JUMPI DUP1 DUP2 REVERT JUMPDEST DUP2 MLOAD PUSH2 0x21FC DUP2 PUSH2 0x3006 JUMP JUMPDEST PUSH1 0x0 PUSH1 0x20 DUP3 DUP5 SUB SLT ISZERO PUSH2 0x26DC JUMPI DUP1 DUP2 REVERT JUMPDEST DUP2 CALLDATALOAD PUSH2 0x21FC DUP2 PUSH2 0x2FEE JUMP JUMPDEST PUSH1 0x0 PUSH1 0x20 DUP3 DUP5 SUB SLT ISZERO PUSH2 0x26F8 JUMPI DUP1 DUP2 REVERT JUMPDEST DUP2 MLOAD PUSH2 0x21FC DUP2 PUSH2 0x2FEE JUMP JUMPDEST PUSH1 0x0 DUP1 PUSH1 0x0 DUP1 PUSH1 0x0 DUP1 PUSH1 0x0 DUP1 PUSH2 0x100 DUP10 DUP12 SUB SLT ISZERO PUSH2 0x271F JUMPI DUP4 DUP5 REVERT JUMPDEST DUP9 CALLDATALOAD PUSH2 0x272A DUP2 PUSH2 0x2FEE JUMP JUMPDEST SWAP8 POP PUSH1 0x20 DUP10 ADD CALLDATALOAD PUSH2 0x273A DUP2 PUSH2 0x2FEE JUMP JUMPDEST SWAP7 POP PUSH1 0x40 DUP10 ADD CALLDATALOAD PUSH2 0x274A DUP2 PUSH2 0x2FEE JUMP JUMPDEST SWAP6 POP PUSH1 0x60 DUP10 ADD CALLDATALOAD SWAP5 POP PUSH1 0x80 DUP10 ADD CALLDATALOAD SWAP4 POP PUSH1 0xA0 DUP10 ADD CALLDATALOAD PUSH1 0xFF DUP2 AND DUP2 EQ PUSH2 0x276D JUMPI DUP4 DUP5 REVERT JUMPDEST SWAP8 SWAP11 SWAP7 SWAP10 POP SWAP5 SWAP8 SWAP4 SWAP7 SWAP3 SWAP6 SWAP3 SWAP5 POP POP POP PUSH1 0xC0 DUP3 ADD CALLDATALOAD SWAP2 PUSH1 0xE0 ADD CALLDATALOAD SWAP1 JUMP JUMPDEST PUSH1 0x0 PUSH1 0x20 DUP3 DUP5 SUB SLT ISZERO PUSH2 0x279B JUMPI DUP1 DUP2 REVERT JUMPDEST DUP2 MLOAD PUSH1 0x1 PUSH1 0x1 PUSH1 0x40 SHL SUB DUP1 DUP3 GT ISZERO PUSH2 0x27B1 JUMPI DUP3 DUP4 REVERT JUMPDEST DUP2 DUP5 ADD SWAP2 POP DUP5 PUSH1 0x1F DUP4 ADD SLT PUSH2 0x27C4 JUMPI DUP3 DUP4 REVERT JUMPDEST DUP2 MLOAD DUP2 DUP2 GT ISZERO PUSH2 0x27D2 JUMPI DUP4 DUP5 REVERT JUMPDEST PUSH2 0x27E5 PUSH1 0x1F DUP3 ADD PUSH1 0x1F NOT AND PUSH1 0x20 ADD PUSH2 0x2F9C JUMP JUMPDEST SWAP2 POP DUP1 DUP3 MSTORE DUP6 PUSH1 0x20 DUP3 DUP6 ADD ADD GT ISZERO PUSH2 0x27FB JUMPI DUP4 DUP5 REVERT JUMPDEST PUSH2 0x280C DUP2 PUSH1 0x20 DUP5 ADD PUSH1 0x20 DUP7 ADD PUSH2 0x2FC2 JUMP JUMPDEST POP SWAP5 SWAP4 POP POP POP POP JUMP JUMPDEST PUSH1 0x0 PUSH1 0x80 DUP3 DUP5 SUB SLT ISZERO PUSH2 0x2826 JUMPI DUP1 DUP2 REVERT JUMPDEST PUSH2 0x2830 PUSH1 0x80 PUSH2 0x2F9C JUMP JUMPDEST DUP3 MLOAD PUSH2 0x283B DUP2 PUSH2 0x2FEE JUMP JUMPDEST DUP1 DUP3 MSTORE POP PUSH1 0x20 DUP4 ADD MLOAD PUSH1 0x20 DUP3 ADD MSTORE PUSH1 0x40 DUP4 ADD MLOAD PUSH1 0x40 DUP3 ADD MSTORE PUSH1 0x60 DUP4 ADD MLOAD PUSH1 0x60 DUP3 ADD MSTORE DUP1 SWAP2 POP POP SWAP3 SWAP2 POP POP JUMP JUMPDEST PUSH1 0x0 PUSH1 0x20 DUP3 DUP5 SUB SLT ISZERO PUSH2 0x2878 JUMPI DUP1 DUP2 REVERT JUMPDEST POP CALLDATALOAD SWAP2 SWAP1 POP JUMP JUMPDEST PUSH1 0x0 PUSH1 0x20 DUP3 DUP5 SUB SLT ISZERO PUSH2 0x2890 JUMPI DUP1 DUP2 REVERT JUMPDEST POP MLOAD SWAP2 SWAP1 POP JUMP JUMPDEST PUSH1 0x0 DUP1 PUSH1 0x40 DUP4 DUP6 SUB SLT ISZERO PUSH2 0x28A9 JUMPI DUP2 DUP3 REVERT JUMPDEST DUP3 CALLDATALOAD SWAP2 POP PUSH1 0x20 DUP4 ADD CALLDATALOAD PUSH2 0x28BB DUP2 PUSH2 0x2FEE JUMP JUMPDEST DUP1 SWAP2 POP POP SWAP3 POP SWAP3 SWAP1 POP JUMP JUMPDEST PUSH1 0x0 DUP1 PUSH1 0x0 PUSH1 0x60 DUP5 DUP7 SUB SLT ISZERO PUSH2 0x28DA JUMPI DUP1 DUP2 REVERT JUMPDEST DUP4 CALLDATALOAD SWAP3 POP PUSH1 0x20 DUP5 ADD CALLDATALOAD PUSH2 0x28EC DUP2 PUSH2 0x2FEE JUMP JUMPDEST SWAP2 POP PUSH1 0x40 DUP5 ADD CALLDATALOAD PUSH2 0x261C DUP2 PUSH2 0x2FEE JUMP JUMPDEST PUSH1 0x0 DUP1 PUSH1 0x0 PUSH1 0x60 DUP5 DUP7 SUB SLT ISZERO PUSH2 0x2910 JUMPI DUP1 DUP2 REVERT JUMPDEST DUP4 CALLDATALOAD SWAP3 POP PUSH1 0x20 DUP5 ADD CALLDATALOAD SWAP2 POP PUSH1 0x40 DUP5 ADD CALLDATALOAD PUSH2 0x261C DUP2 PUSH2 0x2FEE JUMP JUMPDEST PUSH1 0x0 DUP1 PUSH1 0x0 DUP1 PUSH1 0x80 DUP6 DUP8 SUB SLT ISZERO PUSH2 0x293E JUMPI DUP2 DUP3 REVERT JUMPDEST DUP5 CALLDATALOAD SWAP4 POP PUSH1 0x20 DUP6 ADD CALLDATALOAD SWAP3 POP PUSH1 0x40 DUP6 ADD CALLDATALOAD PUSH2 0x2957 DUP2 PUSH2 0x2FEE JUMP JUMPDEST SWAP2 POP PUSH1 0x60 DUP6 ADD CALLDATALOAD PUSH2 0x2967 DUP2 PUSH2 0x3006 JUMP JUMPDEST SWAP4 SWAP7 SWAP3 SWAP6 POP SWAP1 SWAP4 POP POP JUMP JUMPDEST PUSH1 0x0 DUP2 MLOAD DUP1 DUP5 MSTORE PUSH2 0x298A DUP2 PUSH1 0x20 DUP7 ADD PUSH1 0x20 DUP7 ADD PUSH2 0x2FC2 JUMP JUMPDEST PUSH1 0x1F ADD PUSH1 0x1F NOT AND SWAP3 SWAP1 SWAP3 ADD PUSH1 0x20 ADD SWAP3 SWAP2 POP POP JUMP JUMPDEST PUSH1 0x0 DUP3 DUP5 DUP4 CALLDATACOPY SWAP2 ADD SWAP1 DUP2 MSTORE SWAP2 SWAP1 POP JUMP JUMPDEST PUSH1 0x0 DUP3 MLOAD PUSH2 0x29C0 DUP2 DUP5 PUSH1 0x20 DUP8 ADD PUSH2 0x2FC2 JUMP JUMPDEST SWAP2 SWAP1 SWAP2 ADD SWAP3 SWAP2 POP POP JUMP JUMPDEST PUSH1 0x1 PUSH1 0x1 PUSH1 0xA0 SHL SUB SWAP2 SWAP1 SWAP2 AND DUP2 MSTORE PUSH1 0x20 ADD SWAP1 JUMP JUMPDEST PUSH1 0x1 PUSH1 0x1 PUSH1 0xA0 SHL SUB SWAP4 DUP5 AND DUP2 MSTORE SWAP2 SWAP1 SWAP3 AND PUSH1 0x20 DUP3 ADD MSTORE PUSH1 0x40 DUP2 ADD SWAP2 SWAP1 SWAP2 MSTORE PUSH1 0x60 ADD SWAP1 JUMP JUMPDEST PUSH1 0x1 PUSH1 0x1 PUSH1 0xA0 SHL SUB SWAP8 DUP9 AND DUP2 MSTORE SWAP6 SWAP1 SWAP7 AND PUSH1 0x20 DUP7 ADD MSTORE PUSH1 0x40 DUP6 ADD SWAP4 SWAP1 SWAP4 MSTORE PUSH1 0x60 DUP5 ADD SWAP2 SWAP1 SWAP2 MSTORE PUSH1 0xFF AND PUSH1 0x80 DUP4 ADD MSTORE PUSH1 0xA0 DUP3 ADD MSTORE PUSH1 0xC0 DUP2 ADD SWAP2 SWAP1 SWAP2 MSTORE PUSH1 0xE0 ADD SWAP1 JUMP JUMPDEST PUSH1 0x1 PUSH1 0x1 PUSH1 0xA0 SHL SUB SWAP3 SWAP1 SWAP3 AND DUP3 MSTORE PUSH1 0x20 DUP3 ADD MSTORE PUSH1 0x40 ADD SWAP1 JUMP JUMPDEST PUSH1 0x40 DUP1 DUP3 MSTORE DUP4 MLOAD SWAP1 DUP3 ADD DUP2 SWAP1 MSTORE PUSH1 0x0 SWAP1 PUSH1 0x20 SWAP1 PUSH1 0x60 DUP5 ADD SWAP1 DUP3 DUP8 ADD DUP5 JUMPDEST DUP3 DUP2 LT ISZERO PUSH2 0x2A97 JUMPI DUP2 MLOAD ISZERO ISZERO DUP5 MSTORE SWAP3 DUP5 ADD SWAP3 SWAP1 DUP5 ADD SWAP1 PUSH1 0x1 ADD PUSH2 0x2A79 JUMP JUMPDEST POP POP POP DUP4 DUP2 SUB DUP3 DUP6 ADD MSTORE DUP1 DUP6 MLOAD PUSH2 0x2AAE DUP2 DUP5 PUSH2 0x2ED8 JUMP JUMPDEST SWAP2 POP DUP2 SWAP3 POP DUP4 DUP2 MUL DUP3 ADD DUP5 DUP9 ADD DUP7 JUMPDEST DUP4 DUP2 LT ISZERO PUSH2 0x2AE7 JUMPI DUP6 DUP4 SUB DUP6 MSTORE PUSH2 0x2AD5 DUP4 DUP4 MLOAD PUSH2 0x2972 JUMP JUMPDEST SWAP5 DUP8 ADD SWAP5 SWAP3 POP SWAP1 DUP7 ADD SWAP1 PUSH1 0x1 ADD PUSH2 0x2ABD JUMP JUMPDEST POP SWAP1 SWAP10 SWAP9 POP POP POP POP POP POP POP POP POP JUMP JUMPDEST PUSH1 0x0 PUSH1 0x20 DUP3 MSTORE PUSH2 0x21FC PUSH1 0x20 DUP4 ADD DUP5 PUSH2 0x2972 JUMP JUMPDEST PUSH1 0x20 DUP1 DUP3 MSTORE PUSH1 0x15 SWAP1 DUP3 ADD MSTORE PUSH21 0x426F72696E674D6174683A20556E646572666C6F77 PUSH1 0x58 SHL PUSH1 0x40 DUP3 ADD MSTORE PUSH1 0x60 ADD SWAP1 JUMP JUMPDEST PUSH1 0x20 DUP1 DUP3 MSTORE PUSH1 0xB SWAP1 DUP3 ADD MSTORE PUSH11 0x496E7465676572203C203 PUSH1 0xAC SHL PUSH1 0x40 DUP3 ADD MSTORE PUSH1 0x60 ADD SWAP1 JUMP JUMPDEST PUSH1 0x20 DUP1 DUP3 MSTORE PUSH1 0x1C SWAP1 DUP3 ADD MSTORE PUSH32 0x426F72696E6745524332303A205472616E73666572206661696C656400000000 PUSH1 0x40 DUP3 ADD MSTORE PUSH1 0x60 ADD SWAP1 JUMP JUMPDEST PUSH1 0x20 DUP1 DUP3 MSTORE DUP2 DUP2 ADD MSTORE PUSH32 0x4D616D6150757456323A2042616C616E6365206D757374206578636565642030 PUSH1 0x40 DUP3 ADD MSTORE PUSH1 0x60 ADD SWAP1 JUMP JUMPDEST PUSH1 0x20 DUP1 DUP3 MSTORE PUSH1 0x1A SWAP1 DUP3 ADD MSTORE PUSH32 0x4D616D6150757456323A206E6F206D69677261746F7220736574000000000000 PUSH1 0x40 DUP3 ADD MSTORE PUSH1 0x60 ADD SWAP1 JUMP JUMPDEST PUSH1 0x20 DUP1 DUP3 MSTORE PUSH1 0x26 SWAP1 DUP3 ADD MSTORE PUSH32 0x4D616D6150757456323A206D696772617465642062616C616E6365206D757374 PUSH1 0x40 DUP3 ADD MSTORE PUSH6 0x40DAC2E8C6D PUSH1 0xD3 SHL PUSH1 0x60 DUP3 ADD MSTORE PUSH1 0x80 ADD SWAP1 JUMP JUMPDEST PUSH1 0x20 DUP1 DUP3 MSTORE PUSH1 0x21 SWAP1 DUP3 ADD MSTORE PUSH32 0x5369676E6564536166654D6174683A206164646974696F6E206F766572666C6F PUSH1 0x40 DUP3 ADD MSTORE PUSH1 0x77 PUSH1 0xF8 SHL PUSH1 0x60 DUP3 ADD MSTORE PUSH1 0x80 ADD SWAP1 JUMP JUMPDEST PUSH1 0x20 DUP1 DUP3 MSTORE PUSH1 0x15 SWAP1 DUP3 ADD MSTORE PUSH21 0x4F776E61626C653A207A65726F2061646472657373 PUSH1 0x58 SHL PUSH1 0x40 DUP3 ADD MSTORE PUSH1 0x60 ADD SWAP1 JUMP JUMPDEST PUSH1 0x20 DUP1 DUP3 MSTORE PUSH1 0x1C SWAP1 DUP3 ADD MSTORE PUSH32 0x426F72696E674D6174683A2075696E74313238204F766572666C6F7700000000 PUSH1 0x40 DUP3 ADD MSTORE PUSH1 0x60 ADD SWAP1 JUMP JUMPDEST PUSH1 0x20 DUP1 DUP3 MSTORE PUSH1 0x18 SWAP1 DUP3 ADD MSTORE PUSH32 0x426F72696E674D6174683A20416464204F766572666C6F770000000000000000 PUSH1 0x40 DUP3 ADD MSTORE PUSH1 0x60 ADD SWAP1 JUMP JUMPDEST PUSH1 0x20 DUP1 DUP3 MSTORE DUP2 DUP2 ADD MSTORE PUSH32 0x4F776E61626C653A2063616C6C6572206973206E6F7420746865206F776E6572 PUSH1 0x40 DUP3 ADD MSTORE PUSH1 0x60 ADD SWAP1 JUMP JUMPDEST PUSH1 0x20 DUP1 DUP3 MSTORE DUP2 DUP2 ADD MSTORE PUSH32 0x4F776E61626C653A2063616C6C657220213D2070656E64696E67206F776E6572 PUSH1 0x40 DUP3 ADD MSTORE PUSH1 0x60 ADD SWAP1 JUMP JUMPDEST PUSH1 0x20 DUP1 DUP3 MSTORE PUSH1 0x1B SWAP1 DUP3 ADD MSTORE PUSH32 0x426F72696E674D6174683A2075696E743634204F766572666C6F770000000000 PUSH1 0x40 DUP3 ADD MSTORE PUSH1 0x60 ADD SWAP1 JUMP JUMPDEST PUSH1 0x20 DUP1 DUP3 MSTORE PUSH1 0x24 SWAP1 DUP3 ADD MSTORE PUSH32 0x5369676E6564536166654D6174683A207375627472616374696F6E206F766572 PUSH1 0x40 DUP3 ADD MSTORE PUSH4 0x666C6F77 PUSH1 0xE0 SHL PUSH1 0x60 DUP3 ADD MSTORE PUSH1 0x80 ADD SWAP1 JUMP JUMPDEST PUSH1 0x20 DUP1 DUP3 MSTORE DUP2 DUP2 ADD MSTORE PUSH32 0x426F72696E6745524332303A205472616E7366657246726F6D206661696C6564 PUSH1 0x40 DUP3 ADD MSTORE PUSH1 0x60 ADD SWAP1 JUMP JUMPDEST PUSH1 0x20 DUP1 DUP3 MSTORE PUSH1 0x18 SWAP1 DUP3 ADD MSTORE PUSH32 0x426F72696E674D6174683A204D756C204F766572666C6F770000000000000000 PUSH1 0x40 DUP3 ADD MSTORE PUSH1 0x60 ADD SWAP1 JUMP JUMPDEST DUP2 MLOAD PUSH1 0x1 PUSH1 0x1 PUSH1 0x80 SHL SUB AND DUP2 MSTORE PUSH1 0x20 DUP1 DUP4 ADD MLOAD PUSH1 0x1 PUSH1 0x1 PUSH1 0x40 SHL SUB SWAP1 DUP2 AND SWAP2 DUP4 ADD SWAP2 SWAP1 SWAP2 MSTORE PUSH1 0x40 SWAP3 DUP4 ADD MLOAD AND SWAP2 DUP2 ADD SWAP2 SWAP1 SWAP2 MSTORE PUSH1 0x60 ADD SWAP1 JUMP JUMPDEST PUSH1 0x1 PUSH1 0x1 PUSH1 0x80 SHL SUB SWAP4 SWAP1 SWAP4 AND DUP4 MSTORE PUSH1 0x1 PUSH1 0x1 PUSH1 0x40 SHL SUB SWAP2 DUP3 AND PUSH1 0x20 DUP5 ADD MSTORE AND PUSH1 0x40 DUP3 ADD MSTORE PUSH1 0x60 ADD SWAP1 JUMP JUMPDEST SWAP1 DUP2 MSTORE PUSH1 0x20 ADD SWAP1 JUMP JUMPDEST SWAP5 DUP6 MSTORE PUSH1 0x1 PUSH1 0x1 PUSH1 0xA0 SHL SUB SWAP4 DUP5 AND PUSH1 0x20 DUP7 ADD MSTORE SWAP2 SWAP1 SWAP3 AND PUSH1 0x40 DUP5 ADD MSTORE PUSH1 0x60 DUP4 ADD SWAP2 SWAP1 SWAP2 MSTORE PUSH1 0x80 DUP3 ADD MSTORE PUSH1 0xA0 ADD SWAP1 JUMP JUMPDEST SWAP2 DUP3 MSTORE ISZERO ISZERO PUSH1 0x20 DUP3 ADD MSTORE PUSH1 0x40 ADD SWAP1 JUMP JUMPDEST SWAP2 DUP3 MSTORE PUSH1 0x20 DUP3 ADD MSTORE PUSH1 0x40 ADD SWAP1 JUMP JUMPDEST PUSH1 0x1 PUSH1 0x1 PUSH1 0x40 SHL SUB SWAP4 SWAP1 SWAP4 AND DUP4 MSTORE PUSH1 0x20 DUP4 ADD SWAP2 SWAP1 SWAP2 MSTORE PUSH1 0x1 PUSH1 0x1 PUSH1 0x80 SHL SUB AND PUSH1 0x40 DUP3 ADD MSTORE PUSH1 0x60 ADD SWAP1 JUMP JUMPDEST PUSH1 0x0 DUP1 DUP4 CALLDATALOAD PUSH1 0x1E NOT DUP5 CALLDATASIZE SUB ADD DUP2 SLT PUSH2 0x2F6E JUMPI DUP3 DUP4 REVERT JUMPDEST DUP4 ADD DUP1 CALLDATALOAD SWAP2 POP PUSH1 0x1 PUSH1 0x1 PUSH1 0x40 SHL SUB DUP3 GT ISZERO PUSH2 0x2F87 JUMPI DUP3 DUP4 REVERT JUMPDEST PUSH1 0x20 ADD SWAP2 POP CALLDATASIZE DUP2 SWAP1 SUB DUP3 SGT ISZERO PUSH2 0x25D6 JUMPI PUSH1 0x0 DUP1 REVERT JUMPDEST PUSH1 0x40 MLOAD DUP2 DUP2 ADD PUSH1 0x1 PUSH1 0x1 PUSH1 0x40 SHL SUB DUP2 GT DUP3 DUP3 LT OR ISZERO PUSH2 0x2FBA JUMPI PUSH1 0x0 DUP1 REVERT JUMPDEST PUSH1 0x40 MSTORE SWAP2 SWAP1 POP JUMP JUMPDEST PUSH1 0x0 JUMPDEST DUP4 DUP2 LT ISZERO PUSH2 0x2FDD JUMPI DUP2 DUP2 ADD MLOAD DUP4 DUP3 ADD MSTORE PUSH1 0x20 ADD PUSH2 0x2FC5 JUMP JUMPDEST DUP4 DUP2 GT ISZERO PUSH2 0x158D JUMPI POP POP PUSH1 0x0 SWAP2 ADD MSTORE JUMP JUMPDEST PUSH1 0x1 PUSH1 0x1 PUSH1 0xA0 SHL SUB DUP2 AND DUP2 EQ PUSH2 0x3003 JUMPI PUSH1 0x0 DUP1 REVERT JUMPDEST POP JUMP JUMPDEST DUP1 ISZERO ISZERO DUP2 EQ PUSH2 0x3003 JUMPI PUSH1 0x0 DUP1 REVERT INVALID LOG2 PUSH5 0x6970667358 0x22 SLT KECCAK256 CALLER BALANCE 0xC7 RETURNDATASIZE 0xD9 0xC2 0x2A ORIGIN DUP11 0xBE 0xA8 0xC3 0x23 0x2C CREATE2 0xF7 PUSH16 0xF0B91ADCC4C4298C1FE3D019D52D1864 PUSH20 0x6F6C634300060C00330000000000000000000000 "
        },
        "gasEstimates": {
          "creation": {
            "codeDepositCost": "2472400",
            "executionCost": "infinite",
            "totalCost": "infinite"
          },
          "external": {
            "JOLLOF()": "infinite",
            "MAMA_PUT()": "infinite",
            "MASTER_PID()": "infinite",
            "add(uint256,address,address)": "infinite",
            "batch(bytes[],bool)": "infinite",
            "claimOwnership()": "45067",
            "deposit(uint256,uint256,address)": "infinite",
            "emergencyWithdraw(uint256,address)": "infinite",
            "harvest(uint256,address)": "infinite",
            "harvestFromMamaPut()": "infinite",
            "init(address)": "infinite",
            "jollofPerBlock()": "infinite",
            "lpToken(uint256)": "2106",
            "massUpdatePools(uint256[])": "infinite",
            "migrate(uint256)": "infinite",
            "migrator()": "1182",
            "owner()": "1159",
            "pendingJollof(uint256,address)": "infinite",
            "pendingOwner()": "1180",
            "permitToken(address,address,address,uint256,uint256,uint8,bytes32,bytes32)": "infinite",
            "poolInfo(uint256)": "2233",
            "poolLength()": "1119",
            "rewarder(uint256)": "2149",
            "set(uint256,uint256,address,bool)": "infinite",
            "setMigrator(address)": "22073",
            "totalAllocPoint()": "1118",
            "transferOwnership(address,bool,bool)": "infinite",
            "updatePool(uint256)": "infinite",
            "userInfo(uint256,address)": "2227",
            "withdraw(uint256,uint256,address)": "infinite",
            "withdrawAndHarvest(uint256,uint256,address)": "infinite"
          }
        },
        "methodIdentifiers": {
          "JOLLOF()": "03c02f45",
          "MAMA_PUT()": "db32da84",
          "MASTER_PID()": "61621aaa",
          "add(uint256,address,address)": "ab7de098",
          "batch(bytes[],bool)": "d2423b51",
          "claimOwnership()": "4e71e0c8",
          "deposit(uint256,uint256,address)": "8dbdbe6d",
          "emergencyWithdraw(uint256,address)": "2f940c70",
          "harvest(uint256,address)": "18fccc76",
          "harvestFromMamaPut()": "c0e795f3",
          "init(address)": "19ab453c",
          "jollofPerBlock()": "8d4de797",
          "lpToken(uint256)": "78ed5d1f",
          "massUpdatePools(uint256[])": "57a5b58c",
          "migrate(uint256)": "454b0608",
          "migrator()": "7cd07e47",
          "owner()": "8da5cb5b",
          "pendingJollof(uint256,address)": "56a3b645",
          "pendingOwner()": "e30c3978",
          "permitToken(address,address,address,uint256,uint256,uint8,bytes32,bytes32)": "7c516e94",
          "poolInfo(uint256)": "1526fe27",
          "poolLength()": "081e3eda",
          "rewarder(uint256)": "c346253d",
          "set(uint256,uint256,address,bool)": "88bba42f",
          "setMigrator(address)": "23cf3118",
          "totalAllocPoint()": "17caf6f1",
          "transferOwnership(address,bool,bool)": "078dfbe7",
          "updatePool(uint256)": "51eb05a6",
          "userInfo(uint256,address)": "93f1a40b",
          "withdraw(uint256,uint256,address)": "0ad58d2f",
          "withdrawAndHarvest(uint256,uint256,address)": "d1abb907"
        }
      },
      "storageLayout": {
        "storage": [
          {
            "astId": 149,
            "contract": "contracts/MamaPutV2.sol:MamaPutV2",
            "label": "owner",
            "offset": 0,
            "slot": "0",
            "type": "t_address"
          },
          {
            "astId": 151,
            "contract": "contracts/MamaPutV2.sol:MamaPutV2",
            "label": "pendingOwner",
            "offset": 0,
            "slot": "1",
            "type": "t_address"
          },
          {
            "astId": 898,
            "contract": "contracts/MamaPutV2.sol:MamaPutV2",
            "label": "migrator",
            "offset": 0,
            "slot": "2",
            "type": "t_contract(IMigratorChef)858"
          },
          {
            "astId": 902,
            "contract": "contracts/MamaPutV2.sol:MamaPutV2",
            "label": "poolInfo",
            "offset": 0,
            "slot": "3",
            "type": "t_array(t_struct(PoolInfo)887_storage)dyn_storage"
          },
          {
            "astId": 906,
            "contract": "contracts/MamaPutV2.sol:MamaPutV2",
            "label": "lpToken",
            "offset": 0,
            "slot": "4",
            "type": "t_array(t_contract(IERC20)337)dyn_storage"
          },
          {
            "astId": 910,
            "contract": "contracts/MamaPutV2.sol:MamaPutV2",
            "label": "rewarder",
            "offset": 0,
            "slot": "5",
            "type": "t_array(t_contract(IRewarder)2167)dyn_storage"
          },
          {
            "astId": 917,
            "contract": "contracts/MamaPutV2.sol:MamaPutV2",
            "label": "userInfo",
            "offset": 0,
            "slot": "6",
            "type": "t_mapping(t_uint256,t_mapping(t_address,t_struct(UserInfo)880_storage))"
          },
          {
            "astId": 920,
            "contract": "contracts/MamaPutV2.sol:MamaPutV2",
            "label": "totalAllocPoint",
            "offset": 0,
            "slot": "7",
            "type": "t_uint256"
          }
        ],
        "types": {
          "t_address": {
            "encoding": "inplace",
            "label": "address",
            "numberOfBytes": "20"
          },
          "t_array(t_contract(IERC20)337)dyn_storage": {
            "base": "t_contract(IERC20)337",
            "encoding": "dynamic_array",
            "label": "contract IERC20[]",
            "numberOfBytes": "32"
          },
          "t_array(t_contract(IRewarder)2167)dyn_storage": {
            "base": "t_contract(IRewarder)2167",
            "encoding": "dynamic_array",
            "label": "contract IRewarder[]",
            "numberOfBytes": "32"
          },
          "t_array(t_struct(PoolInfo)887_storage)dyn_storage": {
            "base": "t_struct(PoolInfo)887_storage",
            "encoding": "dynamic_array",
            "label": "struct MamaPutV2.PoolInfo[]",
            "numberOfBytes": "32"
          },
          "t_contract(IERC20)337": {
            "encoding": "inplace",
            "label": "contract IERC20",
            "numberOfBytes": "20"
          },
          "t_contract(IMigratorChef)858": {
            "encoding": "inplace",
            "label": "contract IMigratorChef",
            "numberOfBytes": "20"
          },
          "t_contract(IRewarder)2167": {
            "encoding": "inplace",
            "label": "contract IRewarder",
            "numberOfBytes": "20"
          },
          "t_int256": {
            "encoding": "inplace",
            "label": "int256",
            "numberOfBytes": "32"
          },
          "t_mapping(t_address,t_struct(UserInfo)880_storage)": {
            "encoding": "mapping",
            "key": "t_address",
            "label": "mapping(address => struct MamaPutV2.UserInfo)",
            "numberOfBytes": "32",
            "value": "t_struct(UserInfo)880_storage"
          },
          "t_mapping(t_uint256,t_mapping(t_address,t_struct(UserInfo)880_storage))": {
            "encoding": "mapping",
            "key": "t_uint256",
            "label": "mapping(uint256 => mapping(address => struct MamaPutV2.UserInfo))",
            "numberOfBytes": "32",
            "value": "t_mapping(t_address,t_struct(UserInfo)880_storage)"
          },
          "t_struct(PoolInfo)887_storage": {
            "encoding": "inplace",
            "label": "struct MamaPutV2.PoolInfo",
            "members": [
              {
                "astId": 882,
                "contract": "contracts/MamaPutV2.sol:MamaPutV2",
                "label": "accJollofPerShare",
                "offset": 0,
                "slot": "0",
                "type": "t_uint128"
              },
              {
                "astId": 884,
                "contract": "contracts/MamaPutV2.sol:MamaPutV2",
                "label": "lastRewardBlock",
                "offset": 16,
                "slot": "0",
                "type": "t_uint64"
              },
              {
                "astId": 886,
                "contract": "contracts/MamaPutV2.sol:MamaPutV2",
                "label": "allocPoint",
                "offset": 24,
                "slot": "0",
                "type": "t_uint64"
              }
            ],
            "numberOfBytes": "32"
          },
          "t_struct(UserInfo)880_storage": {
            "encoding": "inplace",
            "label": "struct MamaPutV2.UserInfo",
            "members": [
              {
                "astId": 877,
                "contract": "contracts/MamaPutV2.sol:MamaPutV2",
                "label": "amount",
                "offset": 0,
                "slot": "0",
                "type": "t_uint256"
              },
              {
                "astId": 879,
                "contract": "contracts/MamaPutV2.sol:MamaPutV2",
                "label": "rewardDebt",
                "offset": 0,
                "slot": "1",
                "type": "t_int256"
              }
            ],
            "numberOfBytes": "64"
          },
          "t_uint128": {
            "encoding": "inplace",
            "label": "uint128",
            "numberOfBytes": "16"
          },
          "t_uint256": {
            "encoding": "inplace",
            "label": "uint256",
            "numberOfBytes": "32"
          },
          "t_uint64": {
            "encoding": "inplace",
            "label": "uint64",
            "numberOfBytes": "8"
          }
        }
      },
      "userdoc": {
        "kind": "user",
        "methods": {
          "JOLLOF()": {
            "notice": "Address of JOLLOF contract."
          },
          "MAMA_PUT()": {
            "notice": "Address of MCV1 contract."
          },
          "MASTER_PID()": {
            "notice": "The index of MCV2 master pool in MCV1."
          },
          "add(uint256,address,address)": {
            "notice": "Add a new LP to the pool. Can only be called by the owner. DO NOT add the same LP token more than once. Rewards will be messed up if you do."
          },
          "deposit(uint256,uint256,address)": {
            "notice": "Deposit LP tokens to MCV2 for JOLLOF allocation."
          },
          "emergencyWithdraw(uint256,address)": {
            "notice": "Withdraw without caring about rewards. EMERGENCY ONLY."
          },
          "harvest(uint256,address)": {
            "notice": "Harvest proceeds for transaction sender to `to`."
          },
          "harvestFromMamaPut()": {
            "notice": "Harvests Jollof from `MASTER_CHEF` MCV1 and pool `MASTER_PID` to this MCV2 contract."
          },
          "init(address)": {
            "notice": "Deposits a dummy token to `MAMA_PUT` MCV1. This is required because MCV1 holds the minting rights for JOLLOF. Any balance of transaction sender in `dummyToken` is transferred. The allocation point for the pool on MCV1 is the total allocation point for all pools that receive double incentives."
          },
          "jollofPerBlock()": {
            "notice": "Calculates and returns the `amount` of JOLLOF per block."
          },
          "lpToken(uint256)": {
            "notice": "Address of the LP token for each MCV2 pool."
          },
          "massUpdatePools(uint256[])": {
            "notice": "Update reward variables for all pools. Be careful of gas spending!"
          },
          "migrate(uint256)": {
            "notice": "Migrate LP token to another LP contract through the `migrator` contract."
          },
          "pendingJollof(uint256,address)": {
            "notice": "View function to see pending JOLLOF on frontend."
          },
          "poolInfo(uint256)": {
            "notice": "Info of each MCV2 pool."
          },
          "poolLength()": {
            "notice": "Returns the number of MCV2 pools."
          },
          "rewarder(uint256)": {
            "notice": "Address of each `IRewarder` contract in MCV2."
          },
          "set(uint256,uint256,address,bool)": {
            "notice": "Update the given pool's JOLLOF allocation point and `IRewarder` contract. Can only be called by the owner."
          },
          "setMigrator(address)": {
            "notice": "Set the `migrator` contract. Can only be called by the owner."
          },
          "updatePool(uint256)": {
            "notice": "Update reward variables of the given pool."
          },
          "userInfo(uint256,address)": {
            "notice": "Info of each user that stakes LP tokens."
          },
          "withdraw(uint256,uint256,address)": {
            "notice": "Withdraw LP tokens from MCV2."
          },
          "withdrawAndHarvest(uint256,uint256,address)": {
            "notice": "Withdraw LP tokens from MCV2 and harvest proceeds for transaction sender to `to`."
          }
        },
        "notice": "The (older) MamaPut contract gives out a constant number of JOLLOF tokens per block. It is the only address with minting rights for JOLLOF. The idea for this MamaPut V2 (MCV2) contract is therefore to be the owner of a dummy token that is deposited into the MamaPut V1 (MCV1) contract. The allocation point for this pool on MCV1 is the total allocation point for all pools that receive double incentives.",
        "version": 1
      }
    }
  }
}