{
  "_format": "hh-sol-artifact-1",
  "contractName": "Migrator",
  "sourceName": "contracts/Migrator.sol",
  "abi": [
    {
      "inputs": [
        {
          "internalType": "address",
          "name": "_put",
          "type": "address"
        },
        {
          "internalType": "address",
          "name": "_oldFactory",
          "type": "address"
        },
        {
          "internalType": "contract IUniswapV2Factory",
          "name": "_factory",
          "type": "address"
        },
        {
          "internalType": "uint256",
          "name": "_notBeforeBlock",
          "type": "uint256"
        }
      ],
      "stateMutability": "nonpayable",
      "type": "constructor"
    },
    {
      "inputs": [],
      "name": "desiredLiquidity",
      "outputs": [
        {
          "internalType": "uint256",
          "name": "",
          "type": "uint256"
        }
      ],
      "stateMutability": "view",
      "type": "function"
    },
    {
      "inputs": [],
      "name": "factory",
      "outputs": [
        {
          "internalType": "contract IUniswapV2Factory",
          "name": "",
          "type": "address"
        }
      ],
      "stateMutability": "view",
      "type": "function"
    },
    {
      "inputs": [
        {
          "internalType": "contract IUniswapV2Pair",
          "name": "orig",
          "type": "address"
        }
      ],
      "name": "migrate",
      "outputs": [
        {
          "internalType": "contract IUniswapV2Pair",
          "name": "",
          "type": "address"
        }
      ],
      "stateMutability": "nonpayable",
      "type": "function"
    },
    {
      "inputs": [],
      "name": "notBeforeBlock",
      "outputs": [
        {
          "internalType": "uint256",
          "name": "",
          "type": "uint256"
        }
      ],
      "stateMutability": "view",
      "type": "function"
    },
    {
      "inputs": [],
      "name": "oldFactory",
      "outputs": [
        {
          "internalType": "address",
          "name": "",
          "type": "address"
        }
      ],
      "stateMutability": "view",
      "type": "function"
    },
    {
      "inputs": [],
      "name": "put",
      "outputs": [
        {
          "internalType": "address",
          "name": "",
          "type": "address"
        }
      ],
      "stateMutability": "view",
      "type": "function"
    }
  ],
  "bytecode": "0x608060405260001960045534801561001657600080fd5b5060405161075e38038061075e8339818101604052608081101561003957600080fd5b50805160208201516040830151606090930151600080546001600160a01b03199081166001600160a01b039586161782556001805482169486169490941790935560028054909316939094169290921790556003556106c090819061009e90396000f3fe608060405234801561001057600080fd5b50600436106100625760003560e01c806305293137146100675780631bd6dfe11461008157806340dc0e37146100a5578063549262ba146100ad578063c45a0155146100b5578063ce5494bb146100bd575b600080fd5b61006f6100e3565b60408051918252519081900360200190f35b6100896100e9565b604080516001600160a01b039092168252519081900360200190f35b61006f6100f8565b6100896100fe565b61008961010d565b610089600480360360208110156100d357600080fd5b50356001600160a01b031661011c565b60035481565b6001546001600160a01b031681565b60045481565b6000546001600160a01b031681565b6002546001600160a01b031681565b600080546001600160a01b03163314610172576040805162461bcd60e51b81526020600482015260136024820152721b9bdd08199c9bdb481b585cdd195c881c1d5d606a1b604482015290519081900360640190fd5b6003544310156101c0576040805162461bcd60e51b8152602060048201526014602482015273746f6f206561726c7920746f206d69677261746560601b604482015290519081900360640190fd5b6001546040805163c45a015560e01b815290516001600160a01b039283169285169163c45a0155916004808301926020929190829003018186803b15801561020757600080fd5b505afa15801561021b573d6000803e3d6000fd5b505050506040513d602081101561023157600080fd5b50516001600160a01b031614610285576040805162461bcd60e51b81526020600482015260146024820152736e6f742066726f6d206f6c6420666163746f727960601b604482015290519081900360640190fd5b6000826001600160a01b0316630dfe16816040518163ffffffff1660e01b815260040160206040518083038186803b1580156102c057600080fd5b505afa1580156102d4573d6000803e3d6000fd5b505050506040513d60208110156102ea57600080fd5b50516040805163d21220a760e01b815290519192506000916001600160a01b0386169163d21220a7916004808301926020929190829003018186803b15801561033257600080fd5b505afa158015610346573d6000803e3d6000fd5b505050506040513d602081101561035c57600080fd5b50516002546040805163e6a4390560e01b81526001600160a01b03868116600483015280851660248301529151939450600093919092169163e6a43905916044808301926020929190829003018186803b1580156103b957600080fd5b505afa1580156103cd573d6000803e3d6000fd5b505050506040513d60208110156103e357600080fd5b505190506001600160a01b03811661047b57600254604080516364e329cb60e11b81526001600160a01b03868116600483015285811660248301529151919092169163c9c653969160448083019260209291908290030181600087803b15801561044c57600080fd5b505af1158015610460573d6000803e3d6000fd5b505050506040513d602081101561047657600080fd5b505190505b6000856001600160a01b03166370a08231336040518263ffffffff1660e01b815260040180826001600160a01b0316815260200191505060206040518083038186803b1580156104ca57600080fd5b505afa1580156104de573d6000803e3d6000fd5b505050506040513d60208110156104f457600080fd5b505190508061050857509250610685915050565b6004818155604080516323b872dd60e01b815233928101929092526001600160a01b0388166024830181905260448301849052905190916323b872dd9160648083019260209291908290030181600087803b15801561056657600080fd5b505af115801561057a573d6000803e3d6000fd5b505050506040513d602081101561059057600080fd5b50506040805163226bf2d160e21b81526001600160a01b0384811660048301528251908916926389afcb4492602480820193918290030181600087803b1580156105d957600080fd5b505af11580156105ed573d6000803e3d6000fd5b505050506040513d604081101561060357600080fd5b5050604080516335313c2160e11b815233600482015290516001600160a01b03841691636a6278429160248083019260209291908290030181600087803b15801561064d57600080fd5b505af1158015610661573d6000803e3d6000fd5b505050506040513d602081101561067757600080fd5b505060001960045550925050505b91905056fea2646970667358221220ae2b905cf12ced81ef0876f61fc6a7bbf68894c7c1ce5346eb3f40126831437464736f6c634300060c0033",
  "linkReferences": {},
  "deployedLinkReferences": {}
}