{
  "contractName": "BaseBoringBatchable",
  "abi": [
    {
      "inputs": [
        {
          "internalType": "bytes[]",
          "name": "calls",
          "type": "bytes[]"
        },
        {
          "internalType": "bool",
          "name": "revertOnFail",
          "type": "bool"
        }
      ],
      "name": "batch",
      "outputs": [
        {
          "internalType": "bool[]",
          "name": "successes",
          "type": "bool[]"
        },
        {
          "internalType": "bytes[]",
          "name": "results",
          "type": "bytes[]"
        }
      ],
      "stateMutability": "payable",
      "type": "function"
    }
  ],
  "bytecode": "0x608060405234801561001057600080fd5b5061051a806100206000396000f3fe60806040526004361061001e5760003560e01c8063d2423b5114610023575b600080fd5b610036610031366004610250565b61004d565b6040516100449291906103ab565b60405180910390f35b6060808367ffffffffffffffff8111801561006757600080fd5b50604051908082528060200260200182016040528015610091578160200160208202803683370190505b5091508367ffffffffffffffff811180156100ab57600080fd5b506040519080825280602002602001820160405280156100df57816020015b60608152602001906001900390816100ca5790505b50905060005b848110156101df5760006060308888858181106100fe57fe5b9050602002810190610110919061045f565b60405161011e92919061039b565b600060405180830381855af49150503d8060008114610159576040519150601f19603f3d011682016040523d82523d6000602084013e61015e565b606091505b5091509150818061016d575085155b610176826101e8565b9061019d5760405162461bcd60e51b81526004016101949190610445565b60405180910390fd5b50818584815181106101ab57fe5b602002602001019015159081151581525050808484815181106101ca57fe5b602090810291909101015250506001016100e5565b50935093915050565b606060448251101561022e575060408051808201909152601d81527f5472616e73616374696f6e2072657665727465642073696c656e746c79000000602082015261024b565b6004820191508180602001905181019061024891906102d4565b90505b919050565b600080600060408486031215610264578283fd5b833567ffffffffffffffff8082111561027b578485fd5b818601915086601f83011261028e578485fd5b81358181111561029c578586fd5b87602080830285010111156102af578586fd5b6020928301955093505084013580151581146102c9578182fd5b809150509250925092565b6000602082840312156102e5578081fd5b815167ffffffffffffffff808211156102fc578283fd5b818401915084601f83011261030f578283fd5b81518181111561031d578384fd5b604051601f8201601f19168101602001838111828210171561033d578586fd5b604052818152838201602001871015610354578485fd5b6103658260208301602087016104b4565b9695505050505050565b600081518084526103878160208601602086016104b4565b601f01601f19169290920160200192915050565b6000828483379101908152919050565b604080825283519082018190526000906020906060840190828701845b828110156103e65781511515845292840192908401906001016103c8565b505050838103828501528085516103fd81846104ab565b91508192508381028201848801865b8381101561043657858303855261042483835161036f565b9487019492509086019060010161040c565b50909998505050505050505050565b600060208252610458602083018461036f565b9392505050565b6000808335601e19843603018112610475578283fd5b83018035915067ffffffffffffffff82111561048f578283fd5b6020019150368190038213156104a457600080fd5b9250929050565b90815260200190565b60005b838110156104cf5781810151838201526020016104b7565b838111156104de576000848401525b5050505056fea2646970667358221220192e985ae8f7a0e832384150c109f858eb95e8d01951bb55c9d6721d9ce6278664736f6c634300060c0033",
  "immutableReferences": {},
  "source": "// SPDX-License-Identifier: UNLICENSED\r\n// Audit on 5-Jan-2021 by Keno and BoringCrypto\r\n\r\n// P1 - P3: OK\r\npragma solidity 0.6.12;\r\npragma experimental ABIEncoderV2;\r\n// solhint-disable avoid-low-level-calls\r\n\r\nimport \"./libraries/BoringERC20.sol\";\r\n\r\n// T1 - T4: OK\r\ncontract BaseBoringBatchable {\r\n    function _getRevertMsg(bytes memory _returnData) internal pure returns (string memory) {\r\n        // If the _res length is less than 68, then the transaction failed silently (without a revert message)\r\n        if (_returnData.length < 68) return \"Transaction reverted silently\";\r\n\r\n        assembly {\r\n            // Slice the sighash.\r\n            _returnData := add(_returnData, 0x04)\r\n        }\r\n        return abi.decode(_returnData, (string)); // All that remains is the revert string\r\n    }    \r\n    \r\n    // F3 - F9: OK\r\n    // F1: External is ok here because this is the batch function, adding it to a batch makes no sense\r\n    // F2: Calls in the batch may be payable, delegatecall operates in the same context, so each call in the batch has access to msg.value\r\n    // C1 - C21: OK\r\n    // C3: The length of the loop is fully under user control, so can't be exploited\r\n    // C7: Delegatecall is only used on the same contract, so it's safe\r\n    function batch(bytes[] calldata calls, bool revertOnFail) external payable returns(bool[] memory successes, bytes[] memory results) {\r\n        // Interactions\r\n        successes = new bool[](calls.length);\r\n        results = new bytes[](calls.length);\r\n        for (uint256 i = 0; i < calls.length; i++) {\r\n            (bool success, bytes memory result) = address(this).delegatecall(calls[i]);\r\n            require(success || !revertOnFail, _getRevertMsg(result));\r\n            successes[i] = success;\r\n            results[i] = result;\r\n        }\r\n    }\r\n}\r\n\r\n// T1 - T4: OK\r\ncontract BoringBatchable is BaseBoringBatchable {\r\n    // F1 - F9: OK\r\n    // F6: Parameters can be used front-run the permit and the user's permit will fail (due to nonce or other revert)\r\n    //     if part of a batch this could be used to grief once as the second call would not need the permit\r\n    // C1 - C21: OK\r\n    function permitToken(IERC20 token, address from, address to, uint256 amount, uint256 deadline, uint8 v, bytes32 r, bytes32 s) public {\r\n        // Interactions\r\n        // X1 - X5\r\n        token.permit(from, to, amount, deadline, v, r, s);\r\n    }\r\n}",
  "sourcePath": "@boringcrypto/boring-solidity/contracts/BoringBatchable.sol",
  "compiler": {
    "name": "solc",
    "version": "0.6.12+commit.27d51765.Emscripten.clang"
  },
  "schemaVersion": "3.4.1",
  "updatedAt": "2021-07-30T15:51:11.610Z",
  "devdoc": {
    "kind": "dev",
    "methods": {},
    "version": 1
  },
  "userdoc": {
    "kind": "user",
    "methods": {},
    "version": 1
  }
}