{
  "contractName": "BoringBatchable",
  "abi": [
    {
      "inputs": [
        {
          "internalType": "bytes[]",
          "name": "calls",
          "type": "bytes[]"
        },
        {
          "internalType": "bool",
          "name": "revertOnFail",
          "type": "bool"
        }
      ],
      "name": "batch",
      "outputs": [
        {
          "internalType": "bool[]",
          "name": "successes",
          "type": "bool[]"
        },
        {
          "internalType": "bytes[]",
          "name": "results",
          "type": "bytes[]"
        }
      ],
      "stateMutability": "payable",
      "type": "function"
    },
    {
      "inputs": [
        {
          "internalType": "contract IERC20",
          "name": "token",
          "type": "address"
        },
        {
          "internalType": "address",
          "name": "from",
          "type": "address"
        },
        {
          "internalType": "address",
          "name": "to",
          "type": "address"
        },
        {
          "internalType": "uint256",
          "name": "amount",
          "type": "uint256"
        },
        {
          "internalType": "uint256",
          "name": "deadline",
          "type": "uint256"
        },
        {
          "internalType": "uint8",
          "name": "v",
          "type": "uint8"
        },
        {
          "internalType": "bytes32",
          "name": "r",
          "type": "bytes32"
        },
        {
          "internalType": "bytes32",
          "name": "s",
          "type": "bytes32"
        }
      ],
      "name": "permitToken",
      "outputs": [],
      "stateMutability": "nonpayable",
      "type": "function"
    }
  ],
  "bytecode": "0x608060405234801561001057600080fd5b5061069b806100206000396000f3fe6080604052600436106100295760003560e01c80637c516e941461002e578063d2423b5114610050575b600080fd5b34801561003a57600080fd5b5061004e610049366004610375565b61007a565b005b61006361005e3660046102f1565b6100ee565b604051610071929190610514565b60405180910390f35b60405163d505accf60e01b81526001600160a01b0389169063d505accf906100b2908a908a908a908a908a908a908a906004016104d3565b600060405180830381600087803b1580156100cc57600080fd5b505af11580156100e0573d6000803e3d6000fd5b505050505050505050505050565b6060808367ffffffffffffffff8111801561010857600080fd5b50604051908082528060200260200182016040528015610132578160200160208202803683370190505b5091508367ffffffffffffffff8111801561014c57600080fd5b5060405190808252806020026020018201604052801561018057816020015b606081526020019060019003908161016b5790505b50905060005b8481101561028057600060603088888581811061019f57fe5b90506020028101906101b191906105c8565b6040516101bf9291906104c3565b600060405180830381855af49150503d80600081146101fa576040519150601f19603f3d011682016040523d82523d6000602084013e6101ff565b606091505b5091509150818061020e575085155b61021782610289565b9061023e5760405162461bcd60e51b815260040161023591906105ae565b60405180910390fd5b508185848151811061024c57fe5b6020026020010190151590811515815250508084848151811061026b57fe5b60209081029190910101525050600101610186565b50935093915050565b60606044825110156102cf575060408051808201909152601d81527f5472616e73616374696f6e2072657665727465642073696c656e746c7900000060208201526102ec565b600482019150818060200190518101906102e991906103fc565b90505b919050565b600080600060408486031215610305578283fd5b833567ffffffffffffffff8082111561031c578485fd5b818601915086601f83011261032f578485fd5b81358181111561033d578586fd5b8760208083028501011115610350578586fd5b60209283019550935050840135801515811461036a578182fd5b809150509250925092565b600080600080600080600080610100898b031215610391578384fd5b883561039c8161064d565b975060208901356103ac8161064d565b965060408901356103bc8161064d565b9550606089013594506080890135935060a089013560ff811681146103df578384fd5b979a969950949793969295929450505060c08201359160e0013590565b60006020828403121561040d578081fd5b815167ffffffffffffffff80821115610424578283fd5b818401915084601f830112610437578283fd5b815181811115610445578384fd5b604051601f8201601f191681016020018381118282101715610465578586fd5b60405281815283820160200187101561047c578485fd5b61048d82602083016020870161061d565b9695505050505050565b600081518084526104af81602086016020860161061d565b601f01601f19169290920160200192915050565b6000828483379101908152919050565b6001600160a01b0397881681529590961660208601526040850193909352606084019190915260ff16608083015260a082015260c081019190915260e00190565b604080825283519082018190526000906020906060840190828701845b8281101561054f578151151584529284019290840190600101610531565b505050838103828501528085516105668184610614565b91508192508381028201848801865b8381101561059f57858303855261058d838351610497565b94870194925090860190600101610575565b50909998505050505050505050565b6000602082526105c16020830184610497565b9392505050565b6000808335601e198436030181126105de578283fd5b83018035915067ffffffffffffffff8211156105f8578283fd5b60200191503681900382131561060d57600080fd5b9250929050565b90815260200190565b60005b83811015610638578181015183820152602001610620565b83811115610647576000848401525b50505050565b6001600160a01b038116811461066257600080fd5b5056fea26469706673582212201650a79d3859344312ae20cc52c15123a6bb1a5bee9861a456318475f57406dd64736f6c634300060c0033",
  "immutableReferences": {},
  "source": "// SPDX-License-Identifier: UNLICENSED\r\n// Audit on 5-Jan-2021 by Keno and BoringCrypto\r\n\r\n// P1 - P3: OK\r\npragma solidity 0.6.12;\r\npragma experimental ABIEncoderV2;\r\n// solhint-disable avoid-low-level-calls\r\n\r\nimport \"./libraries/BoringERC20.sol\";\r\n\r\n// T1 - T4: OK\r\ncontract BaseBoringBatchable {\r\n    function _getRevertMsg(bytes memory _returnData) internal pure returns (string memory) {\r\n        // If the _res length is less than 68, then the transaction failed silently (without a revert message)\r\n        if (_returnData.length < 68) return \"Transaction reverted silently\";\r\n\r\n        assembly {\r\n            // Slice the sighash.\r\n            _returnData := add(_returnData, 0x04)\r\n        }\r\n        return abi.decode(_returnData, (string)); // All that remains is the revert string\r\n    }    \r\n    \r\n    // F3 - F9: OK\r\n    // F1: External is ok here because this is the batch function, adding it to a batch makes no sense\r\n    // F2: Calls in the batch may be payable, delegatecall operates in the same context, so each call in the batch has access to msg.value\r\n    // C1 - C21: OK\r\n    // C3: The length of the loop is fully under user control, so can't be exploited\r\n    // C7: Delegatecall is only used on the same contract, so it's safe\r\n    function batch(bytes[] calldata calls, bool revertOnFail) external payable returns(bool[] memory successes, bytes[] memory results) {\r\n        // Interactions\r\n        successes = new bool[](calls.length);\r\n        results = new bytes[](calls.length);\r\n        for (uint256 i = 0; i < calls.length; i++) {\r\n            (bool success, bytes memory result) = address(this).delegatecall(calls[i]);\r\n            require(success || !revertOnFail, _getRevertMsg(result));\r\n            successes[i] = success;\r\n            results[i] = result;\r\n        }\r\n    }\r\n}\r\n\r\n// T1 - T4: OK\r\ncontract BoringBatchable is BaseBoringBatchable {\r\n    // F1 - F9: OK\r\n    // F6: Parameters can be used front-run the permit and the user's permit will fail (due to nonce or other revert)\r\n    //     if part of a batch this could be used to grief once as the second call would not need the permit\r\n    // C1 - C21: OK\r\n    function permitToken(IERC20 token, address from, address to, uint256 amount, uint256 deadline, uint8 v, bytes32 r, bytes32 s) public {\r\n        // Interactions\r\n        // X1 - X5\r\n        token.permit(from, to, amount, deadline, v, r, s);\r\n    }\r\n}",
  "sourcePath": "@boringcrypto/boring-solidity/contracts/BoringBatchable.sol",
  "compiler": {
    "name": "solc",
    "version": "0.6.12+commit.27d51765.Emscripten.clang"
  },
  "schemaVersion": "3.4.1",
  "updatedAt": "2021-07-30T15:51:11.734Z",
  "devdoc": {
    "kind": "dev",
    "methods": {},
    "version": 1
  },
  "userdoc": {
    "kind": "user",
    "methods": {},
    "version": 1
  }
}