{
  "contractName": "ComplexRewarderTime",
  "abi": [
    {
      "inputs": [
        {
          "internalType": "contract IERC20",
          "name": "_rewardToken",
          "type": "address"
        },
        {
          "internalType": "uint256",
          "name": "_rewardPerSecond",
          "type": "uint256"
        },
        {
          "internalType": "address",
          "name": "_MAMAPUT_V2",
          "type": "address"
        }
      ],
      "stateMutability": "nonpayable",
      "type": "constructor"
    },
    {
      "anonymous": false,
      "inputs": [],
      "name": "LogInit",
      "type": "event"
    },
    {
      "anonymous": false,
      "inputs": [
        {
          "indexed": true,
          "internalType": "address",
          "name": "user",
          "type": "address"
        },
        {
          "indexed": true,
          "internalType": "uint256",
          "name": "pid",
          "type": "uint256"
        },
        {
          "indexed": false,
          "internalType": "uint256",
          "name": "amount",
          "type": "uint256"
        },
        {
          "indexed": true,
          "internalType": "address",
          "name": "to",
          "type": "address"
        }
      ],
      "name": "LogOnReward",
      "type": "event"
    },
    {
      "anonymous": false,
      "inputs": [
        {
          "indexed": true,
          "internalType": "uint256",
          "name": "pid",
          "type": "uint256"
        },
        {
          "indexed": false,
          "internalType": "uint256",
          "name": "allocPoint",
          "type": "uint256"
        }
      ],
      "name": "LogPoolAddition",
      "type": "event"
    },
    {
      "anonymous": false,
      "inputs": [
        {
          "indexed": false,
          "internalType": "uint256",
          "name": "rewardPerSecond",
          "type": "uint256"
        }
      ],
      "name": "LogRewardPerSecond",
      "type": "event"
    },
    {
      "anonymous": false,
      "inputs": [
        {
          "indexed": true,
          "internalType": "uint256",
          "name": "pid",
          "type": "uint256"
        },
        {
          "indexed": false,
          "internalType": "uint256",
          "name": "allocPoint",
          "type": "uint256"
        }
      ],
      "name": "LogSetPool",
      "type": "event"
    },
    {
      "anonymous": false,
      "inputs": [
        {
          "indexed": true,
          "internalType": "uint256",
          "name": "pid",
          "type": "uint256"
        },
        {
          "indexed": false,
          "internalType": "uint64",
          "name": "lastRewardTime",
          "type": "uint64"
        },
        {
          "indexed": false,
          "internalType": "uint256",
          "name": "lpSupply",
          "type": "uint256"
        },
        {
          "indexed": false,
          "internalType": "uint256",
          "name": "accJollofPerShare",
          "type": "uint256"
        }
      ],
      "name": "LogUpdatePool",
      "type": "event"
    },
    {
      "anonymous": false,
      "inputs": [
        {
          "indexed": true,
          "internalType": "address",
          "name": "previousOwner",
          "type": "address"
        },
        {
          "indexed": true,
          "internalType": "address",
          "name": "newOwner",
          "type": "address"
        }
      ],
      "name": "OwnershipTransferred",
      "type": "event"
    },
    {
      "inputs": [],
      "name": "claimOwnership",
      "outputs": [],
      "stateMutability": "nonpayable",
      "type": "function"
    },
    {
      "inputs": [],
      "name": "owner",
      "outputs": [
        {
          "internalType": "address",
          "name": "",
          "type": "address"
        }
      ],
      "stateMutability": "view",
      "type": "function"
    },
    {
      "inputs": [],
      "name": "pendingOwner",
      "outputs": [
        {
          "internalType": "address",
          "name": "",
          "type": "address"
        }
      ],
      "stateMutability": "view",
      "type": "function"
    },
    {
      "inputs": [
        {
          "internalType": "uint256",
          "name": "",
          "type": "uint256"
        }
      ],
      "name": "poolIds",
      "outputs": [
        {
          "internalType": "uint256",
          "name": "",
          "type": "uint256"
        }
      ],
      "stateMutability": "view",
      "type": "function"
    },
    {
      "inputs": [
        {
          "internalType": "uint256",
          "name": "",
          "type": "uint256"
        }
      ],
      "name": "poolInfo",
      "outputs": [
        {
          "internalType": "uint128",
          "name": "accJollofPerShare",
          "type": "uint128"
        },
        {
          "internalType": "uint64",
          "name": "lastRewardTime",
          "type": "uint64"
        },
        {
          "internalType": "uint64",
          "name": "allocPoint",
          "type": "uint64"
        }
      ],
      "stateMutability": "view",
      "type": "function"
    },
    {
      "inputs": [],
      "name": "rewardPerSecond",
      "outputs": [
        {
          "internalType": "uint256",
          "name": "",
          "type": "uint256"
        }
      ],
      "stateMutability": "view",
      "type": "function"
    },
    {
      "inputs": [
        {
          "internalType": "address",
          "name": "newOwner",
          "type": "address"
        },
        {
          "internalType": "bool",
          "name": "direct",
          "type": "bool"
        },
        {
          "internalType": "bool",
          "name": "renounce",
          "type": "bool"
        }
      ],
      "name": "transferOwnership",
      "outputs": [],
      "stateMutability": "nonpayable",
      "type": "function"
    },
    {
      "inputs": [
        {
          "internalType": "uint256",
          "name": "",
          "type": "uint256"
        },
        {
          "internalType": "address",
          "name": "",
          "type": "address"
        }
      ],
      "name": "userInfo",
      "outputs": [
        {
          "internalType": "uint256",
          "name": "amount",
          "type": "uint256"
        },
        {
          "internalType": "uint256",
          "name": "rewardDebt",
          "type": "uint256"
        }
      ],
      "stateMutability": "view",
      "type": "function"
    },
    {
      "inputs": [
        {
          "internalType": "uint256",
          "name": "pid",
          "type": "uint256"
        },
        {
          "internalType": "address",
          "name": "_user",
          "type": "address"
        },
        {
          "internalType": "address",
          "name": "to",
          "type": "address"
        },
        {
          "internalType": "uint256",
          "name": "",
          "type": "uint256"
        },
        {
          "internalType": "uint256",
          "name": "lpToken",
          "type": "uint256"
        }
      ],
      "name": "onJollofReward",
      "outputs": [],
      "stateMutability": "nonpayable",
      "type": "function"
    },
    {
      "inputs": [
        {
          "internalType": "uint256",
          "name": "pid",
          "type": "uint256"
        },
        {
          "internalType": "address",
          "name": "user",
          "type": "address"
        },
        {
          "internalType": "uint256",
          "name": "",
          "type": "uint256"
        }
      ],
      "name": "pendingTokens",
      "outputs": [
        {
          "internalType": "contract IERC20[]",
          "name": "rewardTokens",
          "type": "address[]"
        },
        {
          "internalType": "uint256[]",
          "name": "rewardAmounts",
          "type": "uint256[]"
        }
      ],
      "stateMutability": "view",
      "type": "function"
    },
    {
      "inputs": [
        {
          "internalType": "uint256",
          "name": "_rewardPerSecond",
          "type": "uint256"
        }
      ],
      "name": "setRewardPerSecond",
      "outputs": [],
      "stateMutability": "nonpayable",
      "type": "function"
    },
    {
      "inputs": [],
      "name": "poolLength",
      "outputs": [
        {
          "internalType": "uint256",
          "name": "pools",
          "type": "uint256"
        }
      ],
      "stateMutability": "view",
      "type": "function"
    },
    {
      "inputs": [
        {
          "internalType": "uint256",
          "name": "allocPoint",
          "type": "uint256"
        },
        {
          "internalType": "uint256",
          "name": "_pid",
          "type": "uint256"
        }
      ],
      "name": "add",
      "outputs": [],
      "stateMutability": "nonpayable",
      "type": "function"
    },
    {
      "inputs": [
        {
          "internalType": "uint256",
          "name": "_pid",
          "type": "uint256"
        },
        {
          "internalType": "uint256",
          "name": "_allocPoint",
          "type": "uint256"
        }
      ],
      "name": "set",
      "outputs": [],
      "stateMutability": "nonpayable",
      "type": "function"
    },
    {
      "inputs": [
        {
          "internalType": "uint256",
          "name": "_pid",
          "type": "uint256"
        },
        {
          "internalType": "address",
          "name": "_user",
          "type": "address"
        }
      ],
      "name": "pendingToken",
      "outputs": [
        {
          "internalType": "uint256",
          "name": "pending",
          "type": "uint256"
        }
      ],
      "stateMutability": "view",
      "type": "function"
    },
    {
      "inputs": [
        {
          "internalType": "uint256[]",
          "name": "pids",
          "type": "uint256[]"
        }
      ],
      "name": "massUpdatePools",
      "outputs": [],
      "stateMutability": "nonpayable",
      "type": "function"
    },
    {
      "inputs": [
        {
          "internalType": "uint256",
          "name": "pid",
          "type": "uint256"
        }
      ],
      "name": "updatePool",
      "outputs": [
        {
          "components": [
            {
              "internalType": "uint128",
              "name": "accJollofPerShare",
              "type": "uint128"
            },
            {
              "internalType": "uint64",
              "name": "lastRewardTime",
              "type": "uint64"
            },
            {
              "internalType": "uint64",
              "name": "allocPoint",
              "type": "uint64"
            }
          ],
          "internalType": "struct ComplexRewarderTime.PoolInfo",
          "name": "pool",
          "type": "tuple"
        }
      ],
      "stateMutability": "nonpayable",
      "type": "function"
    }
  ],
  "bytecode": "0x60c06040523480156200001157600080fd5b50604051620018f9380380620018f9833981016040819052620000349162000099565b600080546001600160a01b0319163390811782556040519091907f8be0079c531659141344cd1fd0a4f28419497f9722a3daafe3b4186f6b6457e0908290a36001600160601b0319606093841b811660805260069290925590911b1660a052620000f9565b600080600060608486031215620000ae578283fd5b8351620000bb81620000e0565b602085015160408601519194509250620000d581620000e0565b809150509250925092565b6001600160a01b0381168114620000f657600080fd5b50565b60805160601c60a05160601c6117bd6200013c6000398061048f528061068a528061071f52806109815280610a1652508061054e5280610ebb52506117bd6000f3fe608060405234801561001057600080fd5b506004361061010b5760003560e01c806357a5b58c116100a25780638da5cb5b116100715780638da5cb5b146102125780638f10369a1461022757806393f1a40b1461022f578063d63b3c4914610250578063e30c3978146102715761010b565b806357a5b58c146101c657806366da5815146101d957806369883b4e146101ec578063771602f7146101ff5761010b565b80631f56fa8f116100de5780631f56fa8f1461017857806348e43af41461018b5780634e71e0c81461019e57806351eb05a6146101a65761010b565b8063078dfbe714610110578063081e3eda146101255780631526fe27146101435780631ab06ee514610165575b600080fd5b61012361011e366004611177565b610279565b005b61012d610368565b60405161013a9190611720565b60405180910390f35b61015661015136600461126e565b61036e565b60405161013a939291906116f6565b610123610173366004611355565b6103a5565b6101236101863660046112cd565b610484565b61012d61019936600461129e565b6105fb565b61012361087b565b6101b96101b436600461126e565b610908565b60405161013a91906116bd565b6101236101d43660046111c1565b610c06565b6101236101e736600461126e565b610c3c565b61012d6101fa36600461126e565b610ca6565b61012361020d366004611355565b610cc4565b61021a610e5a565b60405161013a91906113b7565b61012d610e69565b61024261023d36600461129e565b610e6f565b60405161013a929190611729565b61026361025e36600461131e565b610e93565b60405161013a9291906113e4565b61021a610f52565b6000546001600160a01b031633146102ac5760405162461bcd60e51b81526004016102a3906115e5565b60405180910390fd5b8115610347576001600160a01b0383161515806102c65750805b6102e25760405162461bcd60e51b81526004016102a390611548565b600080546040516001600160a01b03808716939216917f8be0079c531659141344cd1fd0a4f28419497f9722a3daafe3b4186f6b6457e091a3600080546001600160a01b0385166001600160a01b031991821617909155600180549091169055610363565b600180546001600160a01b0319166001600160a01b0385161790555b505050565b60035490565b6002602052600090815260409020546001600160801b038116906001600160401b03600160801b8204811691600160c01b90041683565b6000546001600160a01b031633146103cf5760405162461bcd60e51b81526004016102a3906115e5565b60008281526002602052604090205460055461040691839161040091600160c01b90046001600160401b0316610f61565b90610f8a565b60055561041281610fad565b6000838152600260205260409081902080546001600160401b0393909316600160c01b026001600160c01b03909316929092179091555182907f942cc7e17a17c164bd977f32ab8c54265d5b9d481e4e352bf874f1e568874e7c90610478908490611720565b60405180910390a25050565b336001600160a01b037f000000000000000000000000000000000000000000000000000000000000000016146104cc5760405162461bcd60e51b81526004016102a390611507565b6104d4611157565b6104dd86610908565b60008781526004602090815260408083206001600160a01b038a1684529091528120805492935091156105755760018201548351835461053f929164e8d4a5100091610531916001600160801b0316610fda565b8161053857fe5b0490610f61565b90506105756001600160a01b037f0000000000000000000000000000000000000000000000000000000000000000168783611011565b838255825164e8d4a51000906105959086906001600160801b0316610fda565b8161059c57fe5b048260010181905550856001600160a01b031688886001600160a01b03167f2ece88ca2bc08dd018db50e1d25a20bf1241e5fab1c396caa51f01a54bd2f75b846040516105e99190611720565b60405180910390a45050505050505050565b6000610605611157565b506000838152600260209081526040808320815160608101835290546001600160801b0380821683526001600160401b03600160801b8304811684870152600160c01b9092049091168284015287855260048085528386206001600160a01b03808a1688529552838620835194516378ed5d1f60e01b815293969095949092169391927f0000000000000000000000000000000000000000000000000000000000000000909216916378ed5d1f916106bf918b9101611720565b60206040518083038186803b1580156106d757600080fd5b505afa1580156106eb573d6000803e3d6000fd5b505050506040513d601f19601f8201168201806040525081019061070f9190611252565b6001600160a01b03166370a082317f00000000000000000000000000000000000000000000000000000000000000006040518263ffffffff1660e01b815260040161075a91906113b7565b60206040518083038186803b15801561077257600080fd5b505afa158015610786573d6000803e3d6000fd5b505050506040513d601f19601f820116820180604052508101906107aa9190611286565b905083602001516001600160401b0316421180156107c757508015155b156108535760006107ee85602001516001600160401b031642610f6190919063ffffffff16565b9050600060055461082187604001516001600160401b031661081b60065486610fda90919063ffffffff16565b90610fda565b8161082857fe5b04905061084e8361083e8364e8d4a51000610fda565b8161084557fe5b86919004610f8a565b935050505b60018301548354610870919064e8d4a51000906105319086610fda565b979650505050505050565b6001546001600160a01b03163381146108a65760405162461bcd60e51b81526004016102a39061161a565b600080546040516001600160a01b03808516939216917f8be0079c531659141344cd1fd0a4f28419497f9722a3daafe3b4186f6b6457e091a3600080546001600160a01b039092166001600160a01b0319928316179055600180549091169055565b610910611157565b50600081815260026020908152604091829020825160608101845290546001600160801b03811682526001600160401b03600160801b82048116938301849052600160c01b9091041692810192909252421115610c01576040516378ed5d1f60e01b81526000906001600160a01b037f000000000000000000000000000000000000000000000000000000000000000016906378ed5d1f906109b6908690600401611720565b60206040518083038186803b1580156109ce57600080fd5b505afa1580156109e2573d6000803e3d6000fd5b505050506040513d601f19601f82011682018060405250810190610a069190611252565b6001600160a01b03166370a082317f00000000000000000000000000000000000000000000000000000000000000006040518263ffffffff1660e01b8152600401610a5191906113b7565b60206040518083038186803b158015610a6957600080fd5b505afa158015610a7d573d6000803e3d6000fd5b505050506040513d601f19601f82011682018060405250810190610aa19190611286565b90508015610b44576000610acb83602001516001600160401b031642610f6190919063ffffffff16565b90506000600554610af885604001516001600160401b031661081b60065486610fda90919063ffffffff16565b81610aff57fe5b049050610b36610b2584610b188464e8d4a51000610fda565b81610b1f57fe5b046110ff565b85516001600160801b031690611128565b6001600160801b0316845250505b610b4d42610fad565b6001600160401b03908116602084810191825260008681526002909152604090819020855181549351838801516001600160801b03199095166001600160801b0383161767ffffffffffffffff60801b1916600160801b82881602176001600160c01b0316600160c01b95909616949094029490941790555185927f0fc9545022a542541ad085d091fb09a2ab36fee366a4576ab63714ea907ad35392610bf79290918691611737565b60405180910390a2505b919050565b8060005b81811015610c3657610c2d848483818110610c2157fe5b90506020020135610908565b50600101610c0a565b50505050565b6000546001600160a01b03163314610c665760405162461bcd60e51b81526004016102a3906115e5565b60068190556040517fde89cb17ac7f58f94792b3e91e086ed85403819c24ceea882491f960ccb1a27890610c9b908390611720565b60405180910390a150565b60038181548110610cb357fe5b600091825260209091200154905081565b6000546001600160a01b03163314610cee5760405162461bcd60e51b81526004016102a3906115e5565b600081815260026020526040902054600160801b90046001600160401b031615610d2a5760405162461bcd60e51b81526004016102a3906114a3565b6005544290610d399084610f8a565b60055560408051606081019091526000815260208101610d5883610fad565b6001600160401b03168152602001610d6f85610fad565b6001600160401b0390811690915260008481526002602090815260408083208551815493870151968301518616600160c01b026001600160c01b0397909616600160801b0267ffffffffffffffff60801b196001600160801b039092166001600160801b031990951694909417169290921794909416929092179091556003805460018101825591527fc2575a0e9e593c00f959f8c92f12db2869c3395a3b0502d05e2516446f71f85b018390555182907f38410508059921573ab9ebdca2a5034be738d236366b8f32de4434ea95ed3c8190610e4d908690611720565b60405180910390a2505050565b6000546001600160a01b031681565b60065481565b60046020908152600092835260408084209091529082529020805460019091015482565b60408051600180825281830190925260609182918291602080830190803683370190505090507f000000000000000000000000000000000000000000000000000000000000000081600081518110610ee757fe5b6001600160a01b039290921660209283029190910190910152604080516001808252818301909252606091816020016020820280368337019050509050610f2e87876105fb565b81600081518110610f3b57fe5b602090810291909101015290969095509350505050565b6001546001600160a01b031681565b80820382811115610f845760405162461bcd60e51b81526004016102a390611474565b92915050565b81810181811015610f845760405162461bcd60e51b81526004016102a3906115ae565b60006001600160401b03821115610fd65760405162461bcd60e51b81526004016102a39061164f565b5090565b6000811580610ff557505080820282828281610ff257fe5b04145b610f845760405162461bcd60e51b81526004016102a390611686565b60006060846001600160a01b031663a9059cbb85856040516024016110379291906113cb565b6040516020818303038152906040529060e01b6020820180516001600160e01b038381831617835250505050604051611070919061137e565b6000604051808303816000865af19150503d80600081146110ad576040519150601f19603f3d011682016040523d82523d6000602084013e6110b2565b606091505b50915091508180156110dc5750805115806110dc5750808060200190518101906110dc919061122f565b6110f85760405162461bcd60e51b81526004016102a3906114d0565b5050505050565b60006001600160801b03821115610fd65760405162461bcd60e51b81526004016102a390611577565b8181016001600160801b038083169082161015610f845760405162461bcd60e51b81526004016102a3906115ae565b604080516060810182526000808252602082018190529181019190915290565b60008060006060848603121561118b578283fd5b833561119681611761565b925060208401356111a681611779565b915060408401356111b681611779565b809150509250925092565b600080602083850312156111d3578182fd5b82356001600160401b03808211156111e9578384fd5b818501915085601f8301126111fc578384fd5b81358181111561120a578485fd5b866020808302850101111561121d578485fd5b60209290920196919550909350505050565b600060208284031215611240578081fd5b815161124b81611779565b9392505050565b600060208284031215611263578081fd5b815161124b81611761565b60006020828403121561127f578081fd5b5035919050565b600060208284031215611297578081fd5b5051919050565b600080604083850312156112b0578182fd5b8235915060208301356112c281611761565b809150509250929050565b600080600080600060a086880312156112e4578081fd5b8535945060208601356112f681611761565b9350604086013561130681611761565b94979396509394606081013594506080013592915050565b600080600060608486031215611332578283fd5b83359250602084013561134481611761565b929592945050506040919091013590565b60008060408385031215611367578182fd5b50508035926020909101359150565b815260200190565b60008251815b8181101561139e5760208186018101518583015201611384565b818111156113ac5782828501525b509190910192915050565b6001600160a01b0391909116815260200190565b6001600160a01b03929092168252602082015260400190565b604080825283519082018190526000906020906060840190828701845b828110156114265781516001600160a01b031684529284019290840190600101611401565b5050508381038285015280855161143d8184611720565b91508387019250845b8181101561146757611459838551611376565b938501939250600101611446565b5090979650505050505050565b602080825260159082015274426f72696e674d6174683a20556e646572666c6f7760581b604082015260600190565b602080825260139082015272506f6f6c20616c72656164792065786973747360681b604082015260600190565b6020808252601c908201527f426f72696e6745524332303a205472616e73666572206661696c656400000000604082015260600190565b60208082526021908201527f4f6e6c79204d4356322063616e2063616c6c20746869732066756e6374696f6e6040820152601760f91b606082015260800190565b6020808252601590820152744f776e61626c653a207a65726f206164647265737360581b604082015260600190565b6020808252601c908201527f426f72696e674d6174683a2075696e74313238204f766572666c6f7700000000604082015260600190565b60208082526018908201527f426f72696e674d6174683a20416464204f766572666c6f770000000000000000604082015260600190565b6020808252818101527f4f776e61626c653a2063616c6c6572206973206e6f7420746865206f776e6572604082015260600190565b6020808252818101527f4f776e61626c653a2063616c6c657220213d2070656e64696e67206f776e6572604082015260600190565b6020808252601b908201527f426f72696e674d6174683a2075696e743634204f766572666c6f770000000000604082015260600190565b60208082526018908201527f426f72696e674d6174683a204d756c204f766572666c6f770000000000000000604082015260600190565b81516001600160801b031681526020808301516001600160401b0390811691830191909152604092830151169181019190915260600190565b6001600160801b039390931683526001600160401b03918216602084015216604082015260600190565b90815260200190565b918252602082015260400190565b6001600160401b0393909316835260208301919091526001600160801b0316604082015260600190565b6001600160a01b038116811461177657600080fd5b50565b801515811461177657600080fdfea26469706673582212206c7f5b85b5665196e4c7a21a9f47fe724ddfddd739a6d3ac504ba13831435c0c64736f6c634300060c0033",
  "immutableReferences": {
    "14413": [
      {
        "length": 32,
        "start": 1358
      },
      {
        "length": 32,
        "start": 3771
      }
    ],
    "14450": [
      {
        "length": 32,
        "start": 1167
      },
      {
        "length": 32,
        "start": 1674
      },
      {
        "length": 32,
        "start": 1823
      },
      {
        "length": 32,
        "start": 2433
      },
      {
        "length": 32,
        "start": 2582
      }
    ]
  },
  "source": "// SPDX-License-Identifier: MIT\n\npragma solidity 0.6.12;\npragma experimental ABIEncoderV2;\nimport \"../interfaces/IRewarder.sol\";\nimport \"@boringcrypto/boring-solidity/contracts/libraries/BoringERC20.sol\";\nimport \"@boringcrypto/boring-solidity/contracts/libraries/BoringMath.sol\";\nimport \"@boringcrypto/boring-solidity/contracts/BoringOwnable.sol\";\nimport \"../MamaPutV2.sol\";\n\n/// @author @0xKeno\ncontract ComplexRewarderTime is IRewarder,  BoringOwnable{\n    using BoringMath for uint256;\n    using BoringMath128 for uint128;\n    using BoringERC20 for IERC20;\n\n    IERC20 private immutable rewardToken;\n\n    /// @notice Info of each MCV2 user.\n    /// `amount` LP token amount the user has provided.\n    /// `rewardDebt` The amount of JOLLOF entitled to the user.\n    struct UserInfo {\n        uint256 amount;\n        uint256 rewardDebt;\n    }\n\n    /// @notice Info of each MCV2 pool.\n    /// `allocPoint` The amount of allocation points assigned to the pool.\n    /// Also known as the amount of JOLLOF to distribute per block.\n    struct PoolInfo {\n        uint128 accJollofPerShare;\n        uint64 lastRewardTime;\n        uint64 allocPoint;\n    }\n\n    /// @notice Info of each pool.\n    mapping (uint256 => PoolInfo) public poolInfo;\n\n    uint256[] public poolIds;\n\n    /// @notice Info of each user that stakes LP tokens.\n    mapping (uint256 => mapping (address => UserInfo)) public userInfo;\n    /// @dev Total allocation points. Must be the sum of all allocation points in all pools.\n    uint256 totalAllocPoint;\n\n    uint256 public rewardPerSecond;\n    uint256 private constant ACC_TOKEN_PRECISION = 1e12;\n\n    address private immutable MAMAPUT_V2;\n\n    event LogOnReward(address indexed user, uint256 indexed pid, uint256 amount, address indexed to);\n    event LogPoolAddition(uint256 indexed pid, uint256 allocPoint);\n    event LogSetPool(uint256 indexed pid, uint256 allocPoint);\n    event LogUpdatePool(uint256 indexed pid, uint64 lastRewardTime, uint256 lpSupply, uint256 accJollofPerShare);\n    event LogRewardPerSecond(uint256 rewardPerSecond);\n    event LogInit();\n\n    constructor (IERC20 _rewardToken, uint256 _rewardPerSecond, address _MAMAPUT_V2) public {\n        rewardToken = _rewardToken;\n        rewardPerSecond = _rewardPerSecond;\n        MAMAPUT_V2 = _MAMAPUT_V2;\n    }\n\n\n    function onJollofReward (uint256 pid, address _user, address to, uint256, uint256 lpToken) onlyMCV2 override external {\n        PoolInfo memory pool = updatePool(pid);\n        UserInfo storage user = userInfo[pid][_user];\n        uint256 pending;\n        if (user.amount > 0) {\n            pending =\n                (user.amount.mul(pool.accJollofPerShare) / ACC_TOKEN_PRECISION).sub(\n                    user.rewardDebt\n                );\n            rewardToken.safeTransfer(to, pending);\n        }\n        user.amount = lpToken;\n        user.rewardDebt = lpToken.mul(pool.accJollofPerShare) / ACC_TOKEN_PRECISION;\n        emit LogOnReward(_user, pid, pending, to);\n    }\n    \n    function pendingTokens(uint256 pid, address user, uint256) override external view returns (IERC20[] memory rewardTokens, uint256[] memory rewardAmounts) {\n        IERC20[] memory _rewardTokens = new IERC20[](1);\n        _rewardTokens[0] = (rewardToken);\n        uint256[] memory _rewardAmounts = new uint256[](1);\n        _rewardAmounts[0] = pendingToken(pid, user);\n        return (_rewardTokens, _rewardAmounts);\n    }\n\n    /// @notice Sets the jollof per second to be distributed. Can only be called by the owner.\n    /// @param _rewardPerSecond The amount of Jollof to be distributed per second.\n    function setRewardPerSecond(uint256 _rewardPerSecond) public onlyOwner {\n        rewardPerSecond = _rewardPerSecond;\n        emit LogRewardPerSecond(_rewardPerSecond);\n    }\n\n    modifier onlyMCV2 {\n        require(\n            msg.sender == MAMAPUT_V2,\n            \"Only MCV2 can call this function.\"\n        );\n        _;\n    }\n\n    /// @notice Returns the number of MCV2 pools.\n    function poolLength() public view returns (uint256 pools) {\n        pools = poolIds.length;\n    }\n\n    /// @notice Add a new LP to the pool. Can only be called by the owner.\n    /// DO NOT add the same LP token more than once. Rewards will be messed up if you do.\n    /// @param allocPoint AP of the new pool.\n    /// @param _pid Pid on MCV2\n    function add(uint256 allocPoint, uint256 _pid) public onlyOwner {\n        require(poolInfo[_pid].lastRewardTime == 0, \"Pool already exists\");\n        uint256 lastRewardTime = block.timestamp;\n        totalAllocPoint = totalAllocPoint.add(allocPoint);\n\n        poolInfo[_pid] = PoolInfo({\n            allocPoint: allocPoint.to64(),\n            lastRewardTime: lastRewardTime.to64(),\n            accJollofPerShare: 0\n        });\n        poolIds.push(_pid);\n        emit LogPoolAddition(_pid, allocPoint);\n    }\n\n    /// @notice Update the given pool's JOLLOF allocation point and `IRewarder` contract. Can only be called by the owner.\n    /// @param _pid The index of the pool. See `poolInfo`.\n    /// @param _allocPoint New AP of the pool.\n    function set(uint256 _pid, uint256 _allocPoint) public onlyOwner {\n        totalAllocPoint = totalAllocPoint.sub(poolInfo[_pid].allocPoint).add(_allocPoint);\n        poolInfo[_pid].allocPoint = _allocPoint.to64();\n        emit LogSetPool(_pid, _allocPoint);\n    }\n\n    /// @notice View function to see pending Token\n    /// @param _pid The index of the pool. See `poolInfo`.\n    /// @param _user Address of user.\n    /// @return pending JOLLOF reward for a given user.\n    function pendingToken(uint256 _pid, address _user) public view returns (uint256 pending) {\n        PoolInfo memory pool = poolInfo[_pid];\n        UserInfo storage user = userInfo[_pid][_user];\n        uint256 accJollofPerShare = pool.accJollofPerShare;\n        uint256 lpSupply = MamaPutV2(MAMAPUT_V2).lpToken(_pid).balanceOf(MAMAPUT_V2);\n        if (block.timestamp > pool.lastRewardTime && lpSupply != 0) {\n            uint256 time = block.timestamp.sub(pool.lastRewardTime);\n            uint256 jollofReward = time.mul(rewardPerSecond).mul(pool.allocPoint) / totalAllocPoint;\n            accJollofPerShare = accJollofPerShare.add(jollofReward.mul(ACC_TOKEN_PRECISION) / lpSupply);\n        }\n        pending = (user.amount.mul(accJollofPerShare) / ACC_TOKEN_PRECISION).sub(user.rewardDebt);\n    }\n\n    /// @notice Update reward variables for all pools. Be careful of gas spending!\n    /// @param pids Pool IDs of all to be updated. Make sure to update all active pools.\n    function massUpdatePools(uint256[] calldata pids) external {\n        uint256 len = pids.length;\n        for (uint256 i = 0; i < len; ++i) {\n            updatePool(pids[i]);\n        }\n    }\n\n    /// @notice Update reward variables of the given pool.\n    /// @param pid The index of the pool. See `poolInfo`.\n    /// @return pool Returns the pool that was updated.\n    function updatePool(uint256 pid) public returns (PoolInfo memory pool) {\n        pool = poolInfo[pid];\n        if (block.timestamp > pool.lastRewardTime) {\n            uint256 lpSupply = MamaPutV2(MAMAPUT_V2).lpToken(pid).balanceOf(MAMAPUT_V2);\n\n            if (lpSupply > 0) {\n                uint256 time = block.timestamp.sub(pool.lastRewardTime);\n                uint256 jollofReward = time.mul(rewardPerSecond).mul(pool.allocPoint) / totalAllocPoint;\n                pool.accJollofPerShare = pool.accJollofPerShare.add((jollofReward.mul(ACC_TOKEN_PRECISION) / lpSupply).to128());\n            }\n            pool.lastRewardTime = block.timestamp.to64();\n            poolInfo[pid] = pool;\n            emit LogUpdatePool(pid, pool.lastRewardTime, lpSupply, pool.accJollofPerShare);\n        }\n    }\n\n}\n",
  "sourcePath": "/home/akanimoh/Documents/ultimate3/sushiswapw/contracts/mocks/ComplexRewarderTime.sol",
  "compiler": {
    "name": "solc",
    "version": "0.6.12+commit.27d51765.Emscripten.clang"
  },
  "schemaVersion": "3.4.1",
  "updatedAt": "2021-07-30T15:51:13.552Z",
  "devdoc": {
    "author": "@0xKeno",
    "kind": "dev",
    "methods": {
      "add(uint256,uint256)": {
        "params": {
          "_pid": "Pid on MCV2",
          "allocPoint": "AP of the new pool."
        }
      },
      "massUpdatePools(uint256[])": {
        "params": {
          "pids": "Pool IDs of all to be updated. Make sure to update all active pools."
        }
      },
      "pendingToken(uint256,address)": {
        "params": {
          "_pid": "The index of the pool. See `poolInfo`.",
          "_user": "Address of user."
        },
        "returns": {
          "pending": "JOLLOF reward for a given user."
        }
      },
      "set(uint256,uint256)": {
        "params": {
          "_allocPoint": "New AP of the pool.",
          "_pid": "The index of the pool. See `poolInfo`."
        }
      },
      "setRewardPerSecond(uint256)": {
        "params": {
          "_rewardPerSecond": "The amount of Jollof to be distributed per second."
        }
      },
      "updatePool(uint256)": {
        "params": {
          "pid": "The index of the pool. See `poolInfo`."
        },
        "returns": {
          "pool": "Returns the pool that was updated."
        }
      }
    },
    "stateVariables": {
      "totalAllocPoint": {
        "details": "Total allocation points. Must be the sum of all allocation points in all pools."
      }
    },
    "version": 1
  },
  "userdoc": {
    "kind": "user",
    "methods": {
      "add(uint256,uint256)": {
        "notice": "Add a new LP to the pool. Can only be called by the owner. DO NOT add the same LP token more than once. Rewards will be messed up if you do."
      },
      "massUpdatePools(uint256[])": {
        "notice": "Update reward variables for all pools. Be careful of gas spending!"
      },
      "pendingToken(uint256,address)": {
        "notice": "View function to see pending Token"
      },
      "poolInfo(uint256)": {
        "notice": "Info of each pool."
      },
      "poolLength()": {
        "notice": "Returns the number of MCV2 pools."
      },
      "set(uint256,uint256)": {
        "notice": "Update the given pool's JOLLOF allocation point and `IRewarder` contract. Can only be called by the owner."
      },
      "setRewardPerSecond(uint256)": {
        "notice": "Sets the jollof per second to be distributed. Can only be called by the owner."
      },
      "updatePool(uint256)": {
        "notice": "Update reward variables of the given pool."
      },
      "userInfo(uint256,address)": {
        "notice": "Info of each user that stakes LP tokens."
      }
    },
    "version": 1
  }
}