{
  "contractName": "MamaPut",
  "abi": [
    {
      "inputs": [
        {
          "internalType": "contract JollofToken",
          "name": "_jollof",
          "type": "address"
        },
        {
          "internalType": "address",
          "name": "_devaddr",
          "type": "address"
        },
        {
          "internalType": "uint256",
          "name": "_jollofPerBlock",
          "type": "uint256"
        },
        {
          "internalType": "uint256",
          "name": "_startBlock",
          "type": "uint256"
        },
        {
          "internalType": "uint256",
          "name": "_bonusEndBlock",
          "type": "uint256"
        }
      ],
      "stateMutability": "nonpayable",
      "type": "constructor"
    },
    {
      "anonymous": false,
      "inputs": [
        {
          "indexed": true,
          "internalType": "address",
          "name": "user",
          "type": "address"
        },
        {
          "indexed": true,
          "internalType": "uint256",
          "name": "pid",
          "type": "uint256"
        },
        {
          "indexed": false,
          "internalType": "uint256",
          "name": "amount",
          "type": "uint256"
        }
      ],
      "name": "Deposit",
      "type": "event"
    },
    {
      "anonymous": false,
      "inputs": [
        {
          "indexed": true,
          "internalType": "address",
          "name": "user",
          "type": "address"
        },
        {
          "indexed": true,
          "internalType": "uint256",
          "name": "pid",
          "type": "uint256"
        },
        {
          "indexed": false,
          "internalType": "uint256",
          "name": "amount",
          "type": "uint256"
        }
      ],
      "name": "EmergencyWithdraw",
      "type": "event"
    },
    {
      "anonymous": false,
      "inputs": [
        {
          "indexed": true,
          "internalType": "address",
          "name": "previousOwner",
          "type": "address"
        },
        {
          "indexed": true,
          "internalType": "address",
          "name": "newOwner",
          "type": "address"
        }
      ],
      "name": "OwnershipTransferred",
      "type": "event"
    },
    {
      "anonymous": false,
      "inputs": [
        {
          "indexed": true,
          "internalType": "address",
          "name": "user",
          "type": "address"
        },
        {
          "indexed": true,
          "internalType": "uint256",
          "name": "pid",
          "type": "uint256"
        },
        {
          "indexed": false,
          "internalType": "uint256",
          "name": "amount",
          "type": "uint256"
        }
      ],
      "name": "Withdraw",
      "type": "event"
    },
    {
      "inputs": [],
      "name": "BONUS_MULTIPLIER",
      "outputs": [
        {
          "internalType": "uint256",
          "name": "",
          "type": "uint256"
        }
      ],
      "stateMutability": "view",
      "type": "function",
      "constant": true
    },
    {
      "inputs": [],
      "name": "bonusEndBlock",
      "outputs": [
        {
          "internalType": "uint256",
          "name": "",
          "type": "uint256"
        }
      ],
      "stateMutability": "view",
      "type": "function",
      "constant": true
    },
    {
      "inputs": [],
      "name": "devaddr",
      "outputs": [
        {
          "internalType": "address",
          "name": "",
          "type": "address"
        }
      ],
      "stateMutability": "view",
      "type": "function",
      "constant": true
    },
    {
      "inputs": [],
      "name": "jollof",
      "outputs": [
        {
          "internalType": "contract JollofToken",
          "name": "",
          "type": "address"
        }
      ],
      "stateMutability": "view",
      "type": "function",
      "constant": true
    },
    {
      "inputs": [],
      "name": "jollofPerBlock",
      "outputs": [
        {
          "internalType": "uint256",
          "name": "",
          "type": "uint256"
        }
      ],
      "stateMutability": "view",
      "type": "function",
      "constant": true
    },
    {
      "inputs": [],
      "name": "migrator",
      "outputs": [
        {
          "internalType": "contract IMigratorChef",
          "name": "",
          "type": "address"
        }
      ],
      "stateMutability": "view",
      "type": "function",
      "constant": true
    },
    {
      "inputs": [],
      "name": "owner",
      "outputs": [
        {
          "internalType": "address",
          "name": "",
          "type": "address"
        }
      ],
      "stateMutability": "view",
      "type": "function",
      "constant": true
    },
    {
      "inputs": [
        {
          "internalType": "uint256",
          "name": "",
          "type": "uint256"
        }
      ],
      "name": "poolInfo",
      "outputs": [
        {
          "internalType": "contract IERC20",
          "name": "lpToken",
          "type": "address"
        },
        {
          "internalType": "uint256",
          "name": "allocPoint",
          "type": "uint256"
        },
        {
          "internalType": "uint256",
          "name": "lastRewardBlock",
          "type": "uint256"
        },
        {
          "internalType": "uint256",
          "name": "accJollofPerShare",
          "type": "uint256"
        }
      ],
      "stateMutability": "view",
      "type": "function",
      "constant": true
    },
    {
      "inputs": [],
      "name": "renounceOwnership",
      "outputs": [],
      "stateMutability": "nonpayable",
      "type": "function"
    },
    {
      "inputs": [],
      "name": "startBlock",
      "outputs": [
        {
          "internalType": "uint256",
          "name": "",
          "type": "uint256"
        }
      ],
      "stateMutability": "view",
      "type": "function",
      "constant": true
    },
    {
      "inputs": [],
      "name": "totalAllocPoint",
      "outputs": [
        {
          "internalType": "uint256",
          "name": "",
          "type": "uint256"
        }
      ],
      "stateMutability": "view",
      "type": "function",
      "constant": true
    },
    {
      "inputs": [
        {
          "internalType": "address",
          "name": "newOwner",
          "type": "address"
        }
      ],
      "name": "transferOwnership",
      "outputs": [],
      "stateMutability": "nonpayable",
      "type": "function"
    },
    {
      "inputs": [
        {
          "internalType": "uint256",
          "name": "",
          "type": "uint256"
        },
        {
          "internalType": "address",
          "name": "",
          "type": "address"
        }
      ],
      "name": "userInfo",
      "outputs": [
        {
          "internalType": "uint256",
          "name": "amount",
          "type": "uint256"
        },
        {
          "internalType": "uint256",
          "name": "rewardDebt",
          "type": "uint256"
        }
      ],
      "stateMutability": "view",
      "type": "function",
      "constant": true
    },
    {
      "inputs": [],
      "name": "poolLength",
      "outputs": [
        {
          "internalType": "uint256",
          "name": "",
          "type": "uint256"
        }
      ],
      "stateMutability": "view",
      "type": "function",
      "constant": true
    },
    {
      "inputs": [
        {
          "internalType": "uint256",
          "name": "_allocPoint",
          "type": "uint256"
        },
        {
          "internalType": "contract IERC20",
          "name": "_lpToken",
          "type": "address"
        },
        {
          "internalType": "bool",
          "name": "_withUpdate",
          "type": "bool"
        }
      ],
      "name": "add",
      "outputs": [],
      "stateMutability": "nonpayable",
      "type": "function"
    },
    {
      "inputs": [
        {
          "internalType": "uint256",
          "name": "_pid",
          "type": "uint256"
        },
        {
          "internalType": "uint256",
          "name": "_allocPoint",
          "type": "uint256"
        },
        {
          "internalType": "bool",
          "name": "_withUpdate",
          "type": "bool"
        }
      ],
      "name": "set",
      "outputs": [],
      "stateMutability": "nonpayable",
      "type": "function"
    },
    {
      "inputs": [
        {
          "internalType": "contract IMigratorChef",
          "name": "_migrator",
          "type": "address"
        }
      ],
      "name": "setMigrator",
      "outputs": [],
      "stateMutability": "nonpayable",
      "type": "function"
    },
    {
      "inputs": [
        {
          "internalType": "uint256",
          "name": "_pid",
          "type": "uint256"
        }
      ],
      "name": "migrate",
      "outputs": [],
      "stateMutability": "nonpayable",
      "type": "function"
    },
    {
      "inputs": [
        {
          "internalType": "uint256",
          "name": "_from",
          "type": "uint256"
        },
        {
          "internalType": "uint256",
          "name": "_to",
          "type": "uint256"
        }
      ],
      "name": "getMultiplier",
      "outputs": [
        {
          "internalType": "uint256",
          "name": "",
          "type": "uint256"
        }
      ],
      "stateMutability": "view",
      "type": "function",
      "constant": true
    },
    {
      "inputs": [
        {
          "internalType": "uint256",
          "name": "_pid",
          "type": "uint256"
        },
        {
          "internalType": "address",
          "name": "_user",
          "type": "address"
        }
      ],
      "name": "pendingJollof",
      "outputs": [
        {
          "internalType": "uint256",
          "name": "",
          "type": "uint256"
        }
      ],
      "stateMutability": "view",
      "type": "function",
      "constant": true
    },
    {
      "inputs": [],
      "name": "massUpdatePools",
      "outputs": [],
      "stateMutability": "nonpayable",
      "type": "function"
    },
    {
      "inputs": [
        {
          "internalType": "uint256",
          "name": "_pid",
          "type": "uint256"
        }
      ],
      "name": "updatePool",
      "outputs": [],
      "stateMutability": "nonpayable",
      "type": "function"
    },
    {
      "inputs": [
        {
          "internalType": "uint256",
          "name": "_pid",
          "type": "uint256"
        },
        {
          "internalType": "uint256",
          "name": "_amount",
          "type": "uint256"
        }
      ],
      "name": "deposit",
      "outputs": [],
      "stateMutability": "nonpayable",
      "type": "function"
    },
    {
      "inputs": [
        {
          "internalType": "uint256",
          "name": "_pid",
          "type": "uint256"
        },
        {
          "internalType": "uint256",
          "name": "_amount",
          "type": "uint256"
        }
      ],
      "name": "withdraw",
      "outputs": [],
      "stateMutability": "nonpayable",
      "type": "function"
    },
    {
      "inputs": [
        {
          "internalType": "uint256",
          "name": "_pid",
          "type": "uint256"
        }
      ],
      "name": "emergencyWithdraw",
      "outputs": [],
      "stateMutability": "nonpayable",
      "type": "function"
    },
    {
      "inputs": [
        {
          "internalType": "address",
          "name": "_devaddr",
          "type": "address"
        }
      ],
      "name": "dev",
      "outputs": [],
      "stateMutability": "nonpayable",
      "type": "function"
    }
  ],
  "bytecode": "0x6080604052600060085534801561001557600080fd5b50604051611d5d380380611d5d833981810160405260a081101561003857600080fd5b5080516020820151604083015160608401516080909401519293919290919060006100616100e9565b600080546001600160a01b0319166001600160a01b0383169081178255604051929350917f8be0079c531659141344cd1fd0a4f28419497f9722a3daafe3b4186f6b6457e0908290a350600180546001600160a01b039687166001600160a01b03199182161790915560028054959096169416939093179093556004556003556009556100ed565b3390565b611c61806100fc6000396000f3fe608060405234801561001057600080fd5b506004361061018e5760003560e01c806364482f79116100de5780638da5cb5b11610097578063d49e77cd11610071578063d49e77cd14610419578063e2bbb15814610421578063ecac2a5314610444578063f2fde38b1461044c5761018e565b80638da5cb5b146103a95780638dbb1e3a146103b157806393f1a40b146103d45761018e565b806364482f791461031c578063715018a6146103475780637cd07e471461034f5780638aa28550146103735780638d4de7971461037b5780638d88a90e146103835761018e565b8063441a3e701161014b57806351eb05a61161012557806351eb05a6146102ae5780635312ea8e146102cb57806356a3b645146102e8578063630b5ba1146103145761018e565b8063441a3e7014610266578063454b06081461028957806348cd4cb1146102a65761018e565b8063081e3eda146101935780631526fe27146101ad57806317caf6f1146101fa5780631aed6553146102025780631eaaa0451461020a57806323cf311814610240575b600080fd5b61019b610472565b60408051918252519081900360200190f35b6101ca600480360360208110156101c357600080fd5b5035610478565b604080516001600160a01b0390951685526020850193909352838301919091526060830152519081900360800190f35b61019b6104b9565b61019b6104bf565b61023e6004803603606081101561022057600080fd5b508035906001600160a01b03602082013516906040013515156104c5565b005b61023e6004803603602081101561025657600080fd5b50356001600160a01b031661064a565b61023e6004803603604081101561027c57600080fd5b50803590602001356106ce565b61023e6004803603602081101561029f57600080fd5b5035610821565b61019b610a7d565b61023e600480360360208110156102c457600080fd5b5035610a83565b61023e600480360360208110156102e157600080fd5b5035610caa565b61019b600480360360408110156102fe57600080fd5b50803590602001356001600160a01b0316610d45565b61023e610ea9565b61023e6004803603606081101561033257600080fd5b50803590602081013590604001351515610ecc565b61023e610fa7565b610357611053565b604080516001600160a01b039092168252519081900360200190f35b61019b611062565b61019b611067565b61023e6004803603602081101561039957600080fd5b50356001600160a01b031661106d565b6103576110da565b61019b600480360360408110156103c757600080fd5b50803590602001356110e9565b610400600480360360408110156103ea57600080fd5b50803590602001356001600160a01b031661114f565b6040805192835260208301919091528051918290030190f35b610357611173565b61023e6004803603604081101561043757600080fd5b5080359060200135611182565b610357611287565b61023e6004803603602081101561046257600080fd5b50356001600160a01b0316611296565b60065490565b6006818154811061048557fe5b600091825260209091206004909102018054600182015460028301546003909301546001600160a01b039092169350919084565b60085481565b60035481565b6104cd611398565b6001600160a01b03166104de6110da565b6001600160a01b031614610527576040805162461bcd60e51b81526020600482018190526024820152600080516020611bac833981519152604482015290519081900360640190fd5b801561053557610535610ea9565b600060095443116105485760095461054a565b435b60085490915061055a908561139c565b600855604080516080810182526001600160a01b0394851681526020810195865290810191825260006060820181815260068054600181018255925291517ff652222313e28459528d920b65115c16c04f3efc82aaedc97be59f3f377c0d3f600490920291820180546001600160a01b031916919096161790945593517ff652222313e28459528d920b65115c16c04f3efc82aaedc97be59f3f377c0d40840155517ff652222313e28459528d920b65115c16c04f3efc82aaedc97be59f3f377c0d418301555090517ff652222313e28459528d920b65115c16c04f3efc82aaedc97be59f3f377c0d4290910155565b610652611398565b6001600160a01b03166106636110da565b6001600160a01b0316146106ac576040805162461bcd60e51b81526020600482018190526024820152600080516020611bac833981519152604482015290519081900360640190fd5b600580546001600160a01b0319166001600160a01b0392909216919091179055565b6000600683815481106106dd57fe5b600091825260208083208684526007825260408085203386529092529220805460049092029092019250831115610750576040805162461bcd60e51b81526020600482015260126024820152711dda5d1a191c985dce881b9bdd0819dbdbd960721b604482015290519081900360640190fd5b61075984610a83565b6000610793826001015461078d64e8d4a51000610787876003015487600001546113fd90919063ffffffff16565b90611456565b906114bd565b905061079f338261151a565b81546107ab90856114bd565b80835560038401546107c89164e8d4a510009161078791906113fd565b600183015582546107e3906001600160a01b031633866116ab565b604080518581529051869133917ff279e6a1f5e320cca91135676d9cb6e44ca8a08c0b88342bcdb1144f6511b5689181900360200190a35050505050565b6005546001600160a01b0316610875576040805162461bcd60e51b815260206004820152601460248201527336b4b3b930ba329d1037379036b4b3b930ba37b960611b604482015290519081900360640190fd5b60006006828154811061088457fe5b600091825260208083206004928302018054604080516370a0823160e01b81523095810195909552519195506001600160a01b0316939284926370a0823192602480840193829003018186803b1580156108dd57600080fd5b505afa1580156108f1573d6000803e3d6000fd5b505050506040513d602081101561090757600080fd5b5051600554909150610926906001600160a01b038481169116836116fd565b6005546040805163ce5494bb60e01b81526001600160a01b0385811660048301529151600093929092169163ce5494bb9160248082019260209290919082900301818787803b15801561097857600080fd5b505af115801561098c573d6000803e3d6000fd5b505050506040513d60208110156109a257600080fd5b5051604080516370a0823160e01b815230600482015290519192506001600160a01b038316916370a0823191602480820192602092909190829003018186803b1580156109ee57600080fd5b505afa158015610a02573d6000803e3d6000fd5b505050506040513d6020811015610a1857600080fd5b50518214610a5c576040805162461bcd60e51b815260206004820152600c60248201526b1b5a59dc985d194e8818985960a21b604482015290519081900360640190fd5b83546001600160a01b0319166001600160a01b039190911617909255505050565b60095481565b600060068281548110610a9257fe5b9060005260206000209060040201905080600201544311610ab35750610ca7565b8054604080516370a0823160e01b815230600482015290516000926001600160a01b0316916370a08231916024808301926020929190829003018186803b158015610afd57600080fd5b505afa158015610b11573d6000803e3d6000fd5b505050506040513d6020811015610b2757600080fd5b5051905080610b3d575043600290910155610ca7565b6000610b4d8360020154436110e9565b90506000610b7a6008546107878660010154610b74600454876113fd90919063ffffffff16565b906113fd565b6001546002549192506001600160a01b03908116916340c10f199116610ba184600a611456565b6040518363ffffffff1660e01b815260040180836001600160a01b0316815260200182815260200192505050600060405180830381600087803b158015610be757600080fd5b505af1158015610bfb573d6000803e3d6000fd5b5050600154604080516340c10f1960e01b81523060048201526024810186905290516001600160a01b0390921693506340c10f19925060448082019260009290919082900301818387803b158015610c5257600080fd5b505af1158015610c66573d6000803e3d6000fd5b50505050610c94610c898461078764e8d4a51000856113fd90919063ffffffff16565b60038601549061139c565b6003850155505043600290920191909155505b50565b600060068281548110610cb957fe5b60009182526020808320858452600782526040808520338087529352909320805460049093029093018054909450610cfe926001600160a01b039190911691906116ab565b80546040805191825251849133917fbb757047c2b5f3974fe26b7c10f732e7bce710b0952a71082702781e62ae05959181900360200190a360008082556001909101555050565b60008060068481548110610d5557fe5b600091825260208083208784526007825260408085206001600160a01b03898116875290845281862060049586029093016003810154815484516370a0823160e01b81523098810198909852935191985093969395939492909116926370a08231926024808301939192829003018186803b158015610dd357600080fd5b505afa158015610de7573d6000803e3d6000fd5b505050506040513d6020811015610dfd57600080fd5b5051600285015490915043118015610e1457508015155b15610e74576000610e298560020154436110e9565b90506000610e506008546107878860010154610b74600454876113fd90919063ffffffff16565b9050610e6f610e68846107878464e8d4a510006113fd565b859061139c565b935050505b610e9c836001015461078d64e8d4a510006107878688600001546113fd90919063ffffffff16565b9450505050505b92915050565b60065460005b81811015610ec857610ec081610a83565b600101610eaf565b5050565b610ed4611398565b6001600160a01b0316610ee56110da565b6001600160a01b031614610f2e576040805162461bcd60e51b81526020600482018190526024820152600080516020611bac833981519152604482015290519081900360640190fd5b8015610f3c57610f3c610ea9565b610f7982610f7360068681548110610f5057fe5b9060005260206000209060040201600101546008546114bd90919063ffffffff16565b9061139c565b6008819055508160068481548110610f8d57fe5b906000526020600020906004020160010181905550505050565b610faf611398565b6001600160a01b0316610fc06110da565b6001600160a01b031614611009576040805162461bcd60e51b81526020600482018190526024820152600080516020611bac833981519152604482015290519081900360640190fd5b600080546040516001600160a01b03909116907f8be0079c531659141344cd1fd0a4f28419497f9722a3daafe3b4186f6b6457e0908390a3600080546001600160a01b0319169055565b6005546001600160a01b031681565b600a81565b60045481565b6002546001600160a01b031633146110b8576040805162461bcd60e51b81526020600482015260096024820152686465763a207775743f60b81b604482015290519081900360640190fd5b600280546001600160a01b0319166001600160a01b0392909216919091179055565b6000546001600160a01b031690565b6000600354821161110a57611103600a610b7484866114bd565b9050610ea3565b600354831061111d5761110382846114bd565b611103611135600354846114bd90919063ffffffff16565b610f73600a610b74876003546114bd90919063ffffffff16565b60076020908152600092835260408084209091529082529020805460019091015482565b6002546001600160a01b031681565b60006006838154811061119157fe5b600091825260208083208684526007825260408085203386529092529220600490910290910191506111c284610a83565b8054156112055760006111f7826001015461078d64e8d4a51000610787876003015487600001546113fd90919063ffffffff16565b9050611203338261151a565b505b815461121c906001600160a01b0316333086611810565b8054611228908461139c565b80825560038301546112459164e8d4a510009161078791906113fd565b6001820155604080518481529051859133917f90890809c654f11d6e72a28fa60149770a0d11ec6c92319d6ceb2bb0a4ea1a159181900360200190a350505050565b6001546001600160a01b031681565b61129e611398565b6001600160a01b03166112af6110da565b6001600160a01b0316146112f8576040805162461bcd60e51b81526020600482018190526024820152600080516020611bac833981519152604482015290519081900360640190fd5b6001600160a01b03811661133d5760405162461bcd60e51b8152600401808060200182810382526026815260200180611b3f6026913960400191505060405180910390fd5b600080546040516001600160a01b03808516939216917f8be0079c531659141344cd1fd0a4f28419497f9722a3daafe3b4186f6b6457e091a3600080546001600160a01b0319166001600160a01b0392909216919091179055565b3390565b6000828201838110156113f6576040805162461bcd60e51b815260206004820152601b60248201527f536166654d6174683a206164646974696f6e206f766572666c6f770000000000604482015290519081900360640190fd5b9392505050565b60008261140c57506000610ea3565b8282028284828161141957fe5b04146113f65760405162461bcd60e51b8152600401808060200182810382526021815260200180611b8b6021913960400191505060405180910390fd5b60008082116114ac576040805162461bcd60e51b815260206004820152601a60248201527f536166654d6174683a206469766973696f6e206279207a65726f000000000000604482015290519081900360640190fd5b8183816114b557fe5b049392505050565b600082821115611514576040805162461bcd60e51b815260206004820152601e60248201527f536166654d6174683a207375627472616374696f6e206f766572666c6f770000604482015290519081900360640190fd5b50900390565b600154604080516370a0823160e01b815230600482015290516000926001600160a01b0316916370a08231916024808301926020929190829003018186803b15801561156557600080fd5b505afa158015611579573d6000803e3d6000fd5b505050506040513d602081101561158f57600080fd5b5051905080821115611623576001546040805163a9059cbb60e01b81526001600160a01b038681166004830152602482018590529151919092169163a9059cbb9160448083019260209291908290030181600087803b1580156115f157600080fd5b505af1158015611605573d6000803e3d6000fd5b505050506040513d602081101561161b57600080fd5b506116a69050565b6001546040805163a9059cbb60e01b81526001600160a01b038681166004830152602482018690529151919092169163a9059cbb9160448083019260209291908290030181600087803b15801561167957600080fd5b505af115801561168d573d6000803e3d6000fd5b505050506040513d60208110156116a357600080fd5b50505b505050565b604080516001600160a01b038416602482015260448082018490528251808303909101815260649091019091526020810180516001600160e01b031663a9059cbb60e01b1790526116a6908490611870565b801580611783575060408051636eb1769f60e11b81523060048201526001600160a01b03848116602483015291519185169163dd62ed3e91604480820192602092909190829003018186803b15801561175557600080fd5b505afa158015611769573d6000803e3d6000fd5b505050506040513d602081101561177f57600080fd5b5051155b6117be5760405162461bcd60e51b8152600401808060200182810382526036815260200180611bf66036913960400191505060405180910390fd5b604080516001600160a01b038416602482015260448082018490528251808303909101815260649091019091526020810180516001600160e01b031663095ea7b360e01b1790526116a6908490611870565b604080516001600160a01b0380861660248301528416604482015260648082018490528251808303909101815260849091019091526020810180516001600160e01b03166323b872dd60e01b17905261186a908590611870565b50505050565b60606118c5826040518060400160405280602081526020017f5361666545524332303a206c6f772d6c6576656c2063616c6c206661696c6564815250856001600160a01b03166119219092919063ffffffff16565b8051909150156116a6578080602001905160208110156118e457600080fd5b50516116a65760405162461bcd60e51b815260040180806020018281038252602a815260200180611bcc602a913960400191505060405180910390fd5b60606119308484600085611938565b949350505050565b6060824710156119795760405162461bcd60e51b8152600401808060200182810382526026815260200180611b656026913960400191505060405180910390fd5b61198285611a94565b6119d3576040805162461bcd60e51b815260206004820152601d60248201527f416464726573733a2063616c6c20746f206e6f6e2d636f6e7472616374000000604482015290519081900360640190fd5b60006060866001600160a01b031685876040518082805190602001908083835b60208310611a125780518252601f1990920191602091820191016119f3565b6001836020036101000a03801982511681845116808217855250505050505090500191505060006040518083038185875af1925050503d8060008114611a74576040519150601f19603f3d011682016040523d82523d6000602084013e611a79565b606091505b5091509150611a89828286611a9a565b979650505050505050565b3b151590565b60608315611aa95750816113f6565b825115611ab95782518084602001fd5b8160405162461bcd60e51b81526004018080602001828103825283818151815260200191508051906020019080838360005b83811015611b03578181015183820152602001611aeb565b50505050905090810190601f168015611b305780820380516001836020036101000a031916815260200191505b509250505060405180910390fdfe4f776e61626c653a206e6577206f776e657220697320746865207a65726f2061646472657373416464726573733a20696e73756666696369656e742062616c616e636520666f722063616c6c536166654d6174683a206d756c7469706c69636174696f6e206f766572666c6f774f776e61626c653a2063616c6c6572206973206e6f7420746865206f776e65725361666545524332303a204552433230206f7065726174696f6e20646964206e6f7420737563636565645361666545524332303a20617070726f76652066726f6d206e6f6e2d7a65726f20746f206e6f6e2d7a65726f20616c6c6f77616e6365a2646970667358221220addab32015338ac20a26bc0cb4805e85b9e317e6dd9d0a8a79ef318a55294f2764736f6c634300060c0033",
  "immutableReferences": {},
  "source": "// SPDX-License-Identifier: MIT\n\npragma solidity 0.6.12;\n\nimport \"@openzeppelin/contracts/token/ERC20/IERC20.sol\";\nimport \"@openzeppelin/contracts/token/ERC20/SafeERC20.sol\";\nimport \"@openzeppelin/contracts/utils/EnumerableSet.sol\";\nimport \"@openzeppelin/contracts/math/SafeMath.sol\";\nimport \"@openzeppelin/contracts/access/Ownable.sol\";\nimport \"./JollofToken.sol\";\n\ninterface IMigratorChef {\n    // Perform LP token migration from legacy UniswapV2 to JollofSwap.\n    // Take the current LP token address and return the new LP token address.\n    // Migrator should have full access to the caller's LP token.\n    // Return the new LP token address.\n    //\n    // XXX Migrator must have allowance access to UniswapV2 LP tokens.\n    // JollofSwap must mint EXACTLY the same amount of JollofSwap LP tokens or\n    // else something bad will happen. Traditional UniswapV2 does not\n    // do that so be careful!\n    function migrate(IERC20 token) external returns (IERC20);\n}\n\n// MamaPut is the master of Jollof. He can cook Jollof and he is a correct guy.\n// Note that it's ownable and the owner wields tremendous power. The ownership\n// will be transferred to a governance smart contract once JOLLOF is sufficiently\n// distributed and the community can show to govern itself.\n//\n// Have fun reading it. Hopefully it's bug-free. God bless.\n\ncontract MamaPut is Ownable {\n    using SafeMath for uint256;\n    using SafeERC20 for IERC20;\n    // Info of each user.\n    struct UserInfo {\n        uint256 amount; // How many LP tokens the user has provided.\n        uint256 rewardDebt; // Reward debt. See explanation below.\n        //\n        // We do some fancy math here. Basically, any point in time, the amount of JOLLOF\n        // entitled to a user but is pending to be distributed is:\n        //\n        //   pending reward = (user.amount * pool.accJollofPerShare) - user.rewardDebt\n        //\n        // Whenever a user deposits or withdraws LP tokens to a pool. Here's what happens:\n        //   1. The pool's `accJollofPerShare` (and `lastRewardBlock`) gets updated.\n        //   2. User receives the pending reward sent to his/her address.\n        //   3. User's `amount` gets updated.\n        //   4. User's `rewardDebt` gets updated.\n    }\n    // Info of each pool.\n    struct PoolInfo {\n        IERC20 lpToken; // Address of LP token contract.\n        uint256 allocPoint; // How many allocation points assigned to this pool. JOLLOFs to distribute per block.\n        uint256 lastRewardBlock; // Last block number that JOLLOFs distribution occurs.\n        uint256 accJollofPerShare; // Accumulated JOLLOFs per share, times 1e12. See below.\n    }\n    // The JOLLOF TOKEN!\n    JollofToken public jollof;\n    // Dev address.\n    address public devaddr;\n    // Block number when bonus JOLLOF period ends.\n    uint256 public bonusEndBlock;\n    // JOLLOF tokens created per block.\n    uint256 public jollofPerBlock;\n    // Bonus muliplier for early jollof makers.\n    uint256 public constant BONUS_MULTIPLIER = 10;\n    // The migrator contract. It has a lot of power. Can only be set through governance (owner).\n    IMigratorChef public migrator;\n    // Info of each pool.\n    PoolInfo[] public poolInfo;\n    // Info of each user that stakes LP tokens.\n    mapping(uint256 => mapping(address => UserInfo)) public userInfo;\n    // Total allocation points. Must be the sum of all allocation points in all pools.\n    uint256 public totalAllocPoint = 0;\n    // The block number when JOLLOF mining starts.\n    uint256 public startBlock;\n    event Deposit(address indexed user, uint256 indexed pid, uint256 amount);\n    event Withdraw(address indexed user, uint256 indexed pid, uint256 amount);\n    event EmergencyWithdraw(\n        address indexed user,\n        uint256 indexed pid,\n        uint256 amount\n    );\n\n    constructor(\n        JollofToken _jollof,\n        address _devaddr,\n        uint256 _jollofPerBlock,\n        uint256 _startBlock,\n        uint256 _bonusEndBlock\n    ) public {\n        jollof = _jollof;\n        devaddr = _devaddr;\n        jollofPerBlock = _jollofPerBlock;\n        bonusEndBlock = _bonusEndBlock;\n        startBlock = _startBlock;\n    }\n\n    function poolLength() external view returns (uint256) {\n        return poolInfo.length;\n    }\n\n    // Add a new lp to the pool. Can only be called by the owner.\n    // XXX DO NOT add the same LP token more than once. Rewards will be messed up if you do.\n    function add(\n        uint256 _allocPoint,\n        IERC20 _lpToken,\n        bool _withUpdate\n    ) public onlyOwner {\n        if (_withUpdate) {\n            massUpdatePools();\n        }\n        uint256 lastRewardBlock =\n            block.number > startBlock ? block.number : startBlock;\n        totalAllocPoint = totalAllocPoint.add(_allocPoint);\n        poolInfo.push(\n            PoolInfo({\n                lpToken: _lpToken,\n                allocPoint: _allocPoint,\n                lastRewardBlock: lastRewardBlock,\n                accJollofPerShare: 0\n            })\n        );\n    }\n\n    // Update the given pool's JOLLOF allocation point. Can only be called by the owner.\n    function set(\n        uint256 _pid,\n        uint256 _allocPoint,\n        bool _withUpdate\n    ) public onlyOwner {\n        if (_withUpdate) {\n            massUpdatePools();\n        }\n        totalAllocPoint = totalAllocPoint.sub(poolInfo[_pid].allocPoint).add(\n            _allocPoint\n        );\n        poolInfo[_pid].allocPoint = _allocPoint;\n    }\n\n    // Set the migrator contract. Can only be called by the owner.\n    function setMigrator(IMigratorChef _migrator) public onlyOwner {\n        migrator = _migrator;\n    }\n\n    // Migrate lp token to another lp contract. Can be called by anyone. We trust that migrator contract is good.\n    function migrate(uint256 _pid) public {\n        require(address(migrator) != address(0), \"migrate: no migrator\");\n        PoolInfo storage pool = poolInfo[_pid];\n        IERC20 lpToken = pool.lpToken;\n        uint256 bal = lpToken.balanceOf(address(this));\n        lpToken.safeApprove(address(migrator), bal);\n        IERC20 newLpToken = migrator.migrate(lpToken);\n        require(bal == newLpToken.balanceOf(address(this)), \"migrate: bad\");\n        pool.lpToken = newLpToken;\n    }\n\n    // Return reward multiplier over the given _from to _to block.\n    function getMultiplier(uint256 _from, uint256 _to)\n        public\n        view\n        returns (uint256)\n    {\n        if (_to <= bonusEndBlock) {\n            return _to.sub(_from).mul(BONUS_MULTIPLIER);\n        } else if (_from >= bonusEndBlock) {\n            return _to.sub(_from);\n        } else {\n            return\n                bonusEndBlock.sub(_from).mul(BONUS_MULTIPLIER).add(\n                    _to.sub(bonusEndBlock)\n                );\n        }\n    }\n\n    // View function to see pending JOLLOFs on frontend.\n    function pendingJollof(uint256 _pid, address _user)\n        external\n        view\n        returns (uint256)\n    {\n        PoolInfo storage pool = poolInfo[_pid];\n        UserInfo storage user = userInfo[_pid][_user];\n        uint256 accJollofPerShare = pool.accJollofPerShare;\n        uint256 lpSupply = pool.lpToken.balanceOf(address(this));\n        if (block.number > pool.lastRewardBlock && lpSupply != 0) {\n            uint256 multiplier =\n                getMultiplier(pool.lastRewardBlock, block.number);\n            uint256 jollofReward =\n                multiplier.mul(jollofPerBlock).mul(pool.allocPoint).div(\n                    totalAllocPoint\n                );\n            accJollofPerShare = accJollofPerShare.add(\n                jollofReward.mul(1e12).div(lpSupply)\n            );\n        }\n        return user.amount.mul(accJollofPerShare).div(1e12).sub(user.rewardDebt);\n    }\n\n    // Update reward vairables for all pools. Be careful of gas spending!\n    function massUpdatePools() public {\n        uint256 length = poolInfo.length;\n        for (uint256 pid = 0; pid < length; ++pid) {\n            updatePool(pid);\n        }\n    }\n\n    // Update reward variables of the given pool to be up-to-date.\n    function updatePool(uint256 _pid) public {\n        PoolInfo storage pool = poolInfo[_pid];\n        if (block.number <= pool.lastRewardBlock) {\n            return;\n        }\n        uint256 lpSupply = pool.lpToken.balanceOf(address(this));\n        if (lpSupply == 0) {\n            pool.lastRewardBlock = block.number;\n            return;\n        }\n        uint256 multiplier = getMultiplier(pool.lastRewardBlock, block.number);\n        uint256 jollofReward =\n            multiplier.mul(jollofPerBlock).mul(pool.allocPoint).div(\n                totalAllocPoint\n            );\n        jollof.mint(devaddr, jollofReward.div(10));\n        jollof.mint(address(this), jollofReward);\n        pool.accJollofPerShare = pool.accJollofPerShare.add(\n            jollofReward.mul(1e12).div(lpSupply)\n        );\n        pool.lastRewardBlock = block.number;\n    }\n\n    // Deposit LP tokens to MamaPut for JOLLOF allocation.\n    function deposit(uint256 _pid, uint256 _amount) public {\n        PoolInfo storage pool = poolInfo[_pid];\n        UserInfo storage user = userInfo[_pid][msg.sender];\n        updatePool(_pid);\n        if (user.amount > 0) {\n            uint256 pending =\n                user.amount.mul(pool.accJollofPerShare).div(1e12).sub(\n                    user.rewardDebt\n                );\n            safeJollofTransfer(msg.sender, pending);\n        }\n        pool.lpToken.safeTransferFrom(\n            address(msg.sender),\n            address(this),\n            _amount\n        );\n        user.amount = user.amount.add(_amount);\n        user.rewardDebt = user.amount.mul(pool.accJollofPerShare).div(1e12);\n        emit Deposit(msg.sender, _pid, _amount);\n    }\n\n    // Withdraw LP tokens from MamaPut.\n    function withdraw(uint256 _pid, uint256 _amount) public {\n        PoolInfo storage pool = poolInfo[_pid];\n        UserInfo storage user = userInfo[_pid][msg.sender];\n        require(user.amount >= _amount, \"withdraw: not good\");\n        updatePool(_pid);\n        uint256 pending =\n            user.amount.mul(pool.accJollofPerShare).div(1e12).sub(\n                user.rewardDebt\n            );\n        safeJollofTransfer(msg.sender, pending);\n        user.amount = user.amount.sub(_amount);\n        user.rewardDebt = user.amount.mul(pool.accJollofPerShare).div(1e12);\n        pool.lpToken.safeTransfer(address(msg.sender), _amount);\n        emit Withdraw(msg.sender, _pid, _amount);\n    }\n\n    // Withdraw without caring about rewards. EMERGENCY ONLY.\n    function emergencyWithdraw(uint256 _pid) public {\n        PoolInfo storage pool = poolInfo[_pid];\n        UserInfo storage user = userInfo[_pid][msg.sender];\n        pool.lpToken.safeTransfer(address(msg.sender), user.amount);\n        emit EmergencyWithdraw(msg.sender, _pid, user.amount);\n        user.amount = 0;\n        user.rewardDebt = 0;\n    }\n\n    // Safe jollof transfer function, just in case if rounding error causes pool to not have enough JOLLOFs.\n    function safeJollofTransfer(address _to, uint256 _amount) internal {\n        uint256 jollofBal = jollof.balanceOf(address(this));\n        if (_amount > jollofBal) {\n            jollof.transfer(_to, jollofBal);\n        } else {\n            jollof.transfer(_to, _amount);\n        }\n    }\n\n    // Update dev address by the previous dev.\n    function dev(address _devaddr) public {\n        require(msg.sender == devaddr, \"dev: wut?\");\n        devaddr = _devaddr;\n    }\n}\n",
  "sourcePath": "/home/akanimoh/Documents/ultimate3/sushiswapw/contracts/MamaPut.sol",
  "compiler": {
    "name": "solc",
    "version": "0.6.12+commit.27d51765.Emscripten.clang"
  },
  "schemaVersion": "3.4.1",
  "updatedAt": "2021-07-30T18:35:58.026Z",
  "networkType": "ethereum",
  "devdoc": {
    "kind": "dev",
    "methods": {
      "owner()": {
        "details": "Returns the address of the current owner."
      },
      "renounceOwnership()": {
        "details": "Leaves the contract without owner. It will not be possible to call `onlyOwner` functions anymore. Can only be called by the current owner. NOTE: Renouncing ownership will leave the contract without an owner, thereby removing any functionality that is only available to the owner."
      },
      "transferOwnership(address)": {
        "details": "Transfers ownership of the contract to a new account (`newOwner`). Can only be called by the current owner."
      }
    },
    "version": 1
  },
  "userdoc": {
    "kind": "user",
    "methods": {},
    "version": 1
  }
}