{
  "contractName": "MasterContractManager",
  "abi": [
    {
      "inputs": [],
      "stateMutability": "nonpayable",
      "type": "constructor"
    },
    {
      "anonymous": false,
      "inputs": [
        {
          "indexed": true,
          "internalType": "address",
          "name": "masterContract",
          "type": "address"
        },
        {
          "indexed": false,
          "internalType": "bytes",
          "name": "data",
          "type": "bytes"
        },
        {
          "indexed": true,
          "internalType": "address",
          "name": "cloneAddress",
          "type": "address"
        }
      ],
      "name": "LogDeploy",
      "type": "event"
    },
    {
      "anonymous": false,
      "inputs": [
        {
          "indexed": true,
          "internalType": "address",
          "name": "protocol",
          "type": "address"
        }
      ],
      "name": "LogRegisterProtocol",
      "type": "event"
    },
    {
      "anonymous": false,
      "inputs": [
        {
          "indexed": true,
          "internalType": "address",
          "name": "masterContract",
          "type": "address"
        },
        {
          "indexed": true,
          "internalType": "address",
          "name": "user",
          "type": "address"
        },
        {
          "indexed": false,
          "internalType": "bool",
          "name": "approved",
          "type": "bool"
        }
      ],
      "name": "LogSetMasterContractApproval",
      "type": "event"
    },
    {
      "anonymous": false,
      "inputs": [
        {
          "indexed": true,
          "internalType": "address",
          "name": "masterContract",
          "type": "address"
        },
        {
          "indexed": false,
          "internalType": "bool",
          "name": "approved",
          "type": "bool"
        }
      ],
      "name": "LogWhiteListMasterContract",
      "type": "event"
    },
    {
      "anonymous": false,
      "inputs": [
        {
          "indexed": true,
          "internalType": "address",
          "name": "previousOwner",
          "type": "address"
        },
        {
          "indexed": true,
          "internalType": "address",
          "name": "newOwner",
          "type": "address"
        }
      ],
      "name": "OwnershipTransferred",
      "type": "event"
    },
    {
      "inputs": [],
      "name": "claimOwnership",
      "outputs": [],
      "stateMutability": "nonpayable",
      "type": "function"
    },
    {
      "inputs": [
        {
          "internalType": "address",
          "name": "masterContract",
          "type": "address"
        },
        {
          "internalType": "bytes",
          "name": "data",
          "type": "bytes"
        },
        {
          "internalType": "bool",
          "name": "useCreate2",
          "type": "bool"
        }
      ],
      "name": "deploy",
      "outputs": [
        {
          "internalType": "address",
          "name": "cloneAddress",
          "type": "address"
        }
      ],
      "stateMutability": "payable",
      "type": "function"
    },
    {
      "inputs": [
        {
          "internalType": "address",
          "name": "",
          "type": "address"
        },
        {
          "internalType": "address",
          "name": "",
          "type": "address"
        }
      ],
      "name": "masterContractApproved",
      "outputs": [
        {
          "internalType": "bool",
          "name": "",
          "type": "bool"
        }
      ],
      "stateMutability": "view",
      "type": "function"
    },
    {
      "inputs": [
        {
          "internalType": "address",
          "name": "",
          "type": "address"
        }
      ],
      "name": "masterContractOf",
      "outputs": [
        {
          "internalType": "address",
          "name": "",
          "type": "address"
        }
      ],
      "stateMutability": "view",
      "type": "function"
    },
    {
      "inputs": [
        {
          "internalType": "address",
          "name": "",
          "type": "address"
        }
      ],
      "name": "nonces",
      "outputs": [
        {
          "internalType": "uint256",
          "name": "",
          "type": "uint256"
        }
      ],
      "stateMutability": "view",
      "type": "function"
    },
    {
      "inputs": [],
      "name": "owner",
      "outputs": [
        {
          "internalType": "address",
          "name": "",
          "type": "address"
        }
      ],
      "stateMutability": "view",
      "type": "function"
    },
    {
      "inputs": [],
      "name": "pendingOwner",
      "outputs": [
        {
          "internalType": "address",
          "name": "",
          "type": "address"
        }
      ],
      "stateMutability": "view",
      "type": "function"
    },
    {
      "inputs": [
        {
          "internalType": "address",
          "name": "newOwner",
          "type": "address"
        },
        {
          "internalType": "bool",
          "name": "direct",
          "type": "bool"
        },
        {
          "internalType": "bool",
          "name": "renounce",
          "type": "bool"
        }
      ],
      "name": "transferOwnership",
      "outputs": [],
      "stateMutability": "nonpayable",
      "type": "function"
    },
    {
      "inputs": [
        {
          "internalType": "address",
          "name": "",
          "type": "address"
        }
      ],
      "name": "whitelistedMasterContracts",
      "outputs": [
        {
          "internalType": "bool",
          "name": "",
          "type": "bool"
        }
      ],
      "stateMutability": "view",
      "type": "function"
    },
    {
      "inputs": [],
      "name": "DOMAIN_SEPARATOR",
      "outputs": [
        {
          "internalType": "bytes32",
          "name": "",
          "type": "bytes32"
        }
      ],
      "stateMutability": "view",
      "type": "function"
    },
    {
      "inputs": [],
      "name": "registerProtocol",
      "outputs": [],
      "stateMutability": "nonpayable",
      "type": "function"
    },
    {
      "inputs": [
        {
          "internalType": "address",
          "name": "masterContract",
          "type": "address"
        },
        {
          "internalType": "bool",
          "name": "approved",
          "type": "bool"
        }
      ],
      "name": "whitelistMasterContract",
      "outputs": [],
      "stateMutability": "nonpayable",
      "type": "function"
    },
    {
      "inputs": [
        {
          "internalType": "address",
          "name": "user",
          "type": "address"
        },
        {
          "internalType": "address",
          "name": "masterContract",
          "type": "address"
        },
        {
          "internalType": "bool",
          "name": "approved",
          "type": "bool"
        },
        {
          "internalType": "uint8",
          "name": "v",
          "type": "uint8"
        },
        {
          "internalType": "bytes32",
          "name": "r",
          "type": "bytes32"
        },
        {
          "internalType": "bytes32",
          "name": "s",
          "type": "bytes32"
        }
      ],
      "name": "setMasterContractApproval",
      "outputs": [],
      "stateMutability": "nonpayable",
      "type": "function"
    }
  ],
  "bytecode": "0x60c060405234801561001057600080fd5b50600080546001600160a01b0319163390811782556040519091907f8be0079c531659141344cd1fd0a4f28419497f9722a3daafe3b4186f6b6457e0908290a34660a081905261005f81610068565b60805250610102565b60007f8cad95687ba82c2ce50e74f7b754645e5117c3a5bec8151c0726d5857980a8667fd7df266aff736d415a9dc14b4158201d612e70d75b9c7f4e375ccfd20aa5166f83306040516020016100c194939291906100de565b604051602081830303815290604052805190602001209050919050565b938452602084019290925260408301526001600160a01b0316606082015260800190565b60805160a0516110986101256000398061051a52508061054f52506110986000f3fe6080604052600436106100c25760003560e01c80637ecebe001161007f578063aee4d1b211610059578063aee4d1b2146101eb578063bafe4f1414610200578063c0a47c9314610220578063e30c397814610240576100c2565b80637ecebe00146101965780638da5cb5b146101b657806391e0eab5146101cb576100c2565b8063078dfbe7146100c757806312a90c8a146100e95780631f54245b1461011f5780633644e5151461013f5780634e71e0c814610161578063733a9d7c14610176575b600080fd5b3480156100d357600080fd5b506100e76100e2366004610c06565b610255565b005b3480156100f557600080fd5b50610109610104366004610b16565b610344565b6040516101169190610d49565b60405180910390f35b61013261012d366004610c4f565b610359565b6040516101169190610d35565b34801561014b57600080fd5b50610154610515565b6040516101169190610d54565b34801561016d57600080fd5b506100e7610575565b34801561018257600080fd5b506100e7610191366004610bdb565b610602565b3480156101a257600080fd5b506101546101b1366004610b16565b6106b2565b3480156101c257600080fd5b506101326106c4565b3480156101d757600080fd5b506101096101e6366004610b38565b6106d3565b3480156101f757600080fd5b506100e76106f3565b34801561020c57600080fd5b5061013261021b366004610b16565b61073a565b34801561022c57600080fd5b506100e761023b366004610b6c565b610755565b34801561024c57600080fd5b50610132610a64565b6000546001600160a01b031633146102885760405162461bcd60e51b815260040161027f90610e9f565b60405180910390fd5b8115610323576001600160a01b0383161515806102a25750805b6102be5760405162461bcd60e51b815260040161027f90610e70565b600080546040516001600160a01b03808716939216917f8be0079c531659141344cd1fd0a4f28419497f9722a3daafe3b4186f6b6457e091a3600080546001600160a01b0385166001600160a01b03199182161790915560018054909116905561033f565b600180546001600160a01b0319166001600160a01b0385161790555b505050565b60046020526000908152604090205460ff1681565b60006001600160a01b0385166103815760405162461bcd60e51b815260040161027f90610f77565b606085901b82156103f3576000858560405161039e929190610ce1565b60405180910390209050604051733d602d80600a3d3981f3363d3d373d3d3d363d7360601b81528260148201526e5af43d82803e903d91602b57fd5bf360881b6028820152816037826000f593505050610438565b604051733d602d80600a3d3981f3363d3d373d3d3d363d7360601b81528160148201526e5af43d82803e903d91602b57fd5bf360881b60288201526037816000f09250505b6001600160a01b038281166000818152600260205260409081902080546001600160a01b031916938a16939093179092559051631377d1f560e21b8152634ddf47d490349061048d9089908990600401610dd3565b6000604051808303818588803b1580156104a657600080fd5b505af11580156104ba573d6000803e3d6000fd5b5050505050816001600160a01b0316866001600160a01b03167fd62166f3c2149208e51788b1401cc356bf5da1fc6c7886a32e18570f57d88b3b8787604051610504929190610dd3565b60405180910390a350949350505050565b6000467f0000000000000000000000000000000000000000000000000000000000000000811461054d5761054881610a73565b61056f565b7f00000000000000000000000000000000000000000000000000000000000000005b91505090565b6001546001600160a01b03163381146105a05760405162461bcd60e51b815260040161027f90610ed4565b600080546040516001600160a01b03808516939216917f8be0079c531659141344cd1fd0a4f28419497f9722a3daafe3b4186f6b6457e091a3600080546001600160a01b039092166001600160a01b0319928316179055600180549091169055565b6000546001600160a01b0316331461062c5760405162461bcd60e51b815260040161027f90610e9f565b6001600160a01b0382166106525760405162461bcd60e51b815260040161027f90610e02565b6001600160a01b03821660008181526004602052604090819020805460ff1916841515179055517f31a1e0eac44b54ac6c2a2efa87e92c83405ffcf33fceef02a7bca695130e2600906106a6908490610d49565b60405180910390a25050565b60056020526000908152604090205481565b6000546001600160a01b031681565b600360209081526000928352604080842090915290825290205460ff1681565b3360008181526002602052604080822080546001600160a01b03191684179055517fdfb44ffabf0d3a8f650d3ce43eff98f6d050e7ea1a396d5794f014e7dadabacb9190a2565b6002602052600090815260409020546001600160a01b031681565b6001600160a01b03851661077b5760405162461bcd60e51b815260040161027f90610fac565b81158015610787575080155b8015610794575060ff8316155b15610836576001600160a01b03861633146107c15760405162461bcd60e51b815260040161027f90610e39565b6001600160a01b0386811660009081526002602052604090205416156107f95760405162461bcd60e51b815260040161027f90610f09565b6001600160a01b03851660009081526004602052604090205460ff166108315760405162461bcd60e51b815260040161027f9061101a565b6109f0565b6001600160a01b03861661085c5760405162461bcd60e51b815260040161027f90610fe3565b600060405180604001604052806002815260200161190160f01b815250610881610515565b7f1962bc9f5484cb7a998701b81090e966ee1fce5771af884cceee7c081b14ade2876108cd577fb426802f1f7dc850a7b6b38805edea2442f3992878a9ab985abfe8091d95d0b16108ef565b7f422ac5323fe049241dee67716229a1cc1bc7b313b23dfe3ef6d42ab177a3b2845b6001600160a01b038b1660009081526005602090815260409182902080546001810190915591516109299493928e928e928e929101610d5d565b6040516020818303038152906040528051906020012060405160200161095193929190610cf1565b60405160208183030381529060405280519060200120905060006001828686866040516000815260200160405260405161098e9493929190610db5565b6020604051602081039080840390855afa1580156109b0573d6000803e3d6000fd5b505050602060405103519050876001600160a01b0316816001600160a01b0316146109ed5760405162461bcd60e51b815260040161027f90610f40565b50505b6001600160a01b038581166000818152600360209081526040808320948b168084529490915290819020805460ff1916881515179055517f5f6ebb64ba012a851c6f014e6cad458ddf213d1512049b31cd06365c2b05925790610a54908890610d49565b60405180910390a3505050505050565b6001546001600160a01b031681565b60007f8cad95687ba82c2ce50e74f7b754645e5117c3a5bec8151c0726d5857980a8667fd7df266aff736d415a9dc14b4158201d612e70d75b9c7f4e375ccfd20aa5166f8330604051602001610acc9493929190610d91565b604051602081830303815290604052805190602001209050919050565b80356001600160a01b0381168114610b0057600080fd5b92915050565b80358015158114610b0057600080fd5b600060208284031215610b27578081fd5b610b318383610ae9565b9392505050565b60008060408385031215610b4a578081fd5b610b548484610ae9565b9150610b638460208501610ae9565b90509250929050565b60008060008060008060c08789031215610b84578182fd5b610b8e8888610ae9565b9550610b9d8860208901610ae9565b9450610bac8860408901610b06565b9350606087013560ff81168114610bc1578283fd5b9598949750929560808101359460a0909101359350915050565b60008060408385031215610bed578182fd5b610bf78484610ae9565b9150610b638460208501610b06565b600080600060608486031215610c1a578283fd5b610c248585610ae9565b92506020840135610c3481611051565b91506040840135610c4481611051565b809150509250925092565b60008060008060608587031215610c64578384fd5b610c6e8686610ae9565b9350602085013567ffffffffffffffff80821115610c8a578485fd5b818701915087601f830112610c9d578485fd5b813581811115610cab578586fd5b886020828501011115610cbc578586fd5b6020830195508094505050506040850135610cd681611051565b939692955090935050565b6000828483379101908152919050565b60008451815b81811015610d115760208188018101518583015201610cf7565b81811115610d1f5782828501525b5091909101928352506020820152604001919050565b6001600160a01b0391909116815260200190565b901515815260200190565b90815260200190565b95865260208601949094526001600160a01b039283166040860152911660608401521515608083015260a082015260c00190565b938452602084019290925260408301526001600160a01b0316606082015260800190565b93845260ff9290921660208401526040830152606082015260800190565b60006020825282602083015282846040840137818301604090810191909152601f909201601f19160101919050565b6020808252601c908201527f4d6173746572434d67723a2043616e6e6f7420617070726f7665203000000000604082015260600190565b6020808252601b908201527f4d6173746572434d67723a2075736572206e6f742073656e6465720000000000604082015260600190565b6020808252601590820152744f776e61626c653a207a65726f206164647265737360581b604082015260600190565b6020808252818101527f4f776e61626c653a2063616c6c6572206973206e6f7420746865206f776e6572604082015260600190565b6020808252818101527f4f776e61626c653a2063616c6c657220213d2070656e64696e67206f776e6572604082015260600190565b60208082526019908201527f4d6173746572434d67723a207573657220697320636c6f6e6500000000000000604082015260600190565b6020808252601d908201527f4d6173746572434d67723a20496e76616c6964205369676e6174757265000000604082015260600190565b6020808252818101527f426f72696e67466163746f72793a204e6f206d6173746572436f6e7472616374604082015260600190565b6020808252601b908201527f4d6173746572434d67723a206d617374657243206e6f74207365740000000000604082015260600190565b6020808252601c908201527f4d6173746572434d67723a20557365722063616e6e6f74206265203000000000604082015260600190565b6020808252601b908201527f4d6173746572434d67723a206e6f742077686974656c69737465640000000000604082015260600190565b801515811461105f57600080fd5b5056fea2646970667358221220e5aa319b543f7145c41b8014f3e376014e8644e378ae1adbceef981961ff422964736f6c634300060c0033",
  "immutableReferences": {
    "5587": [
      {
        "length": 32,
        "start": 1359
      }
    ],
    "5589": [
      {
        "length": 32,
        "start": 1306
      }
    ]
  },
  "source": "// SPDX-License-Identifier: UNLICENSED\n// The BentoBox\n\n//  ▄▄▄▄· ▄▄▄ . ▐ ▄ ▄▄▄▄▄      ▄▄▄▄·       ▐▄• ▄\n//  ▐█ ▀█▪▀▄.▀·█▌▐█•██  ▪     ▐█ ▀█▪▪      █▌█▌▪\n//  ▐█▀▀█▄▐▀▀▪▄▐█▐▐▌ ▐█.▪ ▄█▀▄ ▐█▀▀█▄ ▄█▀▄  ·██·\n//  ██▄▪▐█▐█▄▄▌██▐█▌ ▐█▌·▐█▌.▐▌██▄▪▐█▐█▌.▐▌▪▐█·█▌\n//  ·▀▀▀▀  ▀▀▀ ▀▀ █▪ ▀▀▀  ▀█▄▀▪·▀▀▀▀  ▀█▄▀▪•▀▀ ▀▀\n\n// This contract stores funds, handles their transfers, supports flash loans and strategies.\n\n// Copyright (c) 2021 BoringCrypto - All rights reserved\n// Twitter: @Boring_Crypto\n\n// Special thanks to Keno for all his hard work and support\n\n// Version 22-Mar-2021\n\npragma solidity 0.6.12;\npragma experimental ABIEncoderV2;\n\n// solhint-disable avoid-low-level-calls\n// solhint-disable not-rely-on-time\n// solhint-disable no-inline-assembly\n\n// File @boringcrypto/boring-solidity/contracts/interfaces/IERC20.sol@v1.2.0\n// License-Identifier: MIT\n\ninterface IERC20 {\n    function totalSupply() external view returns (uint256);\n\n    function balanceOf(address account) external view returns (uint256);\n\n    function allowance(address owner, address spender) external view returns (uint256);\n\n    function approve(address spender, uint256 amount) external returns (bool);\n\n    event Transfer(address indexed from, address indexed to, uint256 value);\n    event Approval(address indexed owner, address indexed spender, uint256 value);\n\n    /// @notice EIP 2612\n    function permit(\n        address owner,\n        address spender,\n        uint256 value,\n        uint256 deadline,\n        uint8 v,\n        bytes32 r,\n        bytes32 s\n    ) external;\n}\n\n// File contracts/interfaces/IFlashLoan.sol\n// License-Identifier: MIT\n\ninterface IFlashBorrower {\n    /// @notice The flashloan callback. `amount` + `fee` needs to repayed to msg.sender before this call returns.\n    /// @param sender The address of the invoker of this flashloan.\n    /// @param token The address of the token that is loaned.\n    /// @param amount of the `token` that is loaned.\n    /// @param fee The fee that needs to be paid on top for this loan. Needs to be the same as `token`.\n    /// @param data Additional data that was passed to the flashloan function.\n    function onFlashLoan(\n        address sender,\n        IERC20 token,\n        uint256 amount,\n        uint256 fee,\n        bytes calldata data\n    ) external;\n}\n\ninterface IBatchFlashBorrower {\n    /// @notice The callback for batched flashloans. Every amount + fee needs to repayed to msg.sender before this call returns.\n    /// @param sender The address of the invoker of this flashloan.\n    /// @param tokens Array of addresses for ERC-20 tokens that is loaned.\n    /// @param amounts A one-to-one map to `tokens` that is loaned.\n    /// @param fees A one-to-one map to `tokens` that needs to be paid on top for each loan. Needs to be the same token.\n    /// @param data Additional data that was passed to the flashloan function.\n    function onBatchFlashLoan(\n        address sender,\n        IERC20[] calldata tokens,\n        uint256[] calldata amounts,\n        uint256[] calldata fees,\n        bytes calldata data\n    ) external;\n}\n\n// File contracts/interfaces/IWETH.sol\n// License-Identifier: MIT\n\ninterface IWETH {\n    function deposit() external payable;\n\n    function withdraw(uint256) external;\n}\n\n// File contracts/interfaces/IStrategy.sol\n// License-Identifier: MIT\n\ninterface IStrategy {\n    /// @notice Send the assets to the Strategy and call skim to invest them.\n    /// @param amount The amount of tokens to invest.\n    function skim(uint256 amount) external;\n\n    /// @notice Harvest any profits made converted to the asset and pass them to the caller.\n    /// @param balance The amount of tokens the caller thinks it has invested.\n    /// @param sender The address of the initiator of this transaction. Can be used for reimbursements, etc.\n    /// @return amountAdded The delta (+profit or -loss) that occured in contrast to `balance`.\n    function harvest(uint256 balance, address sender) external returns (int256 amountAdded);\n\n    /// @notice Withdraw assets. The returned amount can differ from the requested amount due to rounding.\n    /// @dev The `actualAmount` should be very close to the amount.\n    /// The difference should NOT be used to report a loss. That's what harvest is for.\n    /// @param amount The requested amount the caller wants to withdraw.\n    /// @return actualAmount The real amount that is withdrawn.\n    function withdraw(uint256 amount) external returns (uint256 actualAmount);\n\n    /// @notice Withdraw all assets in the safest way possible. This shouldn't fail.\n    /// @param balance The amount of tokens the caller thinks it has invested.\n    /// @return amountAdded The delta (+profit or -loss) that occured in contrast to `balance`.\n    function exit(uint256 balance) external returns (int256 amountAdded);\n}\n\n// File @boringcrypto/boring-solidity/contracts/libraries/BoringERC20.sol@v1.2.0\n// License-Identifier: MIT\n\nlibrary BoringERC20 {\n    bytes4 private constant SIG_SYMBOL = 0x95d89b41; // symbol()\n    bytes4 private constant SIG_NAME = 0x06fdde03; // name()\n    bytes4 private constant SIG_DECIMALS = 0x313ce567; // decimals()\n    bytes4 private constant SIG_TRANSFER = 0xa9059cbb; // transfer(address,uint256)\n    bytes4 private constant SIG_TRANSFER_FROM = 0x23b872dd; // transferFrom(address,address,uint256)\n\n    /// @notice Provides a safe ERC20.transfer version for different ERC-20 implementations.\n    /// Reverts on a failed transfer.\n    /// @param token The address of the ERC-20 token.\n    /// @param to Transfer tokens to.\n    /// @param amount The token amount.\n    function safeTransfer(\n        IERC20 token,\n        address to,\n        uint256 amount\n    ) internal {\n        (bool success, bytes memory data) = address(token).call(abi.encodeWithSelector(SIG_TRANSFER, to, amount));\n        require(success && (data.length == 0 || abi.decode(data, (bool))), \"BoringERC20: Transfer failed\");\n    }\n\n    /// @notice Provides a safe ERC20.transferFrom version for different ERC-20 implementations.\n    /// Reverts on a failed transfer.\n    /// @param token The address of the ERC-20 token.\n    /// @param from Transfer tokens from.\n    /// @param to Transfer tokens to.\n    /// @param amount The token amount.\n    function safeTransferFrom(\n        IERC20 token,\n        address from,\n        address to,\n        uint256 amount\n    ) internal {\n        (bool success, bytes memory data) = address(token).call(abi.encodeWithSelector(SIG_TRANSFER_FROM, from, to, amount));\n        require(success && (data.length == 0 || abi.decode(data, (bool))), \"BoringERC20: TransferFrom failed\");\n    }\n}\n\n// File @boringcrypto/boring-solidity/contracts/libraries/BoringMath.sol@v1.2.0\n// License-Identifier: MIT\n\n/// @notice A library for performing overflow-/underflow-safe math,\n/// updated with awesomeness from of DappHub (https://github.com/dapphub/ds-math).\nlibrary BoringMath {\n    function add(uint256 a, uint256 b) internal pure returns (uint256 c) {\n        require((c = a + b) >= b, \"BoringMath: Add Overflow\");\n    }\n\n    function sub(uint256 a, uint256 b) internal pure returns (uint256 c) {\n        require((c = a - b) <= a, \"BoringMath: Underflow\");\n    }\n\n    function mul(uint256 a, uint256 b) internal pure returns (uint256 c) {\n        require(b == 0 || (c = a * b) / b == a, \"BoringMath: Mul Overflow\");\n    }\n\n    function to128(uint256 a) internal pure returns (uint128 c) {\n        require(a <= uint128(-1), \"BoringMath: uint128 Overflow\");\n        c = uint128(a);\n    }\n\n    function to64(uint256 a) internal pure returns (uint64 c) {\n        require(a <= uint64(-1), \"BoringMath: uint64 Overflow\");\n        c = uint64(a);\n    }\n\n    function to32(uint256 a) internal pure returns (uint32 c) {\n        require(a <= uint32(-1), \"BoringMath: uint32 Overflow\");\n        c = uint32(a);\n    }\n}\n\n/// @notice A library for performing overflow-/underflow-safe addition and subtraction on uint128.\nlibrary BoringMath128 {\n    function add(uint128 a, uint128 b) internal pure returns (uint128 c) {\n        require((c = a + b) >= b, \"BoringMath: Add Overflow\");\n    }\n\n    function sub(uint128 a, uint128 b) internal pure returns (uint128 c) {\n        require((c = a - b) <= a, \"BoringMath: Underflow\");\n    }\n}\n\n/// @notice A library for performing overflow-/underflow-safe addition and subtraction on uint64.\nlibrary BoringMath64 {\n    function add(uint64 a, uint64 b) internal pure returns (uint64 c) {\n        require((c = a + b) >= b, \"BoringMath: Add Overflow\");\n    }\n\n    function sub(uint64 a, uint64 b) internal pure returns (uint64 c) {\n        require((c = a - b) <= a, \"BoringMath: Underflow\");\n    }\n}\n\n/// @notice A library for performing overflow-/underflow-safe addition and subtraction on uint32.\nlibrary BoringMath32 {\n    function add(uint32 a, uint32 b) internal pure returns (uint32 c) {\n        require((c = a + b) >= b, \"BoringMath: Add Overflow\");\n    }\n\n    function sub(uint32 a, uint32 b) internal pure returns (uint32 c) {\n        require((c = a - b) <= a, \"BoringMath: Underflow\");\n    }\n}\n\n// File @boringcrypto/boring-solidity/contracts/libraries/BoringRebase.sol@v1.2.0\n// License-Identifier: MIT\n\nstruct Rebase {\n    uint128 elastic;\n    uint128 base;\n}\n\n/// @notice A rebasing library using overflow-/underflow-safe math.\nlibrary RebaseLibrary {\n    using BoringMath for uint256;\n    using BoringMath128 for uint128;\n\n    /// @notice Calculates the base value in relationship to `elastic` and `total`.\n    function toBase(\n        Rebase memory total,\n        uint256 elastic,\n        bool roundUp\n    ) internal pure returns (uint256 base) {\n        if (total.elastic == 0) {\n            base = elastic;\n        } else {\n            base = elastic.mul(total.base) / total.elastic;\n            if (roundUp && base.mul(total.elastic) / total.base < elastic) {\n                base = base.add(1);\n            }\n        }\n    }\n\n    /// @notice Calculates the elastic value in relationship to `base` and `total`.\n    function toElastic(\n        Rebase memory total,\n        uint256 base,\n        bool roundUp\n    ) internal pure returns (uint256 elastic) {\n        if (total.base == 0) {\n            elastic = base;\n        } else {\n            elastic = base.mul(total.elastic) / total.base;\n            if (roundUp && elastic.mul(total.base) / total.elastic < base) {\n                elastic = elastic.add(1);\n            }\n        }\n    }\n\n    /// @notice Add `elastic` to `total` and doubles `total.base`.\n    /// @return (Rebase) The new total.\n    /// @return base in relationship to `elastic`.\n    function add(\n        Rebase memory total,\n        uint256 elastic,\n        bool roundUp\n    ) internal pure returns (Rebase memory, uint256 base) {\n        base = toBase(total, elastic, roundUp);\n        total.elastic = total.elastic.add(elastic.to128());\n        total.base = total.base.add(base.to128());\n        return (total, base);\n    }\n\n    /// @notice Sub `base` from `total` and update `total.elastic`.\n    /// @return (Rebase) The new total.\n    /// @return elastic in relationship to `base`.\n    function sub(\n        Rebase memory total,\n        uint256 base,\n        bool roundUp\n    ) internal pure returns (Rebase memory, uint256 elastic) {\n        elastic = toElastic(total, base, roundUp);\n        total.elastic = total.elastic.sub(elastic.to128());\n        total.base = total.base.sub(base.to128());\n        return (total, elastic);\n    }\n\n    /// @notice Add `elastic` and `base` to `total`.\n    function add(\n        Rebase memory total,\n        uint256 elastic,\n        uint256 base\n    ) internal pure returns (Rebase memory) {\n        total.elastic = total.elastic.add(elastic.to128());\n        total.base = total.base.add(base.to128());\n        return total;\n    }\n\n    /// @notice Subtract `elastic` and `base` to `total`.\n    function sub(\n        Rebase memory total,\n        uint256 elastic,\n        uint256 base\n    ) internal pure returns (Rebase memory) {\n        total.elastic = total.elastic.sub(elastic.to128());\n        total.base = total.base.sub(base.to128());\n        return total;\n    }\n\n    /// @notice Add `elastic` to `total` and update storage.\n    /// @return newElastic Returns updated `elastic`.\n    function addElastic(Rebase storage total, uint256 elastic) internal returns (uint256 newElastic) {\n        newElastic = total.elastic = total.elastic.add(elastic.to128());\n    }\n\n    /// @notice Subtract `elastic` from `total` and update storage.\n    /// @return newElastic Returns updated `elastic`.\n    function subElastic(Rebase storage total, uint256 elastic) internal returns (uint256 newElastic) {\n        newElastic = total.elastic = total.elastic.sub(elastic.to128());\n    }\n}\n\n// File @boringcrypto/boring-solidity/contracts/BoringOwnable.sol@v1.2.0\n// License-Identifier: MIT\n\n// Source: https://github.com/OpenZeppelin/openzeppelin-contracts/blob/master/contracts/access/Ownable.sol + Claimable.sol\n// Edited by BoringCrypto\n\ncontract BoringOwnableData {\n    address public owner;\n    address public pendingOwner;\n}\n\ncontract BoringOwnable is BoringOwnableData {\n    event OwnershipTransferred(address indexed previousOwner, address indexed newOwner);\n\n    /// @notice `owner` defaults to msg.sender on construction.\n    constructor() public {\n        owner = msg.sender;\n        emit OwnershipTransferred(address(0), msg.sender);\n    }\n\n    /// @notice Transfers ownership to `newOwner`. Either directly or claimable by the new pending owner.\n    /// Can only be invoked by the current `owner`.\n    /// @param newOwner Address of the new owner.\n    /// @param direct True if `newOwner` should be set immediately. False if `newOwner` needs to use `claimOwnership`.\n    /// @param renounce Allows the `newOwner` to be `address(0)` if `direct` and `renounce` is True. Has no effect otherwise.\n    function transferOwnership(\n        address newOwner,\n        bool direct,\n        bool renounce\n    ) public onlyOwner {\n        if (direct) {\n            // Checks\n            require(newOwner != address(0) || renounce, \"Ownable: zero address\");\n\n            // Effects\n            emit OwnershipTransferred(owner, newOwner);\n            owner = newOwner;\n            pendingOwner = address(0);\n        } else {\n            // Effects\n            pendingOwner = newOwner;\n        }\n    }\n\n    /// @notice Needs to be called by `pendingOwner` to claim ownership.\n    function claimOwnership() public {\n        address _pendingOwner = pendingOwner;\n\n        // Checks\n        require(msg.sender == _pendingOwner, \"Ownable: caller != pending owner\");\n\n        // Effects\n        emit OwnershipTransferred(owner, _pendingOwner);\n        owner = _pendingOwner;\n        pendingOwner = address(0);\n    }\n\n    /// @notice Only allows the `owner` to execute the function.\n    modifier onlyOwner() {\n        require(msg.sender == owner, \"Ownable: caller is not the owner\");\n        _;\n    }\n}\n\n// File @boringcrypto/boring-solidity/contracts/interfaces/IMasterContract.sol@v1.2.0\n// License-Identifier: MIT\n\ninterface IMasterContract {\n    /// @notice Init function that gets called from `BoringFactory.deploy`.\n    /// Also kown as the constructor for cloned contracts.\n    /// Any ETH send to `BoringFactory.deploy` ends up here.\n    /// @param data Can be abi encoded arguments or anything else.\n    function init(bytes calldata data) external payable;\n}\n\n// File @boringcrypto/boring-solidity/contracts/BoringFactory.sol@v1.2.0\n// License-Identifier: MIT\n\ncontract BoringFactory {\n    event LogDeploy(address indexed masterContract, bytes data, address indexed cloneAddress);\n\n    /// @notice Mapping from clone contracts to their masterContract.\n    mapping(address => address) public masterContractOf;\n\n    /// @notice Deploys a given master Contract as a clone.\n    /// Any ETH transferred with this call is forwarded to the new clone.\n    /// Emits `LogDeploy`.\n    /// @param masterContract The address of the contract to clone.\n    /// @param data Additional abi encoded calldata that is passed to the new clone via `IMasterContract.init`.\n    /// @param useCreate2 Creates the clone by using the CREATE2 opcode, in this case `data` will be used as salt.\n    /// @return cloneAddress Address of the created clone contract.\n    function deploy(\n        address masterContract,\n        bytes calldata data,\n        bool useCreate2\n    ) public payable returns (address cloneAddress) {\n        require(masterContract != address(0), \"BoringFactory: No masterContract\");\n        bytes20 targetBytes = bytes20(masterContract); // Takes the first 20 bytes of the masterContract's address\n\n        if (useCreate2) {\n            // each masterContract has different code already. So clones are distinguished by their data only.\n            bytes32 salt = keccak256(data);\n\n            // Creates clone, more info here: https://blog.openzeppelin.com/deep-dive-into-the-minimal-proxy-contract/\n            assembly {\n                let clone := mload(0x40)\n                mstore(clone, 0x3d602d80600a3d3981f3363d3d373d3d3d363d73000000000000000000000000)\n                mstore(add(clone, 0x14), targetBytes)\n                mstore(add(clone, 0x28), 0x5af43d82803e903d91602b57fd5bf30000000000000000000000000000000000)\n                cloneAddress := create2(0, clone, 0x37, salt)\n            }\n        } else {\n            assembly {\n                let clone := mload(0x40)\n                mstore(clone, 0x3d602d80600a3d3981f3363d3d373d3d3d363d73000000000000000000000000)\n                mstore(add(clone, 0x14), targetBytes)\n                mstore(add(clone, 0x28), 0x5af43d82803e903d91602b57fd5bf30000000000000000000000000000000000)\n                cloneAddress := create(0, clone, 0x37)\n            }\n        }\n        masterContractOf[cloneAddress] = masterContract;\n\n        IMasterContract(cloneAddress).init{value: msg.value}(data);\n\n        emit LogDeploy(masterContract, data, cloneAddress);\n    }\n}\n\n// File contracts/MasterContractManager.sol\n// License-Identifier: UNLICENSED\n\ncontract MasterContractManager is BoringOwnable, BoringFactory {\n    event LogWhiteListMasterContract(address indexed masterContract, bool approved);\n    event LogSetMasterContractApproval(address indexed masterContract, address indexed user, bool approved);\n    event LogRegisterProtocol(address indexed protocol);\n\n    /// @notice masterContract to user to approval state\n    mapping(address => mapping(address => bool)) public masterContractApproved;\n    /// @notice masterContract to whitelisted state for approval without signed message\n    mapping(address => bool) public whitelistedMasterContracts;\n    /// @notice user nonces for masterContract approvals\n    mapping(address => uint256) public nonces;\n\n    bytes32 private constant DOMAIN_SEPARATOR_SIGNATURE_HASH = keccak256(\"EIP712Domain(string name,uint256 chainId,address verifyingContract)\");\n    // See https://eips.ethereum.org/EIPS/eip-191\n    string private constant EIP191_PREFIX_FOR_EIP712_STRUCTURED_DATA = \"\\x19\\x01\";\n    bytes32 private constant APPROVAL_SIGNATURE_HASH =\n        keccak256(\"SetMasterContractApproval(string warning,address user,address masterContract,bool approved,uint256 nonce)\");\n\n    // solhint-disable-next-line var-name-mixedcase\n    bytes32 private immutable _DOMAIN_SEPARATOR;\n    // solhint-disable-next-line var-name-mixedcase\n    uint256 private immutable DOMAIN_SEPARATOR_CHAIN_ID;\n\n    constructor() public {\n        uint256 chainId;\n        assembly {\n            chainId := chainid()\n        }\n        _DOMAIN_SEPARATOR = _calculateDomainSeparator(DOMAIN_SEPARATOR_CHAIN_ID = chainId);\n    }\n\n    function _calculateDomainSeparator(uint256 chainId) private view returns (bytes32) {\n        return keccak256(abi.encode(DOMAIN_SEPARATOR_SIGNATURE_HASH, keccak256(\"BentoBox V1\"), chainId, address(this)));\n    }\n\n    // solhint-disable-next-line func-name-mixedcase\n    function DOMAIN_SEPARATOR() public view returns (bytes32) {\n        uint256 chainId;\n        assembly {\n            chainId := chainid()\n        }\n        return chainId == DOMAIN_SEPARATOR_CHAIN_ID ? _DOMAIN_SEPARATOR : _calculateDomainSeparator(chainId);\n    }\n\n    /// @notice Other contracts need to register with this master contract so that users can approve them for the BentoBox.\n    function registerProtocol() public {\n        masterContractOf[msg.sender] = msg.sender;\n        emit LogRegisterProtocol(msg.sender);\n    }\n\n    /// @notice Enables or disables a contract for approval without signed message.\n    function whitelistMasterContract(address masterContract, bool approved) public onlyOwner {\n        // Checks\n        require(masterContract != address(0), \"MasterCMgr: Cannot approve 0\");\n\n        // Effects\n        whitelistedMasterContracts[masterContract] = approved;\n        emit LogWhiteListMasterContract(masterContract, approved);\n    }\n\n    /// @notice Approves or revokes a `masterContract` access to `user` funds.\n    /// @param user The address of the user that approves or revokes access.\n    /// @param masterContract The address who gains or loses access.\n    /// @param approved If True approves access. If False revokes access.\n    /// @param v Part of the signature. (See EIP-191)\n    /// @param r Part of the signature. (See EIP-191)\n    /// @param s Part of the signature. (See EIP-191)\n    // F4 - Check behaviour for all function arguments when wrong or extreme\n    // F4: Don't allow masterContract 0 to be approved. Unknown contracts will have a masterContract of 0.\n    // F4: User can't be 0 for signed approvals because the recoveredAddress will be 0 if ecrecover fails\n    function setMasterContractApproval(\n        address user,\n        address masterContract,\n        bool approved,\n        uint8 v,\n        bytes32 r,\n        bytes32 s\n    ) public {\n        // Checks\n        require(masterContract != address(0), \"MasterCMgr: masterC not set\"); // Important for security\n\n        // If no signature is provided, the fallback is executed\n        if (r == 0 && s == 0 && v == 0) {\n            require(user == msg.sender, \"MasterCMgr: user not sender\");\n            require(masterContractOf[user] == address(0), \"MasterCMgr: user is clone\");\n            require(whitelistedMasterContracts[masterContract], \"MasterCMgr: not whitelisted\");\n        } else {\n            // Important for security - any address without masterContract has address(0) as masterContract\n            // So approving address(0) would approve every address, leading to full loss of funds\n            // Also, ecrecover returns address(0) on failure. So we check this:\n            require(user != address(0), \"MasterCMgr: User cannot be 0\");\n\n            // C10 - Protect signatures against replay, use nonce and chainId (SWC-121)\n            // C10: nonce + chainId are used to prevent replays\n            // C11 - All signatures strictly EIP-712 (SWC-117 SWC-122)\n            // C11: signature is EIP-712 compliant\n            // C12 - abi.encodePacked can't contain variable length user input (SWC-133)\n            // C12: abi.encodePacked has fixed length parameters\n            bytes32 digest =\n                keccak256(\n                    abi.encodePacked(\n                        EIP191_PREFIX_FOR_EIP712_STRUCTURED_DATA,\n                        DOMAIN_SEPARATOR(),\n                        keccak256(\n                            abi.encode(\n                                APPROVAL_SIGNATURE_HASH,\n                                approved\n                                    ? keccak256(\"Give FULL access to funds in (and approved to) BentoBox?\")\n                                    : keccak256(\"Revoke access to BentoBox?\"),\n                                user,\n                                masterContract,\n                                approved,\n                                nonces[user]++\n                            )\n                        )\n                    )\n                );\n            address recoveredAddress = ecrecover(digest, v, r, s);\n            require(recoveredAddress == user, \"MasterCMgr: Invalid Signature\");\n        }\n\n        // Effects\n        masterContractApproved[masterContract][user] = approved;\n        emit LogSetMasterContractApproval(masterContract, user, approved);\n    }\n}\n\n// File @boringcrypto/boring-solidity/contracts/BoringBatchable.sol@v1.2.0\n// License-Identifier: MIT\n\ncontract BaseBoringBatchable {\n    /// @dev Helper function to extract a useful revert message from a failed call.\n    /// If the returned data is malformed or not correctly abi encoded then this call can fail itself.\n    function _getRevertMsg(bytes memory _returnData) internal pure returns (string memory) {\n        // If the _res length is less than 68, then the transaction failed silently (without a revert message)\n        if (_returnData.length < 68) return \"Transaction reverted silently\";\n\n        assembly {\n            // Slice the sighash.\n            _returnData := add(_returnData, 0x04)\n        }\n        return abi.decode(_returnData, (string)); // All that remains is the revert string\n    }\n\n    /// @notice Allows batched call to self (this contract).\n    /// @param calls An array of inputs for each call.\n    /// @param revertOnFail If True then reverts after a failed call and stops doing further calls.\n    /// @return successes An array indicating the success of a call, mapped one-to-one to `calls`.\n    /// @return results An array with the returned data of each function call, mapped one-to-one to `calls`.\n    // F1: External is ok here because this is the batch function, adding it to a batch makes no sense\n    // F2: Calls in the batch may be payable, delegatecall operates in the same context, so each call in the batch has access to msg.value\n    // C3: The length of the loop is fully under user control, so can't be exploited\n    // C7: Delegatecall is only used on the same contract, so it's safe\n    function batch(bytes[] calldata calls, bool revertOnFail) external payable returns (bool[] memory successes, bytes[] memory results) {\n        successes = new bool[](calls.length);\n        results = new bytes[](calls.length);\n        for (uint256 i = 0; i < calls.length; i++) {\n            (bool success, bytes memory result) = address(this).delegatecall(calls[i]);\n            require(success || !revertOnFail, _getRevertMsg(result));\n            successes[i] = success;\n            results[i] = result;\n        }\n    }\n}\n\ncontract BoringBatchable is BaseBoringBatchable {\n    /// @notice Call wrapper that performs `ERC20.permit` on `token`.\n    /// Lookup `IERC20.permit`.\n    // F6: Parameters can be used front-run the permit and the user's permit will fail (due to nonce or other revert)\n    //     if part of a batch this could be used to grief once as the second call would not need the permit\n    function permitToken(\n        IERC20 token,\n        address from,\n        address to,\n        uint256 amount,\n        uint256 deadline,\n        uint8 v,\n        bytes32 r,\n        bytes32 s\n    ) public {\n        token.permit(from, to, amount, deadline, v, r, s);\n    }\n}\n\n// File contracts/BentoBox.sol\n// License-Identifier: UNLICENSED\n\n/// @title BentoBox\n/// @author BoringCrypto, Keno\n/// @notice The BentoBox is a vault for tokens. The stored tokens can be flash loaned and used in strategies.\n/// Yield from this will go to the token depositors.\n/// Rebasing tokens ARE NOT supported and WILL cause loss of funds.\n/// Any funds transfered directly onto the BentoBox will be lost, use the deposit function instead.\ncontract BentoBoxV1 is MasterContractManager, BoringBatchable {\n    using BoringMath for uint256;\n    using BoringMath128 for uint128;\n    using BoringERC20 for IERC20;\n    using RebaseLibrary for Rebase;\n\n    // ************** //\n    // *** EVENTS *** //\n    // ************** //\n\n    event LogDeposit(IERC20 indexed token, address indexed from, address indexed to, uint256 amount, uint256 share);\n    event LogWithdraw(IERC20 indexed token, address indexed from, address indexed to, uint256 amount, uint256 share);\n    event LogTransfer(IERC20 indexed token, address indexed from, address indexed to, uint256 share);\n\n    event LogFlashLoan(address indexed borrower, IERC20 indexed token, uint256 amount, uint256 feeAmount, address indexed receiver);\n\n    event LogStrategyTargetPercentage(IERC20 indexed token, uint256 targetPercentage);\n    event LogStrategyQueued(IERC20 indexed token, IStrategy indexed strategy);\n    event LogStrategySet(IERC20 indexed token, IStrategy indexed strategy);\n    event LogStrategyInvest(IERC20 indexed token, uint256 amount);\n    event LogStrategyDivest(IERC20 indexed token, uint256 amount);\n    event LogStrategyProfit(IERC20 indexed token, uint256 amount);\n    event LogStrategyLoss(IERC20 indexed token, uint256 amount);\n\n    // *************** //\n    // *** STRUCTS *** //\n    // *************** //\n\n    struct StrategyData {\n        uint64 strategyStartDate;\n        uint64 targetPercentage;\n        uint128 balance; // the balance of the strategy that BentoBox thinks is in there\n    }\n\n    // ******************************** //\n    // *** CONSTANTS AND IMMUTABLES *** //\n    // ******************************** //\n\n    // V2 - Can they be private?\n    // V2: Private to save gas, to verify it's correct, check the constructor arguments\n    IERC20 private immutable wethToken;\n\n    IERC20 private constant USE_ETHEREUM = IERC20(0);\n    uint256 private constant FLASH_LOAN_FEE = 50; // 0.05%\n    uint256 private constant FLASH_LOAN_FEE_PRECISION = 1e5;\n    uint256 private constant STRATEGY_DELAY = 2 weeks;\n    uint256 private constant MAX_TARGET_PERCENTAGE = 95; // 95%\n    uint256 private constant MINIMUM_SHARE_BALANCE = 1000; // To prevent the ratio going off\n\n    // ***************** //\n    // *** VARIABLES *** //\n    // ***************** //\n\n    // Balance per token per address/contract in shares\n    mapping(IERC20 => mapping(address => uint256)) public balanceOf;\n\n    // Rebase from amount to share\n    mapping(IERC20 => Rebase) public totals;\n\n    mapping(IERC20 => IStrategy) public strategy;\n    mapping(IERC20 => IStrategy) public pendingStrategy;\n    mapping(IERC20 => StrategyData) public strategyData;\n\n    // ******************* //\n    // *** CONSTRUCTOR *** //\n    // ******************* //\n\n    constructor(IERC20 wethToken_) public {\n        wethToken = wethToken_;\n    }\n\n    // ***************** //\n    // *** MODIFIERS *** //\n    // ***************** //\n\n    /// Modifier to check if the msg.sender is allowed to use funds belonging to the 'from' address.\n    /// If 'from' is msg.sender, it's allowed.\n    /// If 'from' is the BentoBox itself, it's allowed. Any ETH, token balances (above the known balances) or BentoBox balances\n    /// can be taken by anyone.\n    /// This is to enable skimming, not just for deposits, but also for withdrawals or transfers, enabling better composability.\n    /// If 'from' is a clone of a masterContract AND the 'from' address has approved that masterContract, it's allowed.\n    modifier allowed(address from) {\n        if (from != msg.sender && from != address(this)) {\n            // From is sender or you are skimming\n            address masterContract = masterContractOf[msg.sender];\n            require(masterContract != address(0), \"BentoBox: no masterContract\");\n            require(masterContractApproved[masterContract][from], \"BentoBox: Transfer not approved\");\n        }\n        _;\n    }\n\n    // ************************** //\n    // *** INTERNAL FUNCTIONS *** //\n    // ************************** //\n\n    /// @dev Returns the total balance of `token` this contracts holds,\n    /// plus the total amount this contract thinks the strategy holds.\n    function _tokenBalanceOf(IERC20 token) internal view returns (uint256 amount) {\n        amount = token.balanceOf(address(this)).add(strategyData[token].balance);\n    }\n\n    // ************************ //\n    // *** PUBLIC FUNCTIONS *** //\n    // ************************ //\n\n    /// @dev Helper function to represent an `amount` of `token` in shares.\n    /// @param token The ERC-20 token.\n    /// @param amount The `token` amount.\n    /// @param roundUp If the result `share` should be rounded up.\n    /// @return share The token amount represented in shares.\n    function toShare(\n        IERC20 token,\n        uint256 amount,\n        bool roundUp\n    ) external view returns (uint256 share) {\n        share = totals[token].toBase(amount, roundUp);\n    }\n\n    /// @dev Helper function represent shares back into the `token` amount.\n    /// @param token The ERC-20 token.\n    /// @param share The amount of shares.\n    /// @param roundUp If the result should be rounded up.\n    /// @return amount The share amount back into native representation.\n    function toAmount(\n        IERC20 token,\n        uint256 share,\n        bool roundUp\n    ) external view returns (uint256 amount) {\n        amount = totals[token].toElastic(share, roundUp);\n    }\n\n    /// @notice Deposit an amount of `token` represented in either `amount` or `share`.\n    /// @param token_ The ERC-20 token to deposit.\n    /// @param from which account to pull the tokens.\n    /// @param to which account to push the tokens.\n    /// @param amount Token amount in native representation to deposit.\n    /// @param share Token amount represented in shares to deposit. Takes precedence over `amount`.\n    /// @return amountOut The amount deposited.\n    /// @return shareOut The deposited amount repesented in shares.\n    function deposit(\n        IERC20 token_,\n        address from,\n        address to,\n        uint256 amount,\n        uint256 share\n    ) public payable allowed(from) returns (uint256 amountOut, uint256 shareOut) {\n        // Checks\n        require(to != address(0), \"BentoBox: to not set\"); // To avoid a bad UI from burning funds\n\n        // Effects\n        IERC20 token = token_ == USE_ETHEREUM ? wethToken : token_;\n        Rebase memory total = totals[token];\n\n        // If a new token gets added, the tokenSupply call checks that this is a deployed contract. Needed for security.\n        require(total.elastic != 0 || token.totalSupply() > 0, \"BentoBox: No tokens\");\n        if (share == 0) {\n            // value of the share may be lower than the amount due to rounding, that's ok\n            share = total.toBase(amount, false);\n            // Any deposit should lead to at least the minimum share balance, otherwise it's ignored (no amount taken)\n            if (total.base.add(share.to128()) < MINIMUM_SHARE_BALANCE) {\n                return (0, 0);\n            }\n        } else {\n            // amount may be lower than the value of share due to rounding, in that case, add 1 to amount (Always round up)\n            amount = total.toElastic(share, true);\n        }\n\n        // In case of skimming, check that only the skimmable amount is taken.\n        // For ETH, the full balance is available, so no need to check.\n        // During flashloans the _tokenBalanceOf is lower than 'reality', so skimming deposits will mostly fail during a flashloan.\n        require(\n            from != address(this) || token_ == USE_ETHEREUM || amount <= _tokenBalanceOf(token).sub(total.elastic),\n            \"BentoBox: Skim too much\"\n        );\n\n        balanceOf[token][to] = balanceOf[token][to].add(share);\n        total.base = total.base.add(share.to128());\n        total.elastic = total.elastic.add(amount.to128());\n        totals[token] = total;\n\n        // Interactions\n        // During the first deposit, we check that this token is 'real'\n        if (token_ == USE_ETHEREUM) {\n            // X2 - If there is an error, could it cause a DoS. Like balanceOf causing revert. (SWC-113)\n            // X2: If the WETH implementation is faulty or malicious, it will block adding ETH (but we know the WETH implementation)\n            IWETH(address(wethToken)).deposit{value: amount}();\n        } else if (from != address(this)) {\n            // X2 - If there is an error, could it cause a DoS. Like balanceOf causing revert. (SWC-113)\n            // X2: If the token implementation is faulty or malicious, it may block adding tokens. Good.\n            token.safeTransferFrom(from, address(this), amount);\n        }\n        emit LogDeposit(token, from, to, amount, share);\n        amountOut = amount;\n        shareOut = share;\n    }\n\n    /// @notice Withdraws an amount of `token` from a user account.\n    /// @param token_ The ERC-20 token to withdraw.\n    /// @param from which user to pull the tokens.\n    /// @param to which user to push the tokens.\n    /// @param amount of tokens. Either one of `amount` or `share` needs to be supplied.\n    /// @param share Like above, but `share` takes precedence over `amount`.\n    function withdraw(\n        IERC20 token_,\n        address from,\n        address to,\n        uint256 amount,\n        uint256 share\n    ) public allowed(from) returns (uint256 amountOut, uint256 shareOut) {\n        // Checks\n        require(to != address(0), \"BentoBox: to not set\"); // To avoid a bad UI from burning funds\n\n        // Effects\n        IERC20 token = token_ == USE_ETHEREUM ? wethToken : token_;\n        Rebase memory total = totals[token];\n        if (share == 0) {\n            // value of the share paid could be lower than the amount paid due to rounding, in that case, add a share (Always round up)\n            share = total.toBase(amount, true);\n        } else {\n            // amount may be lower than the value of share due to rounding, that's ok\n            amount = total.toElastic(share, false);\n        }\n\n        balanceOf[token][from] = balanceOf[token][from].sub(share);\n        total.elastic = total.elastic.sub(amount.to128());\n        total.base = total.base.sub(share.to128());\n        // There have to be at least 1000 shares left to prevent reseting the share/amount ratio (unless it's fully emptied)\n        require(total.base >= MINIMUM_SHARE_BALANCE || total.base == 0, \"BentoBox: cannot empty\");\n        totals[token] = total;\n\n        // Interactions\n        if (token_ == USE_ETHEREUM) {\n            // X2, X3: A revert or big gas usage in the WETH contract could block withdrawals, but WETH9 is fine.\n            IWETH(address(wethToken)).withdraw(amount);\n            // X2, X3: A revert or big gas usage could block, however, the to address is under control of the caller.\n            (bool success, ) = to.call{value: amount}(\"\");\n            require(success, \"BentoBox: ETH transfer failed\");\n        } else {\n            // X2, X3: A malicious token could block withdrawal of just THAT token.\n            //         masterContracts may want to take care not to rely on withdraw always succeeding.\n            token.safeTransfer(to, amount);\n        }\n        emit LogWithdraw(token, from, to, amount, share);\n        amountOut = amount;\n        shareOut = share;\n    }\n\n    /// @notice Transfer shares from a user account to another one.\n    /// @param token The ERC-20 token to transfer.\n    /// @param from which user to pull the tokens.\n    /// @param to which user to push the tokens.\n    /// @param share The amount of `token` in shares.\n    // Clones of master contracts can transfer from any account that has approved them\n    // F3 - Can it be combined with another similar function?\n    // F3: This isn't combined with transferMultiple for gas optimization\n    function transfer(\n        IERC20 token,\n        address from,\n        address to,\n        uint256 share\n    ) public allowed(from) {\n        // Checks\n        require(to != address(0), \"BentoBox: to not set\"); // To avoid a bad UI from burning funds\n\n        // Effects\n        balanceOf[token][from] = balanceOf[token][from].sub(share);\n        balanceOf[token][to] = balanceOf[token][to].add(share);\n\n        emit LogTransfer(token, from, to, share);\n    }\n\n    /// @notice Transfer shares from a user account to multiple other ones.\n    /// @param token The ERC-20 token to transfer.\n    /// @param from which user to pull the tokens.\n    /// @param tos The receivers of the tokens.\n    /// @param shares The amount of `token` in shares for each receiver in `tos`.\n    // F3 - Can it be combined with another similar function?\n    // F3: This isn't combined with transfer for gas optimization\n    function transferMultiple(\n        IERC20 token,\n        address from,\n        address[] calldata tos,\n        uint256[] calldata shares\n    ) public allowed(from) {\n        // Checks\n        require(tos[0] != address(0), \"BentoBox: to[0] not set\"); // To avoid a bad UI from burning funds\n\n        // Effects\n        uint256 totalAmount;\n        uint256 len = tos.length;\n        for (uint256 i = 0; i < len; i++) {\n            address to = tos[i];\n            balanceOf[token][to] = balanceOf[token][to].add(shares[i]);\n            totalAmount = totalAmount.add(shares[i]);\n            emit LogTransfer(token, from, to, shares[i]);\n        }\n        balanceOf[token][from] = balanceOf[token][from].sub(totalAmount);\n    }\n\n    /// @notice Flashloan ability.\n    /// @param borrower The address of the contract that implements and conforms to `IFlashBorrower` and handles the flashloan.\n    /// @param receiver Address of the token receiver.\n    /// @param token The address of the token to receive.\n    /// @param amount of the tokens to receive.\n    /// @param data The calldata to pass to the `borrower` contract.\n    // F5 - Checks-Effects-Interactions pattern followed? (SWC-107)\n    // F5: Not possible to follow this here, reentrancy has been reviewed\n    // F6 - Check for front-running possibilities, such as the approve function (SWC-114)\n    // F6: Slight grieving possible by withdrawing an amount before someone tries to flashloan close to the full amount.\n    function flashLoan(\n        IFlashBorrower borrower,\n        address receiver,\n        IERC20 token,\n        uint256 amount,\n        bytes calldata data\n    ) public {\n        uint256 fee = amount.mul(FLASH_LOAN_FEE) / FLASH_LOAN_FEE_PRECISION;\n        token.safeTransfer(receiver, amount);\n\n        borrower.onFlashLoan(msg.sender, token, amount, fee, data);\n\n        require(_tokenBalanceOf(token) >= totals[token].addElastic(fee.to128()), \"BentoBox: Wrong amount\");\n        emit LogFlashLoan(address(borrower), token, amount, fee, receiver);\n    }\n\n    /// @notice Support for batched flashloans. Useful to request multiple different `tokens` in a single transaction.\n    /// @param borrower The address of the contract that implements and conforms to `IBatchFlashBorrower` and handles the flashloan.\n    /// @param receivers An array of the token receivers. A one-to-one mapping with `tokens` and `amounts`.\n    /// @param tokens The addresses of the tokens.\n    /// @param amounts of the tokens for each receiver.\n    /// @param data The calldata to pass to the `borrower` contract.\n    // F5 - Checks-Effects-Interactions pattern followed? (SWC-107)\n    // F5: Not possible to follow this here, reentrancy has been reviewed\n    // F6 - Check for front-running possibilities, such as the approve function (SWC-114)\n    // F6: Slight grieving possible by withdrawing an amount before someone tries to flashloan close to the full amount.\n    function batchFlashLoan(\n        IBatchFlashBorrower borrower,\n        address[] calldata receivers,\n        IERC20[] calldata tokens,\n        uint256[] calldata amounts,\n        bytes calldata data\n    ) public {\n        uint256[] memory fees = new uint256[](tokens.length);\n\n        uint256 len = tokens.length;\n        for (uint256 i = 0; i < len; i++) {\n            uint256 amount = amounts[i];\n            fees[i] = amount.mul(FLASH_LOAN_FEE) / FLASH_LOAN_FEE_PRECISION;\n\n            tokens[i].safeTransfer(receivers[i], amounts[i]);\n        }\n\n        borrower.onBatchFlashLoan(msg.sender, tokens, amounts, fees, data);\n\n        for (uint256 i = 0; i < len; i++) {\n            IERC20 token = tokens[i];\n            require(_tokenBalanceOf(token) >= totals[token].addElastic(fees[i].to128()), \"BentoBox: Wrong amount\");\n            emit LogFlashLoan(address(borrower), token, amounts[i], fees[i], receivers[i]);\n        }\n    }\n\n    /// @notice Sets the target percentage of the strategy for `token`.\n    /// @dev Only the owner of this contract is allowed to change this.\n    /// @param token The address of the token that maps to a strategy to change.\n    /// @param targetPercentage_ The new target in percent. Must be lesser or equal to `MAX_TARGET_PERCENTAGE`.\n    function setStrategyTargetPercentage(IERC20 token, uint64 targetPercentage_) public onlyOwner {\n        // Checks\n        require(targetPercentage_ <= MAX_TARGET_PERCENTAGE, \"StrategyManager: Target too high\");\n\n        // Effects\n        strategyData[token].targetPercentage = targetPercentage_;\n        emit LogStrategyTargetPercentage(token, targetPercentage_);\n    }\n\n    /// @notice Sets the contract address of a new strategy that conforms to `IStrategy` for `token`.\n    /// Must be called twice with the same arguments.\n    /// A new strategy becomes pending first and can be activated once `STRATEGY_DELAY` is over.\n    /// @dev Only the owner of this contract is allowed to change this.\n    /// @param token The address of the token that maps to a strategy to change.\n    /// @param newStrategy The address of the contract that conforms to `IStrategy`.\n    // F5 - Checks-Effects-Interactions pattern followed? (SWC-107)\n    // F5: Total amount is updated AFTER interaction. But strategy is under our control.\n    // C4 - Use block.timestamp only for long intervals (SWC-116)\n    // C4: block.timestamp is used for a period of 2 weeks, which is long enough\n    function setStrategy(IERC20 token, IStrategy newStrategy) public onlyOwner {\n        StrategyData memory data = strategyData[token];\n        IStrategy pending = pendingStrategy[token];\n        if (data.strategyStartDate == 0 || pending != newStrategy) {\n            pendingStrategy[token] = newStrategy;\n            // C1 - All math done through BoringMath (SWC-101)\n            // C1: Our sun will swallow the earth well before this overflows\n            data.strategyStartDate = (block.timestamp + STRATEGY_DELAY).to64();\n            emit LogStrategyQueued(token, newStrategy);\n        } else {\n            require(data.strategyStartDate != 0 && block.timestamp >= data.strategyStartDate, \"StrategyManager: Too early\");\n            if (address(strategy[token]) != address(0)) {\n                int256 balanceChange = strategy[token].exit(data.balance);\n                // Effects\n                if (balanceChange > 0) {\n                    uint256 add = uint256(balanceChange);\n                    totals[token].addElastic(add);\n                    emit LogStrategyProfit(token, add);\n                } else if (balanceChange < 0) {\n                    uint256 sub = uint256(-balanceChange);\n                    totals[token].subElastic(sub);\n                    emit LogStrategyLoss(token, sub);\n                }\n\n                emit LogStrategyDivest(token, data.balance);\n            }\n            strategy[token] = pending;\n            data.strategyStartDate = 0;\n            data.balance = 0;\n            pendingStrategy[token] = IStrategy(0);\n            emit LogStrategySet(token, newStrategy);\n        }\n        strategyData[token] = data;\n    }\n\n    /// @notice The actual process of yield farming. Executes the strategy of `token`.\n    /// Optionally does housekeeping if `balance` is true.\n    /// `maxChangeAmount` is relevant for skimming or withdrawing if `balance` is true.\n    /// @param token The address of the token for which a strategy is deployed.\n    /// @param balance True if housekeeping should be done.\n    /// @param maxChangeAmount The maximum amount for either pulling or pushing from/to the `IStrategy` contract.\n    // F5 - Checks-Effects-Interactions pattern followed? (SWC-107)\n    // F5: Total amount is updated AFTER interaction. But strategy is under our control.\n    // F5: Not followed to prevent reentrancy issues with flashloans and BentoBox skims?\n    function harvest(\n        IERC20 token,\n        bool balance,\n        uint256 maxChangeAmount\n    ) public {\n        StrategyData memory data = strategyData[token];\n        IStrategy _strategy = strategy[token];\n        int256 balanceChange = _strategy.harvest(data.balance, msg.sender);\n        if (balanceChange == 0 && !balance) {\n            return;\n        }\n\n        uint256 totalElastic = totals[token].elastic;\n\n        if (balanceChange > 0) {\n            uint256 add = uint256(balanceChange);\n            totalElastic = totalElastic.add(add);\n            totals[token].elastic = totalElastic.to128();\n            emit LogStrategyProfit(token, add);\n        } else if (balanceChange < 0) {\n            // C1 - All math done through BoringMath (SWC-101)\n            // C1: balanceChange could overflow if it's max negative int128.\n            // But tokens with balances that large are not supported by the BentoBox.\n            uint256 sub = uint256(-balanceChange);\n            totalElastic = totalElastic.sub(sub);\n            totals[token].elastic = totalElastic.to128();\n            data.balance = data.balance.sub(sub.to128());\n            emit LogStrategyLoss(token, sub);\n        }\n\n        if (balance) {\n            uint256 targetBalance = totalElastic.mul(data.targetPercentage) / 100;\n            // if data.balance == targetBalance there is nothing to update\n            if (data.balance < targetBalance) {\n                uint256 amountOut = targetBalance.sub(data.balance);\n                if (maxChangeAmount != 0 && amountOut > maxChangeAmount) {\n                    amountOut = maxChangeAmount;\n                }\n                token.safeTransfer(address(_strategy), amountOut);\n                data.balance = data.balance.add(amountOut.to128());\n                _strategy.skim(amountOut);\n                emit LogStrategyInvest(token, amountOut);\n            } else if (data.balance > targetBalance) {\n                uint256 amountIn = data.balance.sub(targetBalance.to128());\n                if (maxChangeAmount != 0 && amountIn > maxChangeAmount) {\n                    amountIn = maxChangeAmount;\n                }\n\n                uint256 actualAmountIn = _strategy.withdraw(amountIn);\n\n                data.balance = data.balance.sub(actualAmountIn.to128());\n                emit LogStrategyDivest(token, actualAmountIn);\n            }\n        }\n\n        strategyData[token] = data;\n    }\n\n    // Contract should be able to receive ETH deposits to support deposit & skim\n    // solhint-disable-next-line no-empty-blocks\n    receive() external payable {}\n}\n",
  "sourcePath": "/home/akanimoh/Documents/ultimate3/sushiswapw/contracts/bentobox/BentoBoxV1.sol",
  "compiler": {
    "name": "solc",
    "version": "0.6.12+commit.27d51765.Emscripten.clang"
  },
  "schemaVersion": "3.4.1",
  "updatedAt": "2021-07-30T15:51:12.470Z",
  "devdoc": {
    "kind": "dev",
    "methods": {
      "deploy(address,bytes,bool)": {
        "params": {
          "data": "Additional abi encoded calldata that is passed to the new clone via `IMasterContract.init`.",
          "masterContract": "The address of the contract to clone.",
          "useCreate2": "Creates the clone by using the CREATE2 opcode, in this case `data` will be used as salt."
        },
        "returns": {
          "cloneAddress": "Address of the created clone contract."
        }
      },
      "setMasterContractApproval(address,address,bool,uint8,bytes32,bytes32)": {
        "params": {
          "approved": "If True approves access. If False revokes access.",
          "masterContract": "The address who gains or loses access.",
          "r": "Part of the signature. (See EIP-191)",
          "s": "Part of the signature. (See EIP-191)",
          "user": "The address of the user that approves or revokes access.",
          "v": "Part of the signature. (See EIP-191)"
        }
      },
      "transferOwnership(address,bool,bool)": {
        "params": {
          "direct": "True if `newOwner` should be set immediately. False if `newOwner` needs to use `claimOwnership`.",
          "newOwner": "Address of the new owner.",
          "renounce": "Allows the `newOwner` to be `address(0)` if `direct` and `renounce` is True. Has no effect otherwise."
        }
      }
    },
    "version": 1
  },
  "userdoc": {
    "kind": "user",
    "methods": {
      "claimOwnership()": {
        "notice": "Needs to be called by `pendingOwner` to claim ownership."
      },
      "deploy(address,bytes,bool)": {
        "notice": "Deploys a given master Contract as a clone. Any ETH transferred with this call is forwarded to the new clone. Emits `LogDeploy`."
      },
      "masterContractApproved(address,address)": {
        "notice": "masterContract to user to approval state"
      },
      "masterContractOf(address)": {
        "notice": "Mapping from clone contracts to their masterContract."
      },
      "nonces(address)": {
        "notice": "user nonces for masterContract approvals"
      },
      "registerProtocol()": {
        "notice": "Other contracts need to register with this master contract so that users can approve them for the BentoBox."
      },
      "setMasterContractApproval(address,address,bool,uint8,bytes32,bytes32)": {
        "notice": "Approves or revokes a `masterContract` access to `user` funds."
      },
      "transferOwnership(address,bool,bool)": {
        "notice": "Transfers ownership to `newOwner`. Either directly or claimable by the new pending owner. Can only be invoked by the current `owner`."
      },
      "whitelistMasterContract(address,bool)": {
        "notice": "Enables or disables a contract for approval without signed message."
      },
      "whitelistedMasterContracts(address)": {
        "notice": "masterContract to whitelisted state for approval without signed message"
      }
    },
    "version": 1
  }
}