{
  "contractName": "PeggedOracleV1",
  "abi": [
    {
      "inputs": [
        {
          "internalType": "uint256",
          "name": "rate",
          "type": "uint256"
        }
      ],
      "name": "getDataParameter",
      "outputs": [
        {
          "internalType": "bytes",
          "name": "",
          "type": "bytes"
        }
      ],
      "stateMutability": "pure",
      "type": "function"
    },
    {
      "inputs": [
        {
          "internalType": "bytes",
          "name": "data",
          "type": "bytes"
        }
      ],
      "name": "get",
      "outputs": [
        {
          "internalType": "bool",
          "name": "",
          "type": "bool"
        },
        {
          "internalType": "uint256",
          "name": "",
          "type": "uint256"
        }
      ],
      "stateMutability": "nonpayable",
      "type": "function"
    },
    {
      "inputs": [
        {
          "internalType": "bytes",
          "name": "data",
          "type": "bytes"
        }
      ],
      "name": "peek",
      "outputs": [
        {
          "internalType": "bool",
          "name": "",
          "type": "bool"
        },
        {
          "internalType": "uint256",
          "name": "",
          "type": "uint256"
        }
      ],
      "stateMutability": "view",
      "type": "function"
    },
    {
      "inputs": [
        {
          "internalType": "bytes",
          "name": "data",
          "type": "bytes"
        }
      ],
      "name": "peekSpot",
      "outputs": [
        {
          "internalType": "uint256",
          "name": "rate",
          "type": "uint256"
        }
      ],
      "stateMutability": "view",
      "type": "function"
    },
    {
      "inputs": [
        {
          "internalType": "bytes",
          "name": "",
          "type": "bytes"
        }
      ],
      "name": "name",
      "outputs": [
        {
          "internalType": "string",
          "name": "",
          "type": "string"
        }
      ],
      "stateMutability": "view",
      "type": "function"
    },
    {
      "inputs": [
        {
          "internalType": "bytes",
          "name": "",
          "type": "bytes"
        }
      ],
      "name": "symbol",
      "outputs": [
        {
          "internalType": "string",
          "name": "",
          "type": "string"
        }
      ],
      "stateMutability": "view",
      "type": "function"
    }
  ],
  "bytecode": "0x608060405234801561001057600080fd5b506103ac806100206000396000f3fe608060405234801561001057600080fd5b50600436106100625760003560e01c8063c699c4d614610067578063d39bbef01461014a578063d568866c146101ca578063d6d7d52514610238578063ea887d08146102c1578063eeb8a8d314610238575b600080fd5b6100d56004803603602081101561007d57600080fd5b810190602081018135600160201b81111561009757600080fd5b8201836020820111156100a957600080fd5b803590602001918460018302840111600160201b831117156100ca57600080fd5b5090925090506102de565b6040805160208082528351818301528351919283929083019185019080838360005b8381101561010f5781810151838201526020016100f7565b50505050905090810190601f16801561013c5780820380516001836020036101000a031916815260200191505b509250505060405180910390f35b6101b86004803603602081101561016057600080fd5b810190602081018135600160201b81111561017a57600080fd5b82018360208201111561018c57600080fd5b803590602001918460018302840111600160201b831117156101ad57600080fd5b5090925090506102fd565b60408051918252519081900360200190f35b6100d5600480360360208110156101e057600080fd5b810190602081018135600160201b8111156101fa57600080fd5b82018360208201111561020c57600080fd5b803590602001918460018302840111600160201b8311171561022d57600080fd5b509092509050610311565b6102a66004803603602081101561024e57600080fd5b810190602081018135600160201b81111561026857600080fd5b82018360208201111561027a57600080fd5b803590602001918460018302840111600160201b8311171561029b57600080fd5b509092509050610333565b60408051921515835260208301919091528051918290030190f35b6100d5600480360360208110156102d757600080fd5b5035610358565b505060408051808201909152600381526250454760e81b602082015290565b60006103098383610333565b949350505050565b5050604080518082019091526006815265141959d9d95960d21b602082015290565b60008060008484602081101561034857600080fd5b5035801515969095509350505050565b6040805160208082019390935281518082039093018352810190529056fea2646970667358221220882a7629905ee5ef0737fb8df1a92078e80dbb7cb9c603fd1a7a8d25aed6dcf764736f6c634300060c0033",
  "immutableReferences": {},
  "source": "// SPDX-License-Identifier: MIT\npragma solidity 0.6.12;\n\n// File contracts/interfaces/IOracle.sol\n// License-Identifier: MIT\n\ninterface IOracle {\n    /// @notice Get the latest exchange rate.\n    /// @param data Usually abi encoded, implementation specific data that contains information and arguments to & about the oracle.\n    /// For example:\n    /// (string memory collateralSymbol, string memory assetSymbol, uint256 division) = abi.decode(data, (string, string, uint256));\n    /// @return success if no valid (recent) rate is available, return false else true.\n    /// @return rate The rate of the requested asset / pair / pool.\n    function get(bytes calldata data) external returns (bool success, uint256 rate);\n\n    /// @notice Check the last exchange rate without any state changes.\n    /// @param data Usually abi encoded, implementation specific data that contains information and arguments to & about the oracle.\n    /// For example:\n    /// (string memory collateralSymbol, string memory assetSymbol, uint256 division) = abi.decode(data, (string, string, uint256));\n    /// @return success if no valid (recent) rate is available, return false else true.\n    /// @return rate The rate of the requested asset / pair / pool.\n    function peek(bytes calldata data) external view returns (bool success, uint256 rate);\n\n    /// @notice Check the current spot exchange rate without any state changes. For oracles like TWAP this will be different from peek().\n    /// @param data Usually abi encoded, implementation specific data that contains information and arguments to & about the oracle.\n    /// For example:\n    /// (string memory collateralSymbol, string memory assetSymbol, uint256 division) = abi.decode(data, (string, string, uint256));\n    /// @return rate The rate of the requested asset / pair / pool.\n    function peekSpot(bytes calldata data) external view returns (uint256 rate);\n\n    /// @notice Returns a human readable (short) name about this oracle.\n    /// @param data Usually abi encoded, implementation specific data that contains information and arguments to & about the oracle.\n    /// For example:\n    /// (string memory collateralSymbol, string memory assetSymbol, uint256 division) = abi.decode(data, (string, string, uint256));\n    /// @return (string) A human readable symbol name about this oracle.\n    function symbol(bytes calldata data) external view returns (string memory);\n\n    /// @notice Returns a human readable name about this oracle.\n    /// @param data Usually abi encoded, implementation specific data that contains information and arguments to & about the oracle.\n    /// For example:\n    /// (string memory collateralSymbol, string memory assetSymbol, uint256 division) = abi.decode(data, (string, string, uint256));\n    /// @return (string) A human readable name about this oracle.\n    function name(bytes calldata data) external view returns (string memory);\n}\n\n// File contracts/oracles/PeggedOracle.sol\n// License-Identifier: MIT\n\n/// @title PeggedOracle\n/// @author BoringCrypto\n/// @notice Oracle used for pegged prices that don't change\n/// @dev\ncontract PeggedOracleV1 is IOracle {\n    /// @notice\n    /// @dev\n    /// @param rate (uint256) The fixed exchange rate\n    /// @return  (bytes)\n    function getDataParameter(uint256 rate) public pure returns (bytes memory) {\n        return abi.encode(rate);\n    }\n\n    // Get the exchange rate\n    /// @inheritdoc IOracle\n    function get(bytes calldata data) public override returns (bool, uint256) {\n        uint256 rate = abi.decode(data, (uint256));\n        return (rate != 0, rate);\n    }\n\n    // Check the exchange rate without any state changes\n    /// @inheritdoc IOracle\n    function peek(bytes calldata data) public view override returns (bool, uint256) {\n        uint256 rate = abi.decode(data, (uint256));\n        return (rate != 0, rate);\n    }\n\n    // Check the current spot exchange rate without any state changes\n    /// @inheritdoc IOracle\n    function peekSpot(bytes calldata data) external view override returns (uint256 rate) {\n        (, rate) = peek(data);\n    }\n\n    /// @inheritdoc IOracle\n    function name(bytes calldata) public view override returns (string memory) {\n        return \"Pegged\";\n    }\n\n    /// @inheritdoc IOracle\n    function symbol(bytes calldata) public view override returns (string memory) {\n        return \"PEG\";\n    }\n}\n",
  "sourcePath": "/home/akanimoh/Documents/ultimate3/sushiswapw/contracts/bentobox/PeggedOracleV1.sol",
  "compiler": {
    "name": "solc",
    "version": "0.6.12+commit.27d51765.Emscripten.clang"
  },
  "schemaVersion": "3.4.1",
  "updatedAt": "2021-07-30T15:51:13.477Z",
  "devdoc": {
    "author": "BoringCrypto",
    "kind": "dev",
    "methods": {
      "get(bytes)": {
        "params": {
          "data": "Usually abi encoded, implementation specific data that contains information and arguments to & about the oracle. For example: (string memory collateralSymbol, string memory assetSymbol, uint256 division) = abi.decode(data, (string, string, uint256));"
        },
        "returns": {
          "_0": "success if no valid (recent) rate is available, return false else true.",
          "_1": "rate The rate of the requested asset / pair / pool."
        }
      },
      "getDataParameter(uint256)": {
        "params": {
          "rate": "(uint256) The fixed exchange rate"
        },
        "returns": {
          "_0": "(bytes)"
        }
      },
      "name(bytes)": {
        "params": {
          "data": "Usually abi encoded, implementation specific data that contains information and arguments to & about the oracle. For example: (string memory collateralSymbol, string memory assetSymbol, uint256 division) = abi.decode(data, (string, string, uint256));"
        },
        "returns": {
          "_0": "(string) A human readable name about this oracle."
        }
      },
      "peek(bytes)": {
        "params": {
          "data": "Usually abi encoded, implementation specific data that contains information and arguments to & about the oracle. For example: (string memory collateralSymbol, string memory assetSymbol, uint256 division) = abi.decode(data, (string, string, uint256));"
        },
        "returns": {
          "_0": "success if no valid (recent) rate is available, return false else true.",
          "_1": "rate The rate of the requested asset / pair / pool."
        }
      },
      "peekSpot(bytes)": {
        "params": {
          "data": "Usually abi encoded, implementation specific data that contains information and arguments to & about the oracle. For example: (string memory collateralSymbol, string memory assetSymbol, uint256 division) = abi.decode(data, (string, string, uint256));"
        },
        "returns": {
          "rate": "The rate of the requested asset / pair / pool."
        }
      },
      "symbol(bytes)": {
        "params": {
          "data": "Usually abi encoded, implementation specific data that contains information and arguments to & about the oracle. For example: (string memory collateralSymbol, string memory assetSymbol, uint256 division) = abi.decode(data, (string, string, uint256));"
        },
        "returns": {
          "_0": "(string) A human readable symbol name about this oracle."
        }
      }
    },
    "title": "PeggedOracle",
    "version": 1
  },
  "userdoc": {
    "kind": "user",
    "methods": {
      "get(bytes)": {
        "notice": "Get the latest exchange rate."
      },
      "getDataParameter(uint256)": {
        "notice": "@dev"
      },
      "name(bytes)": {
        "notice": "Returns a human readable name about this oracle."
      },
      "peek(bytes)": {
        "notice": "Check the last exchange rate without any state changes."
      },
      "peekSpot(bytes)": {
        "notice": "Check the current spot exchange rate without any state changes. For oracles like TWAP this will be different from peek()."
      },
      "symbol(bytes)": {
        "notice": "Returns a human readable (short) name about this oracle."
      }
    },
    "notice": "Oracle used for pegged prices that don't change",
    "version": 1
  }
}